:100000000C9414030C94790D0C94520D0C943C0335
:100010000C943C030C943C030C943C030C943C0364
:100020000C943C030C943C030C943C030C943C0354
:100030000C943C030C943C030C943C030C943C0344
:100040000C94080D0C943C030C94C60D0C94A00D5C
:100050000C943C030C943C030C943C030C943C0324
:100060000C943C030C943C03554E4B4E4F574E2082
:10007000434F4D4D414E4400434F4E46494700418A
:1000800044442C31322C42434B4C545F4252492C55
:1000900055382C52572C4261636B6C696768742C1D
:1000A0004D4350206261636B6C69676874206272B3
:1000B000696768746E6573732066726F6D20302097
:1000C000746F2032353500494E5055542C32323041
:1000D000332C524E475F524F542C524F5441525979
:1000E0002C535041445F454E434F4445525F4E4F61
:1000F0004143432C504F535F4E414D45533D3523B3
:10010000313023323023343023383023313630231A
:10011000333230233634302C504F535F56414C55D8
:1001200045533D30233123322333233423352336C3
:1001300023372C504F535F554956414C5545533D3D
:100140002D36232D34232D322330233223342336EE
:10015000233800494E5055542C323230322C4D4FFA
:1001600044455F524F542C524F544152592C5350D6
:1001700041445F454E434F4445525F4E4F414343D8
:100180002C504F535F4E414D45533D4150502356E7
:100190004F52234D415023504C4E2C504F535F56DD
:1001A000414C5545533D302331233223332C504F9E
:1001B000535F554956414C5545533D2D34232D32FF
:1001C0002332233400494E5055542C323230312CD6
:1001D0004241524F5F524F542C524F544152592C6E
:1001E000535041445F454E434F4445525F4E4F414B
:1001F00043432C504F535F4E414D45533D494E2391
:100200004850412C504F535F56414C5545533D315A
:1002100023302C504F535F554956414C5545533D63
:100220002D32233200494E5055542C323230302C6E
:100230004D494E535F524F542C524F544152592CFA
:10024000535041445F454E434F4445525F4E4F41EA
:1002500043432C504F535F4E414D45533D52414413
:10026000494F234241524F2C504F535F56414C55FA
:1002700045533D3023312C504F535F554956414C27
:100280005545533D2D32233200494E5055542C32A2
:100290003130312C535243322C5357495443483355
:1002A0002C535749544348332C504F535F4E414DC4
:1002B00045533D4144463223564F5232234F464622
:1002C00000494E5055542C323130302C535243316A
:1002D0002C535749544348332C53574954434833BC
:1002E0002C504F535F4E414D45533D4144463123C1
:1002F000564F5231234F464600494E5055542C32EA
:100300003031302C544552522C505553484255549C
:10031000544F4E2C535041445F505553484255540E
:10032000544F4E2C55495F545950453D3200494E6B
:100330005055542C323030392C504F532C5055538B
:1003400048425554544F4E2C535041445F505553DE
:1003500048425554544F4E2C55495F545950453DD1
:100360003200494E5055542C323030382C444154D0
:10037000412C50555348425554544F4E2C535041E4
:10038000445F50555348425554544F4E2C55495F85
:10039000545950453D3200494E5055542C3230305E
:1003A000372C4150542C50555348425554544F4EBD
:1003B0002C535041445F50555348425554544F4E6E
:1003C0002C55495F545950453D3200494E505554C3
:1003D0002C323030362C5750542C505553484255FF
:1003E00054544F4E2C535041445F5055534842553E
:1003F00054544F4E2C55495F545950453D32004995
:100400004E5055542C323030352C5354412C5055CD
:100410005348425554544F4E2C535041445F50550D
:100420005348425554544F4E2C55495F54595045EA
:100430003D3200494E5055542C323030342C5758F0
:10044000522C50555348425554544F4E2C53504102
:10045000445F50555348425554544F4E2C55495FB4
:10046000545950453D3200494E5055542C3230308D
:10047000332C5354442C50555348425554544F4EEA
:100480002C535041445F50555348425554544F4E9D
:100490002C48494444454E3D312C524F5554455407
:1004A0004F3D4241524F5F454E4300494E505554D7
:1004B0002C323030322C5253542C50555348425524
:1004C00054544F4E2C535041445F5055534842555D
:1004D00054544F4E2C48494444454E3D312C524FC4
:1004E000555445544F3D4D494E535F454E43004989
:1004F0004E5055542C323030312C4D5452532C50D8
:10050000555348425554544F4E2C535041445F501C
:10051000555348425554544F4E2C55495F545950E9
:10052000453D3200494E5055542C323030302C4627
:1005300050562C50555348425554544F4E2C5350FE
:1005400041445F50555348425554544F4E2C5549E1
:100550005F545950453D3200454E434F444552008B
:10056000494E505554004E4F5F444953504C4159E9
:100570005F434C4541523D31005041474553555032
:10058000504F52543D3000495347454E4552494320
:100590003D31004F5054494F4E00434654203733AD
:1005A0003720454649532050414E454C0053504159
:1005B00044004346542037333720454649532050A2
:1005C000414E454C005350414400000000002400BF
:1005D00027002A0000000000250028002B00000052
:1005E0000000230026002900040404040404040479
:1005F00002020202020203030303030301020408CE
:10060000102040800102040810200102040810207C
:1006100000000008000201000003040700000000C1
:1006200000000000F80DB71511241FBECFEFD8E071
:10063000DEBFCDBF26E0AEEFB2E001C01D92AD3F00
:10064000B207E1F712E0A0E0B1E0EAE9F1E302C0AD
:1006500005900D92AE3FB107D9F713E0C3E1D3E0A7
:1006600004C02197FE010E94BF16C231D107C9F70D
:100670000E946E0F0C94C0180C940000AC011092F4
:1006800042049091920680919106FA01BF01641B89
:10069000750B20914204308130934204931304C0BF
:1006A000921302C0109242043081311104C092179B
:1006B00021F0CB0108953817D1F33196E7CF0F938E
:1006C0001F93CF93DF9380918606882309F446C059
:1006D000D0E0C0E0813029F482E080938606C6E451
:1006E000D4E080918706882341F1209721F4C091BE
:1006F0008B06D0918C068E01CE010E943E03892B81
:1007000029F42196F80180818111F5CFF8018081CB
:10071000882309F1C8010E943E03F801E80FF91F80
:100720008081882311F010823196F0938C06E0933B
:100730008B0610938A060093890680918906909112
:100740008A06892B59F081E080938706DF91CF914B
:100750001F910F91089510E000E0EBCF80E0F6CFFD
:10076000833081F028F4813099F08230A9F0089527
:100770008730A9F08830C9F08430B1F480918000CE
:100780008F7D03C0809180008F77809380000895D3
:1007900084B58F7784BD089584B58F7DFBCF80911C
:1007A000B0008F778093B00008958091B0008F7D66
:1007B000F9CFCF93DF93282F30E0F901E05FF94FB5
:1007C0008491F901E450FA4FD491F901E851FA4FBC
:1007D000C491CC23A1F081110E94B003EC2FF0E072
:1007E000EE0FFF1FE252FA4FA591B491EC91ED2369
:1007F00081E090E009F480E0DF91CF91089580E0FE
:1008000090E0FACF1F93CF93DF93282F30E0F901C8
:10081000E05FF94F8491F901E450FA4FD491F90166
:10082000E851FA4FC491CC23A9F0162F81110E94F0
:10083000B003EC2FF0E0EE0FFF1FEC52FA4FA59142
:10084000B4918FB7F894EC91111108C0D095DE23C4
:10085000DC938FBFDF91CF911F910895DE2BF8CFEE
:10086000CF93DF9390E0FC01E450FA4F249188513C
:100870009A4FFC0184918823C9F090E0880F991F5A
:10088000FC01E653FA4FA591B491FC01EC52FA4FEA
:10089000C591D49161110DC09FB7F8948C912095AA
:1008A00082238C938881282328839FBFDF91CF9157
:1008B0000895623051F49FB7F8943C91822F80954F
:1008C00083238C93E8812E2BEFCF8FB7F894EC9194
:1008D0002E2B2C938FBFEACF1F93CF93DF93182F2C
:1008E000EB0161E00E943004209739F460E0812F31
:1008F000DF91CF911F910C940204CF3FD10511F4E9
:1009000061E0F5CFE12FF0E0E05FF94FE491E330F3
:1009100031F140F4E130B1F0E230E1F0C038D1051E
:100920007CF7E4CFE73029F1E83059F1E430B1F752
:1009300080918000806280938000D0938B00C09370
:100940008A0004C084B5806884BDC7BDDF91CF91A3
:100950001F91089584B5806284BDC8BDF7CF809192
:100960008000806880938000D0938900C0938800C5
:10097000EDCF8091B00080688093B000C093B30049
:10098000E5CF8091B00080628093B000C093B40046
:10099000DDCF3FB7F89480910D0390910E03A091A5
:1009A0000F03B091100326B5A89B05C02F3F19F087
:1009B0000196A11DB11D3FBFBA2FA92F982F8827DF
:1009C000BC01CD01620F711D811D911D42E0660FBA
:1009D000771F881F991F4A95D1F708958F929F928C
:1009E000AF92BF92CF92DF92EF92FF924B015C01E8
:1009F0000E94C9046B017C010E94C9046C197D0925
:100A00008E099F09683E734081059105A8F321E096
:100A1000821A9108A108B10888EEC80E83E0D81E9A
:100A2000E11CF11C81149104A104B10429F7FF9089
:100A3000EF90DF90CF90BF90AF909F908F900895F0
:100A40000895DC01ED91FC910190F081E02D099475
:100A5000EF92FF920F931F93CF93DF9320913D046A
:100A60002223E9F08C016091910680918E0690918D
:100A70008F060E942105E0908E06F0908F06E80117
:100A8000FE016491662359F0D701ED91FC9101902C
:100A9000F081E02DC70109952196892B89F7DF9117
:100AA000CF911F910F91FF90EF900895DB01149665
:100AB0004D915C9115976D917C91DC01ED91FC91CC
:100AC0000280F381E02D0994CF93DF9320913D04C0
:100AD000222391F0EC016091910680918E06909115
:100AE0008F060E942105BE0180918E0690918F068F
:100AF000DF91CF910C945605DF91CF910895AF927D
:100B0000BF92CF92DF92EF92FF920F931F93CF93FA
:100B1000DF936C017B018B01040F151FEB015E015C
:100B2000AE18BF08C017D10759F06991D601ED91F1
:100B3000FC910190F081E02DC6010995892B79F790
:100B4000C501DF91CF911F910F91FF90EF90DF9042
:100B5000CF90BF90AF900895FC01538D448D252F09
:100B600030E0842F90E0821B930B541710F0CF9647
:100B7000089501970895FC01918D828D981761F079
:100B8000A28DAE0FBF2FB11D5D968C91928D9F5F90
:100B90009F73928F90E008958FEF9FEF0895FC016F
:100BA000918D828D981731F0828DE80FF11D858D22
:100BB00090E008958FEF9FEF0895FC01918D228DB5
:100BC000892F90E0805C9F4F821B91098F7399273A
:100BD000089580EA93E00E94DD0521E0892B09F465
:100BE00020E0822F089580E090E0892B29F00E9478
:100BF000E90581110C9400000895FC01A48DA80F53
:100C0000B92FB11DA35ABF4F2C91848D90E001964E
:100C10008F739927848FA689B7892C93A089B1896E
:100C20008C91837080648C93938D848D981306C00F
:100C30000288F389E02D80818F7D80830895EF9273
:100C4000FF920F931F93CF93DF93EC0181E0888F86
:100C50009B8D8C8D98131AC0E889F989808185FF56
:100C600015C09FB7F894EE89FF896083E889F989F8
:100C700080818370806480839FBF81E090E0DF91FA
:100C8000CF911F910F91FF90EF900895F62E0B8D4D
:100C900010E00F5F1F4F0F731127E02E8C8D8E1108
:100CA0000CC00FB607FCFACFE889F989808185FF6F
:100CB000F5CFCE010E94FD05F1CFEB8DEC0FFD2F9E
:100CC000F11DE35AFF4FF0829FB7F8940B8FEA892A
:100CD000FB8980818062CFCFCF93DF93EC01888D39
:100CE0008823B9F0AA89BB89E889F9898C9185FDA7
:100CF00003C0808186FD0DC00FB607FCF7CF8C9135
:100D000085FFF2CF808185FFEDCFCE010E94FD05EA
:100D1000E9CFDF91CF910895EF92FF921F93CF9388
:100D2000DF93EC0167FD22C088816817F9F0E62E99
:100D3000062E000CFF0889818E151F0409F00CF4A3
:100D400041C0688310E08A85181780F4B701012E2E
:100D500002C0759567950A94E2F76170FE01E10F94
:100D6000F11D82810E9402041F5FEDCF8F8598895B
:100D7000009729F00197F1F08EEF9FEF15C08D8558
:100D80008E3008F08E508770806480937C00809154
:100D90007A00806480937A0080917A0086FDFCCF8F
:100DA0008091780090917900DF91CF911F91FF9011
:100DB000EF9008958D85DF91CF911F91FF90EF9077
:100DC0000C94D9038DEF9FEFEFCFDC01ED91FD91F6
:100DD0008081ED91FD919081ED91FD916C91637019
:100DE0008E2309F064609F2309F06860E2E0F7E079
:100DF000E60FF11D659565956D936D917D918D91D2
:100E00009D91099423C01AC012C016C010C01EC004
:100E100009C014C013C006C019C009C00DC007C066
:100E20000DC014C062507040804090400BC06150B3
:100E300070408040904006C06E5F01C06F5F7F4F82
:100E40008F4F9F4F9E938E937E936E9308958091C4
:100E50000003909101030C94E5068091FE029091AD
:100E6000FF020C94E5064F925F926F927F928F92F1
:100E70009F92AF92BF92CF92DF92EF92FF920F9329
:100E80001F93CF93DF93CDB7DEB762970FB6F89479
:100E9000DEBF0FBECDBF4C01742E652E2B01AA867E
:100EA000BB86CC86DD86EE86FF86088B198B2A8B67
:100EB00089E0FE013A96DE01119601900D928A9525
:100EC000E1F78FEFF401808399E0FE013196D401C0
:100ED000129601900D929A95E1F791E0F4019387B3
:100EE00084878587968781E090E0908B878784014F
:100EF000980128193909F401828590E00F5F1F4F8E
:100F00002817390734F461E0F80181810E94300428
:100F1000EFCF91E001C0990F8A95EAF7918385851B
:100F200087FD0DC0871559F09685913019F460E062
:100F30000E94020460E0F40185850E943004F401FF
:100F4000758666864786508A611004C060E0872DEA
:100F50000E940204F4016685858562960FB6F894B6
:100F6000DEBF0FBECDBFDF91CF911F910F91FF90DC
:100F7000EF90DF90CF90BF90AF909F908F907F9039
:100F80006F905F904F900C94300480E008950F9321
:100F90001F93CF93DF93EC01062F142F62E0802F75
:100FA0000E94300462E0812F0E943004802F90E084
:100FB000FC01E851FA4FE491F0E0EE0FFF1FE2521E
:100FC000FA4FA591B491B983A883FC01E450FA4F7C
:100FD00024912C83812F90E0FC01E851FA4FE49199
:100FE000F0E0EE0FFF1FE252FA4F459154915B8300
:100FF0004A83FC01E450FA4FE491ED831F82188686
:1010000019861A868BE39FE10197F1F78C912823CB
:1010100091E009F490E0DA018C91E82309F0926004
:101020009E83BE01802F0E94C507082FBE01812F1D
:101030000E94C507800F8B87DF91CF911F910F9181
:1010400008950E945F03882359F081E0809387060A
:10105000809388068091890690918A060C94ED15FC
:101060001092880660E070E0CB0108950E9421088C
:101070000C942108CF92DF92EF92FF920E942108F8
:101080006B017C018FEFC816D104E104F10409F073
:1010900040F4B6018BE00E946C04D0921B02C09217
:1010A0001A02FF90EF90DF90CF900895FB0101901E
:1010B0000020E9F73197AF01461B570BDC01ED919A
:1010C000FC910280F381E02D099480913D048823F6
:1010D000A1F06091900680918E0690918F060E94FB
:1010E000210580914504882341F064E372E08091FA
:1010F0008E0690918F060E9456081092440410921A
:101100003D0480E008958F929F92AF92BF92EF923C
:10111000FF920F931F93CF93DF93CDB7DEB7A197C5
:101120000FB6F894DEBF0FBECDBF7C01FA01CB0134
:1011300019A2223008F42AE08E010F5D1F4F822E83
:10114000912CB12CA12CBF01A50194010E949D16E8
:10115000F901CA016A300CF5605DD8016E938D010A
:10116000232B242B252B79F790E080E0109721F09A
:10117000BD01C7010E945608A1960FB6F894DEBFC4
:101180000FBECDBFDF91CF911F910F91FF90EF90D8
:10119000BF90AF909F908F900895695CDECF909143
:1011A0003D04911110C091E090933D04909344044C
:1011B000482F50E070E060E02AE080918E06909128
:1011C0008F060C9483080895CF93DF9390913D048C
:1011D00091110AC0EB010E94CF08CE010E942805A0
:1011E000DF91CF910C94650880E0DF91CF91089555
:1011F00068E670E083E00C94E408CF92DF92EF920F
:10120000FF92CF93DF9320913D04222359F16C018B
:101210006091910680918E0690918F060E94210523
:10122000C0918E06D0918F060D2C000CEE08FF08A1
:101230002AE0B701A601F7FE0CC06DE2CE010E94C4
:10124000210544275527BA014C195D096E097F090C
:101250002AE0CE01DF91CF91FF90EF90DF90CF9009
:101260000C948308DF91CF91FF90EF90DF90CF90A7
:101270000895CF93DF9320913D04222391F0EC0158
:101280006091910680918E0690918F060E942105B3
:10129000BE0180918E0690918F06DF91CF910C94C4
:1012A0005608DF91CF9108950F931F93CF93DF934B
:1012B000EC0188819981009759F02A813B8126179A
:1012C000370730F081E0DF91CF911F910F910895A2
:1012D0008B016F5F7F4F0E94EA17009759F0998347
:1012E00088831B830A832C813D81232B59F7FC01C2
:1012F0001082E8CF80E0E7CFEF92FF920F931F9329
:10130000CF93DF936115710541F480E0DF91CF91B8
:101310001F910F91FF90EF90089541155105B1F085
:101320007B01EC010C811D81040F151FB8010E9487
:101330005409882351F3288139818C819D81B7011B
:10134000820F931F0E94B9181D830C8381E0DECFAA
:10135000CF93DF93EC0188819981009711F00E946F
:101360006117198218821D821C821B821A82DF91EA
:10137000CF910895CF93DF93EC01FB010190002002
:10138000E9F73197AF01461B570B0E947C09811189
:1013900003C0CE010E94A809CE01DF91CF9108952C
:1013A000CF93DF93EC01FB01448155816081718112
:1013B0000E947C09811103C0CE010E94A809CE01C0
:1013C000DF91CF910895EF92FF920F931F93CF93E8
:1013D000DF93EC017B018A01BA010E94540981115B
:1013E0000BC0CE010E94A809CE01DF91CF911F91C1
:1013F0000F91FF90EF9008951D830C83B7018881B2
:1014000099810E94B918F0CFEF92FF920F931F932A
:10141000CF93DF93CDB7DEB762970FB6F894DEBFF8
:101420000FBECDBF8C01CB01F80111821082138257
:101430001282158214824AE09E012F5F3F4F79018C
:10144000B9010E941416F70101900020E9F73197C5
:10145000AF014E195F09B701C8010E94E309629606
:101460000FB6F894DEBF0FBECDBFDF91CF911F91B5
:101470000F91FF90EF900895FB01DC0111961C92F3
:101480001E9213961C921E92129715961C921E92F3
:1014900014978617970749F060817181611571056E
:1014A00021F0448155810C94E3090895FC011182D7
:1014B00010821382128215821482FB010190002097
:1014C000E9F73197AF01461B570B0C94E309FC0178
:1014D00080819181009711F00C94611708950F930A
:1014E0001F93CF93DF9300D000D000D0CDB7DEB7ED
:1014F00020913D0421111EC08C018CE00E94CF0878
:10150000B801CE0101960E943C0ACE0101960E94CC
:101510006405CE0101960E94670A0E94650826961E
:101520000FB6F894DEBF0FBECDBFDF91CF911F91F4
:101530000F91089580E0F3CF0F931F93CF93DF9324
:1015400000D000D000D0CDB7DEB70E945F03882363
:1015500071F181E080938706809388060091890667
:1015600010918A0667E372E0C8010E94B018892BC7
:1015700019F581E08093030360911A0270911B02B8
:10158000CE0101960E94040ACE0101960E946F0AC4
:10159000CE0101960E94670A26960FB6F894DEBF28
:1015A0000FBECDBFDF91CF911F910F910895109283
:1015B000880610E000E0D6CF6DE372E0C8010E941B
:1015C000B018892B49F710920303E6CF0F931F93AE
:1015D000CF93DF9300D000D000D0CDB7DEB72091FD
:1015E0003D0421112FC08C0188E00E94CF08B80172
:1015F000CE0101960E943C0A80913D04882389F027
:101600006091910680918E0690918F060E9421052F
:10161000BE016F5F7F4F80918E0690918F060E9472
:101620005605CE0101960E94670A0E94650826961B
:101630000FB6F894DEBF0FBECDBFDF91CF911F91E3
:101640000F91089580E0F3CFCF92DF92EF92FF9257
:101650000F931F93CF93DF93CDB7DEB72C970FB6C1
:10166000F894DEBF0FBECDBF0E945F03882309F44C
:101670009AC081E08093870680938806009189064E
:1016800010918A0661E472E0C8010E94B018892BAB
:1016900009F08EC080E00E94CF088DEA95E00E949C
:1016A000280564E973E0CE0101960E943C0ACE0150
:1016B00001960E946405CE0101960E94670A8AE99C
:1016C00095E00E94280582E090E00E94FD088CEFE2
:1016D00092E00E94390966E472E0CE0101960E9410
:1016E000560A6AE973E0CE0101960E94D009BC0156
:1016F000CE0107960E943C0A80913D04882389F020
:101700006091910680918E0690918F060E9421052E
:10171000BE01695F7F4F80918E0690918F060E9477
:101720005605CE0107960E94670ACE0101960E94D7
:10173000670A0E94650868EC70E08BE00E946C0408
:1017400064E670E080E090E00E94EE0470E060E00B
:101750008BE00E946C0464E670E080E090E00E9400
:10176000EE0468EC70E08BE00E946C0464E670E0CC
:1017700080E090E00E94EE0470E060E08BE00E9468
:101780006C0481E0809302032C960FB6F894DEBFC0
:101790000FBECDBFDF91CF911F910F91FF90EF90C2
:1017A000DF90CF9008951092880610E000E06ACF95
:1017B0006EE472E0C8010E94B018892B51F480E0F9
:1017C0000E94CF0888E592E00E9439090E946508CE
:1017D000DBCF62E672E0C8010E94B018892B81F568
:1017E00080E00E94CF0887E692E00E9439090E94BB
:1017F00021086B017C0180913D04882339F36091BD
:10180000910680918E0690918F060E94210500918D
:101810008E0610918F062AE0B701A601F7FE0CC0D4
:101820006DE2C8010E94210544275527BA014C19D1
:101830005D096E097F092AE0C8010E948308C6CFAE
:101840006DE372E0C8010E94B018892B51F470E07A
:1018500060E08BE00E946C0410921B0210921A024E
:1018600093CF6CE672E0C8010E94B018892B09F092
:101870008BCF80E00E94CF0883E995E00E94280585
:1018800087E895E00E94280589E795E00E942805F1
:1018900086E695E00E9428050E94650880E00E9487
:1018A000CF0880E695E00E94280588EB9BE00E9427
:1018B000FD0860E573E0CE0101960E943C0ACE016E
:1018C00001960E946405CE0101960E94670A88E590
:1018D00095E00E9428056AE573E0CE0101960E941A
:1018E0003C0ACE0101960E946405CE0101960E9439
:1018F000670A0E94650880E00E94CF0880E695E0B4
:101900000E94280589EB9BE00E94FD086CE673E0CD
:10191000CE0101960E943C0ACE0101960E94640508
:10192000CE0101960E94670A88E595E00E9428058D
:1019300066E773E0CE0101960E943C0ACE01019653
:101940000E946405CE0101960E94670A0E94650804
:1019500064E275E080E00E94E4086FEE74E080E0ED
:101960000E94E4086BEA74E080E00E94E40867E605
:1019700074E080E00E94E40863E374E080E00E9489
:10198000E4086FEF73E080E00E94E4086BEC73E022
:1019900080E00E94E40867E973E080E00E94E408C8
:1019A00062E673E080E00E94E4086EE273E080E0AB
:1019B0000E94E40869EF72E080E00E94E40861ECB4
:1019C00072E080E00E94E40869E872E080E00E9432
:1019D000E40865E272E080E00E94E40865EC71E0F2
:1019E00080E00E94E40863E571E080E00E94E40882
:1019F00067EC70E080E00E94E4086FE770E081E04F
:101A00000E94E40868E770E080E00E94E408BCCE31
:101A10001F920F920FB60F9211242F933F938F9323
:101A20009F93AF93BF938091090390910A03A09174
:101A30000B03B0910C033091080323E0230F2D37E3
:101A400058F50196A11DB11D209308038093090349
:101A500090930A03A0930B03B0930C0380910D03A2
:101A600090910E03A0910F03B09110030196A11D58
:101A7000B11D80930D0390930E03A0930F03B093B9
:101A80001003BF91AF919F918F913F912F910F9034
:101A90000FBE0F901F90189526E8230F0296A11DE8
:101AA000B11DD2CF1F920F920FB60F9211242F9318
:101AB0003F934F935F936F937F938F939F93AF93D6
:101AC000BF93EF93FF93E0910201F0910301099519
:101AD000FF91EF91BF91AF919F918F917F916F9106
:101AE0005F914F913F912F910F900FBE0F901F90DC
:101AF00018951F920F920FB60F9211242F933F93B8
:101B00004F935F936F937F938F939F93AF93BF9305
:101B1000EF93FF93E0910001F09101010995FF918E
:101B2000EF91BF91AF919F918F917F916F915F9155
:101B30004F913F912F910F900FBE0F901F901895CE
:101B40001F920F920FB60F9211242F933F934F9332
:101B50005F936F937F938F939F93AF93BF93EF9315
:101B6000FF9380EA93E00E94FD05FF91EF91BF9102
:101B7000AF919F918F917F916F915F914F913F9125
:101B80002F910F900FBE0F901F9018951F920F92DC
:101B90000FB60F9211242F938F939F93EF93FF9380
:101BA000E091B003F091B1038081E091B603F09130
:101BB000B70382FD1BC090818091B9038F5F8F7343
:101BC0002091BA03821741F0E091B903F0E0E056AA
:101BD000FC4F958F8093B903FF91EF919F918F9167
:101BE0002F910F900FBE0F901F9018958081F4CF0A
:101BF0008F929F92AF92BF92CF92DF92EF92FF921D
:101C00000F931F93CF93DF93CDB7DEB729970FB60E
:101C1000F894DEBF0FBECDBF1092A3031092A203B3
:101C200088EE93E0A0E0B0E08093A4039093A50336
:101C3000A093A603B093A70386E292E09093A1033A
:101C40008093A00385EC90E09093AD038093AC0368
:101C500084EC90E09093AF038093AE0380EC90E02F
:101C60009093B1038093B00381EC90E09093B30321
:101C70008093B20382EC90E09093B5038093B40319
:101C800086EC90E09093B7038093B6031092B9036B
:101C90001092BA031092BB031092BC0310929406E8
:101CA0001092930680EA93E090938F0680938E06BD
:101CB000109245048CE2809391068BE3809390060A
:101CC0008FE28093920680E4809340048FE38093B8
:101CD000410410923F0410928A06109289061092D5
:101CE0008C0610928B0681E080938706E5E9F6E08A
:101CF0001192119286E0E93FF807D1F7109244045F
:101D000063E772E08AE993E00E94560A64E972E0B0
:101D100084E993E00E94560A48E067E088E893E08F
:101D20000E94C7074AE069E08CE793E00E94C7077A
:101D30008CE0E8E8F3E0A4E4B3E001900D928A952A
:101D4000E1F76BEB72E080E593E00E94560A89E1CF
:101D5000882E8CEF982EAA24AA94BA2C809256032F
:101D600090925703A0925803B092590364EC72E02A
:101D70008AE593E00E94560A8CE0ECE7F3E0A0E6E7
:101D8000B3E001900D928A95E1F761ED72E08CE687
:101D900093E00E94560A8092720390927303A0927D
:101DA0007403B092750364EC72E086E793E00E94DE
:101DB000560A82E0898383E08A8384E08B838FEFF5
:101DC0008C838D838E838F838887FE01319690E08C
:101DD00080E04F01219127FF6DC08987A980BA80DB
:101DE000CB80DC80ED80FE800F811885298545E061
:101DF00050E061E070E083E393E00E94330782E00B
:101E0000898383E08A8384E08B838FEF8C838D8347
:101E10008E838F838887F40190E080E0219127FFF3
:101E200050C08987A980BA80CB80DC80ED80FE809D
:101E30000F811885298546E050E061E070E082E27C
:101E400093E00E94330782E0898383E08A8384E001
:101E50008B838FEF8C838D838E838F838887F401B0
:101E600090E080E0219127FF33C08987A980BA8064
:101E7000CB80DC80ED80FE800F81188529854CE0C9
:101E800050E061E070E081E193E00E943307299621
:101E90000FB6F894DEBF0FBECDBFDF91CF911F917B
:101EA0000F91FF90EF90DF90CF90BF90AF909F90F9
:101EB0008F90089501968830910509F08BCF88E0C6
:101EC0008CCF01968830910509F0A8CF88E0A9CF82
:101ED00001968830910531F688E0C7CFCF93DF9324
:101EE000CDB7DEB768970FB6F894DEBF0FBECDBF93
:101EF000789484B5826084BD84B5816084BD85B5E5
:101F0000826085BD85B5816085BD80916E008160F0
:101F100080936E0010928100809181008260809396
:101F20008100809181008160809381008091800098
:101F30008160809380008091B10084608093B100C3
:101F40008091B00081608093B00080917A008460BD
:101F500080937A0080917A00826080937A008091E9
:101F60007A00816080937A0080917A008068809303
:101F70007A001092C100B4E3EB2EB1E0FB2E04E036
:101F800011E062E0D8018C910E943004085F1F4F7D
:101F9000E016F106B1F761E08BE00E943004E091B9
:101FA000B003F091B10382E08083E091AC03F09143
:101FB000AD031082E091AE03F091AF0380E1808326
:101FC0001092B803E091B403F091B50386E08083EA
:101FD000E091B203F091B303808180618083E0914E
:101FE000B203F091B303808188608083E091B203F3
:101FF000F091B303808180688083E091B203F09117
:10200000B30380818F7D808380913D04811109C05D
:1020100083E00E94CF088AED92E00E9439090E9475
:10202000650884E29BE090939606809395068CE980
:102030009AE090939A068093990688EF98E090939F
:102040009C0680939B0686E398E09093A00680937D
:102050009F068AE398E09093AE068093AD0664EF06
:1020600071E080E090E00E94EE0480910203811113
:1020700060C00E94CF0885EC95E00E94280564E9C5
:1020800073E0CE0101960E943C0ACE0101960E94A7
:102090006405CE0101960E94670A82EB95E00E94DA
:1020A000280582E090E00E94FD088CEF92E00E94FB
:1020B000390966E472E0CE0107960E94560A6AE981
:1020C00073E0CE0107960E94D009BC01CE010196B3
:1020D0000E943C0A80913D04882389F0609191061A
:1020E00080918E0690918F060E942105BE016F5F40
:1020F0007F4F80918E0690918F060E945605CE01EB
:1021000001960E94670ACE0107960E94670A0E9404
:10211000650868EC70E08BE00E946C0464EF71E08D
:1021200080E090E00E94EE0470E060E08BE00E94AE
:102130006C0460911A0270911B028BE00E946C0487
:1021400088248A94912CF4E4EF2EF3E0FF2ED12C16
:10215000C12CF7018385823008F067C0F894C7016D
:102160000E94E506F70187819085A185B285789464
:1021700072E0B595A795979587957A95D1F742899D
:10218000538964897589481759076A077B070CF0DA
:102190004CC2828B938BA48BB58B809103038823D5
:1021A00049F1B6016854744FCE010D960E94040A9D
:1021B000BE01635F7F4FCE0107960E943C0A6FEE1F
:1021C00072E0CE0107960E94BA09BC01CE010196C9
:1021D0000E943C0ACE0101960E94E60ACE010196B9
:1021E0000E94670ACE0107960E94670ACE010D96EB
:1021F0000E94670AF1E0CF16D104B1F583E10E9495
:10220000D903892BB9F580911A0290911B0240964F
:102210008F3F910509F05CF490931B0280931A02A2
:102220000AC0CC24C394D12C94CFF8949BCF909225
:102230001B0280921A02A0901A02B0901B02B501F4
:102240008BE00E946C0480910303882399F0B50110
:10225000CE0101960E94040ACE0101960E946F0AE7
:10226000CE0101960E94670A2CE1E20EF11CCA948D
:10227000CD28B9F62FB7F8948091090390910A03FD
:10228000A0910B03B0910C032FBF40910403509118
:1022900005036091060370910703841B950BA60B41
:1022A000B70B85369105A105B10508F41BC18091D6
:1022B0000303882309F461C064E0E62E61E0F62E92
:1022C000D7018C910E94D9036C01F7018681978117
:1022D000C816D90609F44AC0628173816433F8E0F4
:1022E0007F070CF01AC2C114D10409F0ECC1D70168
:1022F00014966D917C91CE010D960E94040AF7010F
:1023000062817381CE0101960E94040ABE016F5F53
:102310007F4FCE0107960E943C0A66EF72E0CE0125
:1023200007960E94BA09BE01635F7F4F0E94D009E1
:10233000BC01CE0143960E943C0ACE0143960E9406
:10234000E60ACE0143960E94670ACE0107960E94D4
:10235000670ACE0101960E94670ACE010D960E947F
:10236000670AD7011796DC92CE921697B8E0EB0E6B
:10237000F11C0E151F0509F0A3CF809103038823DC
:1023800009F466C044E3E42E41E0F42E5AE1A52EA0
:1023900052E0B52EF701808191818130910509F0DD
:1023A000D3C1628183E393E00E948C066C01D70164
:1023B00018968D919C911997C816D90609F441C0B9
:1023C000C114D104C9F516966D917C91CE010D967C
:1023D0000E94040AF70164817581CE0101960E9472
:1023E000040ABE016F5F7F4FCE0107960E943C0A30
:1023F00066EF72E0CE0107960E94BA09BE01635FE4
:102400007F4F0E94D009BC01CE0143960E943C0A36
:10241000CE0143960E94E60ACE0143960E94670AC7
:10242000CE0107960E94670ACE0101960E94670AB4
:10243000CE010D960E94670AD7011996DC92CE92C2
:102440001897FAE0EF0EF11CAE14BF0409F0A2CF0A
:1024500082E10E94D903892B91F583E10E94D9037F
:10246000892B69F580910303882309F4FAC28091CE
:102470001A0290911B02892B09F0EEC280E890E0CD
:1024800090931B0280931A02E0901A02F0901B02B4
:10249000B7018BE00E946C04B701CE0101960E9447
:1024A000040ACE0101960E946F0ACE0101960E9495
:1024B000670A64EF71E080E090E00E94EE042FB7BD
:1024C000F8948091090390910A03A0910B03B091B5
:1024D0000C032FBF8093040390930503A09306037E
:1024E000B0930703332433948091440481112BC3A8
:1024F00080918E0690918F06DC01ED91FC91008415
:10250000F185E02D0995892B09F41DC380918E0674
:1025100090918F06DC01ED91FC910084F185E02D16
:102520000995A12C22E0B22E8115924064F480918D
:102530008E0690918F06DC01ED91FC910084F1856F
:10254000E02D09955C01E0908E06F0908F0696E8EC
:10255000692E94E0792E2301D12CC12CAC14BD043A
:1025600009F09FC2F12CE12CAE14BF0409F4BCCFDA
:10257000D3019D913D0110928606309192062091E3
:10258000430490934304931304C0921302C0109227
:10259000430480913F04E82FF0E040919006E35C13
:1025A000FB4F9413B6C2321709F4B3C211868823C5
:1025B00021F0309286061092430410923F0410924C
:1025C0008A061092890610928C0610928B06309221
:1025D0008706D0908606B1E0DB12B1C20E945F038D
:1025E000882309F4A0C2D0928706D09288068091F1
:1025F000890690918A060E94CF1580933E0482330B
:1026000008F096C220918806222309F491C2FC01A9
:10261000FF27EE0FFF1FEB56F94F0190F081E02DE1
:10262000309709F485C209958AC284179507A607D1
:10263000B7070CF019CE828B938BA48BB58B80914E
:102640000303882349F1B6016854744FCE010D96F7
:102650000E94040ABE01635F7F4FCE0107960E946D
:102660003C0A62EF72E0CE0107960E94BA09BC01F3
:10267000CE0101960E943C0ACE0101960E94E60A14
:10268000CE0101960E94670ACE0107960E94670A52
:10269000CE010D960E94670AF1E0CF16D10409F031
:1026A000E3CD83E10E94D903892B09F0E3CD80912A
:1026B0001A0290911B02409797FFAECD10921B0219
:1026C00010921A02B8CDF1E0CF16D10409F049CE2C
:1026D000CE0101960E94040ABE016F5F7F4FCE01BA
:1026E00007960E943C0A68EF72E0CE0107960E94AE
:1026F000BA09BC01CE010D960E943C0ACE010D968E
:102700000E94E60ACE010D960E94670ACE01079646
:102710000E94670ACE01019622CEC114D10409F4A9
:10272000E6CDF1E0CF16D10409F01BCECE01019623
:102730000E94040ABE016F5F7F4FCE0107960E9480
:102740003C0A6BEF72E0D1CF8230910509F006C1EF
:10275000628182E293E00E948C066C01D701189698
:102760008D919C911997C816D90609F46ACEC114A7
:10277000D10409F040C014968D919C918A399840FB
:10278000D1F5F70166817781CE010D960E94040A8A
:10279000D70114966D917C91CE0101960E94040A96
:1027A000BE016F5F7F4FCE0107960E943C0A66EF25
:1027B00072E0CE0107960E94BA09BE01635F7F4FA7
:1027C0000E94D009BC01CE0143960E943C0ACE0172
:1027D00043960E94E60ACE0143960E94670ACE0104
:1027E00007960E94670ACE0101960E94670ACE01F1
:1027F0000D960E94670AF70164817581CB01825DA5
:1028000097400297E8F5C114D10409F06BC06681C6
:102810007781CE010D960E94040AD70114966D911E
:102820007C91CE0101960E94040ABE016F5F7F4F2A
:10283000CE0107960E943C0A66EF72E0CE01079631
:102840000E94BA09BE01635F7F4F0E94D009BC019C
:10285000CE0143960E943C0ACE0143960E94E60AAE
:10286000CE0143960E94670ACE0107960E94670A2E
:10287000CE0101960E94670ACE010D960E94670A5A
:10288000F70164817581CB0188599840029708F05F
:10289000D3CDC114D10409F04EC0CE0101960E94DF
:1028A000040ABE016F5F7F4FCE0107960E943C0A6B
:1028B0006FEE72E0CE0107960E94BA09BC01CE010C
:1028C0000D960E943C0ACE010D960E94E60ACE01AA
:1028D0000D960E94670ACE0107960E94670ACE01F4
:1028E0000196A8CDB1E0CB16D10451F6CE010196E8
:1028F0000E94040ABE016F5F7F4FCE0107960E94BF
:102900003C0A68EF72E0CE0107960E94BA09BC014A
:10291000CE010D960E943C0ACE010D960E94E60A59
:10292000CE010D960E94670ACE0107960E94670AA3
:10293000CE010196A3CFF1E0CF16D10409F07CCDF2
:10294000CE0101960E94040ABE016F5F7F4FCE0147
:1029500007960E943C0A68EF72E0ACCF039709F03B
:1029600070CD628181E193E00E948C066C01D701F9
:1029700018968D919C911997C816D90609F461CDC6
:10298000C114D104E9F516966D917C91CE010D9696
:102990000E94040AF70164817581CE0101960E94AC
:1029A000040ABE016F5F7F4FCE0107960E943C0A6A
:1029B00066EF72E0CE0107960E94BA09BE01635F1E
:1029C0007F4F0E94D009BC01CE0143960E943C0A71
:1029D000CE0143960E94E60ACE0143960E94670A02
:1029E000CE0107960E94670ACE0101960E94670AEF
:1029F000CE010D960E94670AF701D186C08621CDCF
:102A0000F1E0CF16D104C1F714966D917C91CE01FF
:102A100001960E94040ABE016F5F7F4FCE010796A8
:102A20000E943C0A68EF72E0CE0107960E94BA0944
:102A3000BC01CE010D960E943C0ACE010D960E946B
:102A4000E60ACE010D960E94670ACE0107960E9403
:102A5000670ACE010196CECF10921B0210921A0285
:102A600013CD35E0E32EF12C60E870E08BE00E949E
:102A70006C0464E670E080E090E00E94EE0470E098
:102A800060E08BE00E946C0464E670E080E090E01F
:102A90000E94EE0421E0E21AF10831F70C940000E4
:102AA00008CD2FB7F8948091090390910A03A09163
:102AB0000B03B0910C032FBFF70180879187A2878A
:102AC000B387D701ED91FC910284F385E02DC70116
:102AD000099597FF45C02FB7F8948091090390910D
:102AE0000A03A0910B03B0910C032FBFF70140859F
:102AF000518562857385841B950BA60BB70B4481AA
:102B000055816681778184179507A607B707C8F2B4
:102B100029CD91878F5F80933F049091410489175D
:102B200008F04BCD56CD1092880690E080E065CD40
:102B3000E0919306F0919406309709F074CDEFEF91
:102B4000EE1AFE0A11CD80E090E0892B09F4FBCA51
:102B50000E94E905882309F4F3CA0E940000F0CA24
:102B6000D2018D932D01BFEFCB1ADB0AF7CC86E79C
:102B700093E00E94670A8CE693E00E94670A8AE568
:102B800093E00E94670A80E593E00E94670A84E967
:102B900093E00E94670A8AE993E00C94670AFC01BB
:102BA00088279927E89421912032E9F3293010F001
:102BB0002E30C8F32B3241F02D3239F4689404C022
:102BC0000E943416820F911D219120532A30C0F3A8
:102BD0001EF4909581959F4F08951F93FC019927AE
:102BE0008827BC01E89411911032E9F3193010F0F4
:102BF0001E30C8F31B3251F01D3249F4689406C0F0
:102C00000E941F16610F711D811D911D119110539E
:102C10001A30B0F33EF490958095709561957F4F92
:102C20008F4F9F4F1F910895BB274A3031F499234E
:102C300022F4BDE2909581959F4F0C943D16592F3B
:102C4000482F372F262F660F771F881F991F660F73
:102C5000771F881F991F620F731F841F951F660FB0
:102C6000771F881F991F08957AE0979F902D879F5F
:102C7000802D910D11240895BB27FB015527AA270C
:102C8000880F991FAA1FA41710F0A41B83955051F9
:102C9000B9F7A05DAA3308F0A95DA193009779F771
:102CA000B111B1931192CB010C945616DC01FC01C9
:102CB000672F71917723E1F7329704C07C916D9370
:102CC00070836291AE17BF07C8F308952F923F92A9
:102CD0004F925F926F927F928F929F92AF92BF922C
:102CE000CF92DF92EF92FF920F931F93CF93DF93D8
:102CF000CDB7DEB7CA1BDB0B0FB6F894DEBF0FBE35
:102D0000CDBF09942A88398848885F846E847D8481
:102D10008C849B84AA84B984C884DF80EE80FD8083
:102D20000C811B81AA81B981CE0FD11D0FB6F894F9
:102D3000DEBF0FBECDBFED010895A1E21A2EAA1B82
:102D4000BB1BFD010DC0AA1FBB1FEE1FFF1FA2175B
:102D5000B307E407F50720F0A21BB30BE40BF50B58
:102D6000661F771F881F991F1A9469F760957095E1
:102D7000809590959B01AC01BD01CF010895EE0FA8
:102D8000FF1F0590F491E02D09940F931F93CF93AB
:102D9000DF938230910510F482E090E0E091FB0631
:102DA000F091FC0630E020E0B0E0A0E0309799F42C
:102DB0002115310509F44AC0281B390B243031058F
:102DC000D8F58A819B816115710589F1FB01938397
:102DD0008283FE0111C04081518102811381481715
:102DE0005907E0F04817590799F4109761F01296C7
:102DF0000C93129713961C933296CF01DF91CF91CB
:102E00001F910F9108950093FB061093FC06F4CFD9
:102E10002115310551F04217530738F0A901DB01A4
:102E20009A01BD01DF01F801C1CFEF01F9CF909305
:102E3000FC068093FB06CDCFFE01E20FF31F8193CA
:102E400091932250310939832883D7CF2091F906F5
:102E50003091FA06232B41F420911E0230911F027B
:102E60003093FA062093F90620911C0230911D023E
:102E70002115310541F42DB73EB740912002509104
:102E80002102241B350BE091F906F091FA06E217B6
:102E9000F307A0F42E1B3F0B2817390778F0AC017D
:102EA0004E5F5F4F2417350748F04E0F5F1F50935A
:102EB000FA064093F906819391939FCFF0E0E0E00A
:102EC0009CCFCF93DF930097E9F0FC0132971382F8
:102ED0001282A091FB06B091FC06ED0130E020E0EB
:102EE0001097A1F420813181820F931F2091F90660
:102EF0003091FA062817390709F061C0F093FA06F5
:102F0000E093F906DF91CF910895EA01CE17DF072C
:102F1000E8F54A815B819E0141155105B1F7E90150
:102F2000FB83EA8349915991C40FD51FEC17FD0724
:102F300061F4808191810296840F951FE901998344
:102F40008883828193819B838A83F0E0E0E01296FC
:102F50008D919C9113970097B9F52D913C91119704
:102F6000CD010296820F931F2091F9063091FA0647
:102F70002817390739F6309751F51092FC06109250
:102F8000FB06B093FA06A093F906BCCFD383C283A5
:102F900040815181840F951FC817D90761F44E5F96
:102FA0005F4F88819981480F591F518340838A81DF
:102FB0009B81938382832115310509F0B0CFF09373
:102FC000FC06E093FB069ECFFD01DC01C0CF13821F
:102FD0001282D7CFB0E0A0E0E0EFF7E10C946816E2
:102FE0008C01009751F4CB010E94C5168C01C801D9
:102FF000CDB7DEB7E0E10C948416FC01E60FF71FB5
:103000009C0122503109E217F30708F49DC0D90151
:10301000CD91DC911197C617D70798F0C530D1052F
:1030200030F3CE0104978617970708F3C61BD70B1A
:103030002297C193D1936D937C93CF010E94611726
:10304000D6CF5B01AC1ABD0A4C018C0E9D1EA0911F
:10305000FB06B091FC06512C412CF12CE12C109771
:1030600031F58091F9069091FA068815990509F0D5
:103070005CC04616570608F058C080911C0290911B
:103080001D02009741F48DB79EB7409120025091E8
:103090002102841B950BE817F90708F055C0F0933F
:1030A000FA06E093F906F90171836083A0CF8D9150
:1030B0009C91119712966C90129713967C9013978F
:1030C000A815B90559F56C0142E0C40ED11CCA140B
:1030D000DB0420F1AC014A195B09DA01129615975D
:1030E00080F06282738251834083D9016D937C9317
:1030F000E114F10471F0D7011396FC93EE9312974B
:1031000076CF22968C0F9D1FF90191838083F30166
:10311000EFCFF093FC06E093FB0669CF4816590603
:1031200008F42C017D01D3019ACFCB010E94C51672
:103130007C01009749F0AE01B8010E94A718C801B0
:103140000E946117870153CF10E000E050CFFB01D0
:10315000DC0102C001900D9241505040D8F7089513
:10316000FB01DC018D91019080190110D9F3990BBD
:103170000895FB01DC0101900D920020E1F7089514
:1031800013E0C3E1D3E004C0FE010E94BF16219604
:0A319000C431D107C9F7F894FFCF4E
:10319A00200520051300D0070100FFFF1200D10708
:1031AA000100FFFF100034080100FFFF0E00340881
:1031BA000000FFFF110035080100FFFF0F0035086E
:1031CA000000FFFF010000009B080000FFFF010054
:1031DA0001009B080100FFFF010002009B0802009A
:1031EA00FFFF010003009B080300FFFF010004002A
:1031FA009B080400FFFF010005009B080500FFFF74
:10320A00010006009B080600FFFF010007009B085B
:10321A000700FFFF020000009A080000FFFF0200FB
:10322A0001009A080100FFFF020002009A0802004A
:10323A00FFFF020003009A080300FFFF02000400D8
:10324A00D2070100FFFF02000500D3070100FFFFBC
:10325A000200060098080100FFFF02000700990813
:10326A000100FFFF03000000D4070100FFFF030075
:10327A000100D5070100FFFF03000200D607010085
:10328A00FFFF03000300D7070100FFFF030004004C
:10329A00D8070100FFFF03000500D9070100FFFF5F
:1032AA0003000600DA070100FFFF20000000FD0608
:1032BA008000000000001F067F05AC056C06DD05D6
:1032CA00BB05CF050D0A00535441525400454E44E4
:1032DA0000494E495400415554484F523D0053430A
:1032EA00414E53544154450053544154455343416C
:1032FA004E0050494E4700504F4E4700434F4E46EE
:10330A0049470033363062383132656631306433CA
:10331A00336535343537656537623431323834359B
:10332A00333666007B61646636646663662D646262
:10333A0064632D346534652D383035352D65613437
:10334A003335643939663661657D004D494E535FC0
:10335A00454E4300535041445F454E434F44455206
:10336A00004241524F5F454E430041545441434845
:10337A00494E472043414C4C4241434B5321002C78
:0E338A0031002C2D31002C002C30002C320094
:00000001FF
