:100000000C94BD030C94EC0F0C94C50F0C94E503F9
:100010000C94E5030C94E5030C94E5030C94E503C0
:100020000C94E5030C94E5030C94E5030C94E503B0
:100030000C94E5030C94E5030C94E5030C94E503A0
:100040000C947B0F0C94E5030C9439100C94131052
:100050000C94E5030C94E5030C94E5030C94E50380
:100060000C94E5030C94E503554E4B4E4F574E2030
:10007000434F4D4D414E4400434F4E46494700418A
:1000800044442C31332C5649525455414C5F504F07
:100090005745522C55382C52572C5669727475613D
:1000A0006C20506F7765722C4546495320766972F3
:1000B0007475616C20706F7765722030206F7220CC
:1000C000312C504552534953543D31004144442C46
:1000D00031322C4241434B4C494748545F425249CC
:1000E0002C55382C52572C4261636B6C69676874CD
:1000F0002C45464953206261636B6C6967687420C4
:100100006272696768746E6573732066726F6D20C2
:100110003020746F203235352C504552534953549A
:100120003D3100494E5055542C302C434F4E4649DA
:10013000475552455F50414E454C5F5354415455CD
:10014000532C53595354454D2C535041445F5649F9
:10015000525455414C5F504F5745522C55495F54AE
:100160005950453D332C435553544F4D5F545950CE
:10017000453D504F57455200494E5055542C323250
:1001800030332C524E475F524F542C524F544152F1
:10019000592C535041445F454E434F4445525F4EA6
:1001A0004F4143432C504F535F4E414D45533D35D6
:1001B000233130233230233430233830233136306A
:1001C00023333230233634302C504F535F56414C5A
:1001D0005545533D302331233223332334233523F4
:1001E0003623372C504F535F554956414C55455394
:1001F0003D2D36232D34232D322330233223342337
:1002000036233800494E5055542C323230322C4D62
:100210004F44455F524F542C524F544152592C5326
:100220005041445F454E434F4445525F4E4F41431A
:10023000432C504F535F4E414D45533D4150502349
:10024000564F52234D415023504C4E2C504F535F2C
:1002500056414C5545533D302331233223332C50E6
:100260004F535F554956414C5545533D2D34232D31
:10027000322332233400494E5055542C323230311F
:100280002C4241524F5F524F542C524F54415259BD
:100290002C535041445F454E434F4445525F4E4FAF
:1002A0004143432C504F535F4E414D45533D494EC2
:1002B000234850412C504F535F56414C5545533DB8
:1002C0003123302C504F535F554956414C554553BF
:1002D0003D2D32233200494E5055542C32323030AD
:1002E0002C4D494E535F524F542C524F544152594A
:1002F0002C535041445F454E434F4445525F4E4F4F
:100300004143432C504F535F4E414D45533D524165
:1003100044494F234241524F2C504F535F56414C5A
:100320005545533D3023312C504F535F554956416D
:100330004C5545533D2D32233200494E5055542CD7
:10034000323130312C535243322C535749544348A5
:10035000332C2C504F535F4E414D45533D41444645
:100360003223564F5232234F464600494E50555481
:100370002C323130302C535243312C535749544393
:1003800048332C2C504F535F4E414D45533D414413
:10039000463123564F5231234F464600494E505561
:1003A000542C323031302C544552522C5055534835
:1003B000425554544F4E2C535041445F505553486E
:1003C000425554544F4E2C55495F545950453D3277
:1003D00000494E5055542C323030392C504F532C4C
:1003E00050555348425554544F4E2C535041445F3E
:1003F00050555348425554544F4E2C55495F54590B
:1004000050453D3200494E5055542C323030382C36
:10041000444154412C50555348425554544F4E2C4E
:10042000535041445F50555348425554544F4E2CFD
:1004300055495F545950453D3200494E5055542C52
:10044000323030372C4150542C505553484255547B
:10045000544F4E2C535041445F50555348425554CD
:10046000544F4E2C55495F545950453D3200494E2A
:100470005055542C323030362C5750542C50555344
:1004800048425554544F4E2C535041445F5055539D
:1004900048425554544F4E2C55495F545950453D90
:1004A0003200494E5055542C323030352C53544183
:1004B0002C50555348425554544F4E2C53504144A0
:1004C0005F50555348425554544F4E2C55495F5434
:1004D0005950453D3200494E5055542C323030343D
:1004E0002C5758522C50555348425554544F4E2C6B
:1004F000535041445F50555348425554544F4E2C2D
:1005000055495F545950453D3200494E5055542C81
:10051000323030332C5354442C50555348425554A8
:10052000544F4E2C535041445F50555348425554FC
:10053000544F4E2C48494444454E3D312C524F5562
:100540005445544F3D4241524F5F454E4300494E42
:100550005055542C323030322C5253542C50555369
:1005600048425554544F4E2C535041445F505553BC
:1005700048425554544F4E2C48494444454E3D3111
:100580002C524F555445544F3D4D494E535F454EA7
:100590004300494E5055542C323030312C4D54527A
:1005A000532C50555348425554544F4E2C535041A0
:1005B000445F50555348425554544F4E2C55495F53
:1005C000545950453D3200494E5055542C3230302C
:1005D000302C4650562C50555348425554544F4E8B
:1005E0002C535041445F50555348425554544F4E3C
:1005F0002C55495F545950453D3200454E434F44B8
:10060000455200494E505554004E4F5F4449535097
:100610004C41595F434C4541523D31005650535572
:1006200050504F52543D3100504147455355505062
:100630004F52543D3000495347454E455249433D82
:1006400031004F5054494F4E00504F4E47005354C5
:100650004154455343414E00535441544553434143
:100660004E005049443D434654373337454649537D
:10067000005649443D314C325000415554484F5288
:100680003D3336306238313265663130643333653C
:100690003534353765653762343132383435333681
:1006A000660043465420373337204546495320508F
:1006B000414E454C007B33393539386636642D3828
:1006C0003664352D343363652D616638382D343307
:1006D000643438366231366433617D0053504144AE
:1006E00000415454414348494E472043414C4C42F9
:1006F00041434B5321002C2D31002C31002C320072
:100700002C002C30002C002C30002C002C30002C25
:1007100031002C30002C002C002C000000000024A4
:100720000027002A0000000000250028002B000000
:10073000000000230026002900040404040404042B
:100740000402020202020203030303030301020480
:100750000810204080010204081020010204081043
:100760002000000008000201000003040700000050
:100770000000000000006B10DF1711241FBECFEF38
:10078000D8E0DEBFCDBF26E0A4E2B2E001C01D92FA
:10079000AA31B207E1F712E0A0E0B1E0EAEFF5E339
:1007A00002C005900D92A432B107D9F713E0CCEB4B
:1007B000D3E004C02197FE010E94EF18CB3BD10784
:1007C000C9F70E94D5110C94F01A0C940000AC01EA
:1007D00010925F039091AF058091AE05FA01BF01C1
:1007E000641B750B20915F03308130935F0393137B
:1007F00004C0921302C010925F033081311104C013
:10080000921721F0CB0108953817D1F33196E7CF35
:100810000F931F93CF93DF938091A305882309F44F
:1008200046C0D0E0C0E0813029F482E08093A30587
:10083000C3E6D3E08091A405882341F1209721F4F9
:10084000C091A805D091A9058E01CE010E94E703B1
:10085000892B29F42196F80180818111F5CFF801C7
:100860008081882309F1C8010E94E703F801E80F9D
:10087000F91F8081882311F010823196F093A90529
:10088000E093A8051093A7050093A6058091A605FF
:100890009091A705892B59F081E08093A405DF9101
:1008A000CF911F910F91089510E000E0EBCF80E011
:1008B000F6CF833081F028F4813099F08230A9F0AE
:1008C00008958730A9F08830C9F08430B1F4809160
:1008D00080008F7D03C0809180008F77809380009F
:1008E000089584B58F7784BD089584B58F7DFBCF3F
:1008F0008091B0008F778093B00008958091B00010
:100900008F7DF9CFCF93DF93282F30E0F901EF5996
:10091000F84F8491F901E35BF84FD491F901E75C5A
:10092000F84FC491CC23A1F081110E945904EC2FFF
:10093000F0E0EE0FFF1FE15DF84FA591B491EC914F
:10094000ED2381E090E009F480E0DF91CF910895FC
:1009500080E090E0FACF1F93CF93DF93282F30E011
:10096000F901EF59F84F8491F901E35BF84FD49105
:10097000F901E75CF84FC491CC23A9F0162F81113F
:100980000E945904EC2FF0E0EE0FFF1FEB5DF84FD3
:10099000A591B4918FB7F894EC91111108C0D0953E
:1009A000DE23DC938FBFDF91CF911F910895DE2B63
:1009B000F8CFCF93DF9390E0FC01E35BF84F2491F5
:1009C000875C984FFC0184918823C9F090E0880FE0
:1009D000991FFC01E55EF84FA591B491FC01EB5D18
:1009E000F84FC591D49161110DC09FB7F8948C91C7
:1009F000209582238C938881282328839FBFDF91B1
:100A0000CF910895623051F49FB7F8943C91822FB2
:100A1000809583238C93E8812E2BEFCF8FB7F894AA
:100A2000EC912E2B2C938FBFEACF1F93CF93DF93A4
:100A3000182FEB0161E00E94D904209739F460E09F
:100A4000812FDF91CF911F910C94AB04CF3FD10543
:100A500011F461E0F5CFE12FF0E0EF59F84FE491A8
:100A6000E33031F140F4E130B1F0E230E1F0C03890
:100A7000D1057CF7E4CFE73029F1E83059F1E430D3
:100A8000B1F780918000806280938000D0938B00CA
:100A9000C0938A0004C084B5806884BDC7BDDF915F
:100AA000CF911F91089584B5806284BDC8BDF7CFF2
:100AB00080918000806880938000D0938900C093EB
:100AC0008800EDCF8091B00080688093B000C09323
:100AD000B300E5CF8091B00080628093B000C093F6
:100AE000B400DDCF3FB7F894809136029091370281
:100AF000A0913802B091390226B5A89B05C02F3FBE
:100B000019F00196A11DB11D3FBFBA2FA92F982F33
:100B10008827BC01CD01620F711D811D911D42E02E
:100B2000660F771F881F991F4A95D1F708958F92F6
:100B30009F92AF92BF92CF92DF92EF92FF924B01C2
:100B40005C010E9472056B017C010E9472056C19A8
:100B50007D098E099F09683E734081059105A8F3C0
:100B600021E0821A9108A108B10888EEC80E83E03E
:100B7000D81EE11CF11C81149104A104B10429F7D1
:100B8000FF90EF90DF90CF90BF90AF909F908F90AD
:100B900008952FB7F89460913202709133028091DA
:100BA0003402909135022FBF08950895DC01ED9134
:100BB000FC910190F081E02D0994EF92FF920F9348
:100BC0001F93CF93DF9320915A032223E9F08C01E6
:100BD0006091AE058091AB059091AC050E94D60561
:100BE000E090AB05F090AC05E801FE01649166234E
:100BF00059F0D701ED91FC910190F081E02DC701F2
:100C000009952196892B89F7DF91CF911F910F913B
:100C1000FF90EF900895DB0114964D915C9115972C
:100C20006D917C91DC01ED91FC910280F381E02DCE
:100C30000994AF92BF92CF92DF92EF92FF920F93FF
:100C40001F93CF93DF936C017B018B01040F151F62
:100C5000EB015E01AE18BF08C017D10759F06991CA
:100C6000D601ED91FC910190F081E02DC60109952E
:100C7000892B79F7C501DF91CF911F910F91FF90DB
:100C8000EF90DF90CF90BF90AF900895FC01538D0F
:100C9000448D252F30E0842F90E0821B930B541756
:100CA00010F0CF96089501970895FC01918D828DE3
:100CB000981761F0A28DAE0FBF2FB11D5D968C917C
:100CC000928D9F5F9F73928F90E008958FEF9FEFBB
:100CD0000895FC01918D828D981731F0828DE80F77
:100CE000F11D858D90E008958FEF9FEF0895FC0131
:100CF000918D228D892F90E0805C9F4F821B9109FE
:100D00008F73992708958DEB92E00E94770621E07A
:100D1000892B09F420E0822F089580E090E0892B50
:100D200029F00E94830681110C9400000895FC01B3
:100D3000A48DA80FB92FB11DA35ABF4F2C91848D3C
:100D400090E001968F739927848FA689B7892C9399
:100D5000A089B1898C91837080648C93938D848DEC
:100D6000981306C00288F389E02D80818F7D8083EF
:100D70000895EF92FF920F931F93CF93DF93EC01AF
:100D800081E0888F9B8D8C8D98131AC0E889F98932
:100D9000808185FF15C09FB7F894EE89FF89608335
:100DA000E889F98980818370806480839FBF81E0B6
:100DB00090E0DF91CF911F910F91FF90EF900895F8
:100DC000F62E0B8D10E00F5F1F4F0F731127E02ED3
:100DD0008C8D8E110CC00FB607FCFACFE889F9890B
:100DE000808185FFF5CFCE010E949706F1CFEB8D74
:100DF000EC0FFD2FF11DE35AFF4FF0829FB7F894DF
:100E00000B8FEA89FB8980818062CFCFCF93DF93FC
:100E1000EC01888D8823B9F0AA89BB89E889F98912
:100E20008C9185FD03C0808186FD0DC00FB607FC47
:100E3000F7CF8C9185FFF2CF808185FFEDCFCE017A
:100E40000E949706E9CFDF91CF910895EF92FF922C
:100E50001F93CF93DF93EC0167FD22C08881681751
:100E6000F9F0E62E062E000CFF0889818E151F046E
:100E700009F00CF441C0688310E08A85181780F4EB
:100E8000B701012E02C0759567950A94E2F761706B
:100E9000FE01E10FF11D82810E94AB041F5FEDCFC7
:100EA0008F859889009729F00197F1F08EEF9FEFD9
:100EB00015C08D858E3008F08E50877080648093C9
:100EC0007C0080917A00806480937A0080917A001F
:100ED00086FDFCCF8091780090917900DF91CF91D1
:100EE0001F91FF90EF9008958D85DF91CF911F9115
:100EF000FF90EF900C9482048DEF9FEFEFCFDC0119
:100F0000ED91FD918081ED91FD919081ED91FD91AB
:100F10006C9163708E2309F064609F2309F0686010
:100F2000ECE9F7E0E60FF11D659565956D936D9120
:100F30007D918D919D91099423C01AC012C016C055
:100F400010C01EC009C014C013C006C019C009C01B
:100F50000DC007C00DC014C062507040804090406A
:100F60000BC0615070408040904006C06E5F01C071
:100F70006F5F7F4F8F4F9F4F9E938E937E936E93A5
:100F8000089580912602909127020C947F0780910A
:100F90002402909125020C947F074F925F926F92EA
:100FA0007F928F929F92AF92BF92CF92DF92EF92F9
:100FB000FF920F931F93CF93DF93CDB7DEB7629766
:100FC0000FB6F894DEBF0FBECDBF4C01742E652E58
:100FD0002B01AA86BB86CC86DD86EE86FF86088B33
:100FE000198B2A8B89E0FE013A96DE011196019059
:100FF0000D928A95E1F78FEFF401808399E0FE016D
:101000003196D401129601900D929A95E1F791E0F4
:10101000F401938784878587968781E090E0908BA1
:1010200087878401980128193909F401828590E0A5
:101030000F5F1F4F2817390734F461E0F8018181F1
:101040000E94D904EFCF91E001C0990F8A95EAF789
:101050009183858587FD0DC0871559F09685913060
:1010600019F460E00E94AB0460E0F40185850E9401
:10107000D904F401758666864786508A611004C0DB
:1010800060E0872D0E94AB04F40166858585629639
:101090000FB6F894DEBF0FBECDBFDF91CF911F9189
:1010A0000F91FF90EF90DF90CF90BF90AF909F9007
:1010B0008F907F906F905F904F900C94D90480E058
:1010C00008950F931F93CF93DF93EC01062F142FF6
:1010D00062E0802F0E94D90462E0812F0E94D9042F
:1010E000802F90E0FC01E75CF84FE491F0E0EE0F18
:1010F000FF1FE15DF84FA591B491B983A883FC016E
:10110000E35BF84F24912C83812F90E0FC01E75C96
:10111000F84FE491F0E0EE0FFF1FE15DF84F4591CD
:1011200054915B834A83FC01E35BF84FE491ED83C8
:101130001F82188619861A868BE39FE10197F1F7C3
:101140008C91282391E009F490E0DA018C91E82356
:1011500009F092609E83BE01802F0E945F08082FD5
:10116000BE01812F0E945F08800F8B87DF91CF9196
:101170001F910F9108950E940804882359F081E07F
:101180008093A4058093A5058091A6059091A7055D
:101190000C940D181092A50560E070E0CB01089545
:1011A0000E94BB080C94BB08CF92DF92EF92FF9293
:1011B0000E94BB086B017C018FEFC816D104E104CB
:1011C000F10409F030F4B6018BE00E941505C092DD
:1011D000AC01FF90EF90DF90CF9008950E94BB0884
:1011E000672B682B692B29F470E060E08BE00C948E
:1011F00015056091AC01062E000C770BF7CFFB01B3
:1012000001900020E9F73197AF01461B570BDC0135
:10121000ED91FC910280F381E02D099480915A03B5
:101220008823A1F06091AD058091AB059091AC054C
:101230000E94D60580916203882341F065EC71E03D
:101240008091AB059091AC050E94FF08109261035C
:1012500010925A0380E008958F929F92AF92BF92AE
:10126000EF92FF920F931F93CF93DF93CDB7DEB72B
:10127000A1970FB6F894DEBF0FBECDBF7C01FA0177
:10128000CB0119A2223008F42AE08E010F5D1F4F16
:10129000822E912CB12CA12CBF01A50194010E949A
:1012A000CD18F901CA016A300CF5605DD8016E9362
:1012B0008D01232B242B252B79F790E080E01097CC
:1012C00021F0BD01C7010E94FF08A1960FB6F89456
:1012D000DEBF0FBECDBFDF91CF911F910F91FF9069
:1012E000EF90BF90AF909F908F900895695CDECF94
:1012F00090915A03911110C091E090935A039093EA
:101300006103482F50E070E060E02AE08091AB0577
:101310009091AC050C942C090895CF93DF93909194
:101320005A0391110AC0EB010E947809CE010E9474
:10133000DD05DF91CF910C940E0980E0DF91CF9114
:10134000089568E670E083E00C948D09CF93DF93F5
:1013500020915A032223B1F0EC016091AE058091F7
:10136000AB059091AC050E94D605AE01DD0F660B72
:10137000770B2AE08091AB059091AC05DF91CF917E
:101380000C942C09DF91CF9108950F931F93CF9365
:10139000DF93EC0188819981009759F02A813B8184
:1013A0002617370730F081E0DF91CF911F910F9121
:1013B00008958B016F5F7F4F0E941A1A009759F0B2
:1013C000998388831B830A832C813D81232B59F7C2
:1013D000FC011082E8CF80E0E7CFEF92FF920F93FD
:1013E0001F93CF93DF936115710541F480E0DF9186
:1013F000CF911F910F91FF90EF90089541155105E6
:10140000B1F07B01EC010C811D81040F151FB801A7
:101410000E94C509882351F3288139818C819D81DF
:10142000B701820F931F0E94E91A1D830C8381E08C
:10143000DECFCF93DF93EC0188819981009711F083
:101440000E949119198218821D821C821B821A82A5
:10145000DF91CF910895EF92FF920F931F93CF9357
:10146000DF93EC017B01CB010E943B180097A9F0B0
:101470000C811D81080F191FB801CE010E94C509FA
:10148000882399F0288139818C819D81B701820F51
:10149000931F0E9434181D830C83CE01DF91CF91DE
:1014A0001F910F91FF90EF900895CE010E94190AAD
:1014B000F4CFCF93DF93EC01FB0101900020E9F71B
:1014C0003197AF01461B570B0E94ED09811103C0F4
:1014D000CE010E94190ACE01DF91CF910895CF93DA
:1014E000DF93EC01FB0144815581608171810E9491
:1014F000ED09811103C0CE010E94190ACE01DF91CE
:10150000CF910895EF92FF920F931F93CF93DF93A4
:10151000EC017B018A01BA010E94C50981110BC04F
:10152000CE010E94190ACE01DF91CF911F910F9138
:10153000FF90EF9008951D830C83B70188819981F6
:101540000E94E91AF0CFEF92FF920F931F93CF936F
:10155000DF93CDB7DEB762970FB6F894DEBF0FBE4C
:10156000CDBF8C01CB01F80111821082138212824F
:10157000158214824AE09E012F5F3F4F7901B90125
:101580000E944418F70101900020E9F73197AF015C
:101590004E195F09B701C8010E94820A62960FB610
:1015A000F894DEBF0FBECDBFDF91CF911F910F9199
:1015B000FF90EF900895FB01DC0111961C921E92A2
:1015C00013961C921E92129715961C921E921497B7
:1015D0008617970749F0608171816115710521F0C7
:1015E000448155810C94820A0895FC011182108275
:1015F0001382128215821482FB0101900020E9F708
:101600003197AF01461B570B0C94820AFC01808175
:101610009181009711F00C94911908950F931F93E5
:10162000CF93DF9300D000D000D0CDB7DEB72091AC
:101630005A0321112FC08C018CE00E947809B80157
:10164000CE0101960E94DB0A80915A03882389F01B
:101650006091AE058091AB059091AC050E94D605D6
:10166000BE016F5F7F4F8091AB059091AC050E94EA
:101670000B06CE0101960E94060B0E940E092696CB
:101680000FB6F894DEBF0FBECDBFDF91CF911F9193
:101690000F91089580E0F3CF0F931F93CF93DF93C3
:1016A00000D000D000D0CDB7DEB70E940804882358
:1016B00079F181E08093A4058093A5050091A605AA
:1016C0001091A70568EC71E0C8010E94E01A892B0F
:1016D00021F581E0809328026091AC01062E000C78
:1016E000770BCE0101960E94A30ACE0101960E94BB
:1016F0000E0BCE0101960E94060B26960FB6F894AB
:10170000DEBF0FBECDBFDF91CF911F910F91089526
:101710001092A50510E000E0D5CF6EEC71E0C80195
:101720000E94E01A892B39F063ED71E0C8010E9434
:10173000E01A892B51F41092280270E060E08BE0EF
:101740000E9415051092AC01D8CF6EED71E0C80172
:101750000E94E01A892B89F6EECF0F931F93CF9347
:10176000DF9300D000D000D0CDB7DEB720915A0370
:1017700021112FC08C0188E00E947809B801CE01A8
:1017800001960E94DB0A80915A03882389F06091B8
:10179000AE058091AB059091AC050E94D605BE01C7
:1017A0006F5F7F4F8091AB059091AC050E940B0657
:1017B000CE0101960E94060B0E940E0926960FB6D6
:1017C000F894DEBF0FBECDBFDF91CF911F910F9177
:1017D000089580E0F3CFCF92DF92EF92FF920F93C4
:1017E0001F93CF93DF93CDB7DEB768970FB6F8940A
:1017F000DEBF0FBECDBF0E940804882309F46BC072
:1018000081E08093A4058093A5050091A605109121
:10181000A70562EE71E0C8010E94E01A892B09F069
:101820005FC080E00E9478098CED96E00E94DD05A3
:1018300085EB96E00E94DD0582EA96E00E94DD05D8
:1018400082E090E00E94A60982E090E00E94A60952
:101850008AE796E00E94DD0581E796E00E94DD05BB
:1018600082E696E00E94DD050E940E0968EC70E0B9
:101870008BE00E94150564E670E080E090E00E9435
:10188000970570E060E08BE00E94150564E670E06B
:1018900080E090E00E94970568EC70E08BE00E9489
:1018A000150564E670E080E090E00E94970570E026
:1018B00060E08BE00E94150568960FB6F894DEBFD5
:1018C0000FBECDBFDF91CF911F910F91FF90EF9091
:1018D000DF90CF9008951092A50510E000E099CF19
:1018E00067EE71E0C8010E94E01A892B09F0C6C1B9
:1018F00080E00E94780988E596E00E94DD0581E09D
:1019000090E00E94A6090E940E0902E211E0F8018F
:101910008081813009F0B1C061818CE592E00E9444
:1019200026077C01892BD9F5F8016481062E000C6D
:10193000770BCE010D960E94A30AF8016281738194
:10194000CE0101960E94A30ABE016F5F7F4FCE01B8
:1019500007960E94DB0A61EF71E0CE0107960E94B4
:10196000590ABE01635F7F4F0E946F0ABC01CE011E
:1019700043960E94DB0ACE0143960E94AD0BCE0136
:1019800043960E94060BCE0107960E94060BCE01DD
:1019900001960E94060BCE010D960E94060BF801DF
:1019A000E5820A5F1F4FF1E00C3A1F0709F0AFCF45
:1019B00004E011E022E2C22E21E0D22EF801808163
:1019C0000E9482047C01F8018181928184339840D5
:1019D000F4F1E114F104D9F5F8016381062E000C4D
:1019E000770BCE010D960E94A30AF80161817281E6
:1019F000CE0101960E94A30ABE016F5F7F4FCE0108
:101A000007960E94DB0A61EF71E0CE0107960E9403
:101A1000590ABE01635F7F4F0E946F0ABC01CE016D
:101A200043960E94DB0ACE0143960E94AD0BCE0185
:101A300043960E94060BCE0107960E94060BCE012C
:101A400001960E94060BCE010D960E94060BF8012E
:101A5000E4820B5F1F4FC016D10609F0AFCF80E0C4
:101A60000E9478098EE496E00E94DD0582E090E015
:101A70000E94A6090E940E091FCF823009F091CF63
:101A800061818BE492E00E9426077C01892B09F09A
:101A900041C0F801828193818A399840D9F5F801D3
:101AA0006481062E000C770BCE010D960E94A30ACE
:101AB000F80162817381CE0101960E94A30ABE01E2
:101AC0006F5F7F4FCE0107960E94DB0A61EF71E0E6
:101AD000CE0107960E94590ABE01635F7F4F0E94A4
:101AE0006F0ABC01CE0143960E94DB0ACE014396E9
:101AF0000E94AD0BCE0143960E94060BCE010796C5
:101B00000E94060BCE0101960E94060BCE010D9697
:101B10000E94060BF80162817381CB01825D9740C0
:101B20000297F0F5E114F10409F06CC06481062E0F
:101B3000000C770BCE010D960E94A30AF80162817A
:101B40007381CE0101960E94A30ABE016F5F7F4F91
:101B5000CE0107960E94DB0A61EF71E0CE01079685
:101B60000E94590ABE01635F7F4F0E946F0ABC0149
:101B7000CE0143960E94DB0ACE0143960E94AD0B34
:101B8000CE0143960E94060BCE0107960E94060BDB
:101B9000CE0101960E94060BCE010D960E94060B07
:101BA000F80162817381CB0188599840029708F04F
:101BB000F6CEE114F10409F04EC0CE0101960E9468
:101BC000A30ABE016F5F7F4FCE0107960E94DB0A1A
:101BD00066EF71E0CE0107960E94590ABC01CE0162
:101BE0000D960E94DB0ACE010D960E94AD0BCE0130
:101BF0000D960E94060BCE0107960E94060BCE01A1
:101C00000196CBCEF1E0EF16F10451F6CE0101962C
:101C10000E94A30ABE016F5F7F4FCE0107960E940C
:101C2000DB0A63EF71E0CE0107960E94590ABC01FE
:101C3000CE010D960E94DB0ACE010D960E94AD0BDF
:101C4000CE010D960E94060BCE0107960E94060B50
:101C5000CE010196A3CFF1E0EF16F10409F09FCE7B
:101C6000CE0101960E94A30ABE016F5F7F4FCE0195
:101C700007960E94DB0A63EF71E0ACCF69EF71E079
:101C8000C8010E94E01A892BD9F50E94C90560930A
:101C9000290270932A0280932B0290932C0280E0F9
:101CA0000E94780989E496E00E94DD050E94BB0845
:101CB0006B017C0180915A03882309F4DBCE60918B
:101CC000AE058091AB059091AC050E94D6050091C0
:101CD000AB051091AC052AE0B701A601F7FE0CC0D8
:101CE0006DE2C8010E94D60544275527BA014C1958
:101CF0005D096E097F092AE0C8010E942C09BACE4D
:101D00006EED71E0C8010E94E01A892B41F470E089
:101D100060E08BE00E9415051092AC01CDCD6EEF16
:101D200071E0C8010E94E01A892B09F0C5CD80E05E
:101D30000E94780982E496E00E94DD0586E396E041
:101D40000E94DD0588E296E00E94DD058CE196E0C8
:101D50000E94DD0589E096E00E94DD050E940E09E3
:101D600009E712E098EBE92E9BE0F92E80E00E9453
:101D7000780983E096E00E94DD05C7010E94A6096C
:101D8000B801CE0101960E94DB0A80915A03882394
:101D900089F06091AE058091AB059091AC050E94F1
:101DA000D605BE016F5F7F4F8091AB059091AC056A
:101DB0000E940B06CE0101960E94060B8BEF95E068
:101DC0000E94DD05B801665F7F4FCE0101960E943B
:101DD000DB0A80915A03882389F06091AE058091D7
:101DE000AB059091AC050E94D605BE016F5F7F4F99
:101DF0008091AB059091AC050E940B06CE01019637
:101E00000E94060B0E940E09045E1F4FF9EBEF16AD
:101E1000FBE0FF0609F06AC067EC75E080E00E9415
:101E20008D0962E975E080E00E948D096EE475E03D
:101E300080E00E948D096AE075E080E00E948D09D3
:101E400066ED74E080E00E948D0962EA74E080E053
:101E50000E948D096EE674E080E00E948D096AE3BD
:101E600074E080E00E948D0965E074E080E00E94EB
:101E70008D0961ED73E080E00E948D096CE973E0EB
:101E800080E00E948D096BE673E080E00E948D097E
:101E90006AE373E080E00E948D0966ED72E080E005
:101EA0000E948D0966E772E080E00E948D0964E07F
:101EB00072E080E00E948D0968E771E080E00E9496
:101EC0008D0963E271E080E00E948D096CEC70E0A6
:101ED00081E00E948D096FE770E081E00E948D092A
:101EE00068E770E080E00E948D09E6CC89EBE82E7F
:101EF0008BE0F82E3BCF1F920F920FB60F9211245A
:101F00002F933F938F939F93AF93BF938091320210
:101F100090913302A0913402B09135023091310298
:101F200023E0230F2D3758F50196A11DB11D2093F5
:101F300031028093320290933302A0933402B09323
:101F400035028091360290913702A0913802B0910B
:101F500039020196A11DB11D80933602909337027C
:101F6000A0933802B0933902BF91AF919F918F91A6
:101F70003F912F910F900FBE0F901F90189526E85C
:101F8000230F0296A11DB11DD2CF1F920F920FB643
:101F90000F9211242F933F934F935F936F937F93EF
:101FA0008F939F93AF93BF93EF93FF93E0910201C1
:101FB000F09103010995FF91EF91BF91AF919F912E
:101FC0008F917F916F915F914F913F912F910F90E2
:101FD0000FBE0F901F9018951F920F920FB60F9281
:101FE00011242F933F934F935F936F937F938F931E
:101FF0009F93AF93BF93EF93FF93E0910001F09114
:1020000001010995FF91EF91BF91AF919F918F9140
:102010007F916F915F914F913F912F910F900FBEE4
:102020000F901F9018951F920F920FB60F921124C8
:102030002F933F934F935F936F937F938F939F93D0
:10204000AF93BF93EF93FF938DEB92E00E949706BF
:10205000FF91EF91BF91AF919F918F917F916F9180
:102060005F914F913F912F910F900FBE0F901F9056
:1020700018951F920F920FB60F9211242F938F93E2
:102080009F93EF93FF93E091CD02F091CE02808178
:10209000E091D302F091D40282FD1BC09081809127
:1020A000D6028F5F8F732091D702821741F0E091A3
:1020B000D602F0E0E354FD4F958F8093D602FF9156
:1020C000EF919F918F912F910F900FBE0F901F90C6
:1020D00018958081F4CF8F929F92AF92BF92CF924A
:1020E000DF92EF92FF920F931F93CF93DF93CDB7C1
:1020F000DEB729970FB6F894DEBF0FBECDBF1092A2
:10210000C0021092BF0288EE93E0A0E0B0E080939E
:10211000C1029093C202A093C302B093C40287EBA2
:1021200091E09093BE028093BD0285EC90E0909385
:10213000CA028093C90284EC90E09093CC02809311
:10214000CB0280EC90E09093CE028093CD0281ECA4
:1021500090E09093D0028093CF0282EC90E0909335
:10216000D2028093D10286EC90E09093D4028093C7
:10217000D3021092D6021092D7021092D802109277
:10218000D9021092B1051092B0058DEB92E09093B8
:10219000AC058093AB05109262038CE28093AE0590
:1021A0008BE38093AD058FE28093AF0580E480934D
:1021B0005D038FE380935E0310925C031092A7058A
:1021C0001092A6051092A9051092A80581E08093AF
:1021D000A405E2EBF5E01192119286E0E631F807F2
:1021E000D1F71092610348E067E081EB92E00E9432
:1021F00061084AE069E085EA92E00E9461088CE0AB
:10220000E1EBF2E0ADE6B2E001900D928A95E1F7E4
:1022100065E072E089E792E00E94F50A89E1882E84
:102220008CEF982EAA24AA94BA2C80927F029092C6
:102230008002A0928102B09282026EE072E083E896
:1022400092E00E94F50A8CE0E5EAF2E0A9E8B2E04B
:1022500001900D928A95E1F76BE172E085E992E0D9
:102260000E94F50A80929B0290929C02A0929D028D
:10227000B0929E026EE072E08FE992E00E94F50A51
:1022800082E0898383E08A8384E08B838FEF8C8371
:102290008D838E838F838887FE01319690E080E066
:1022A0004F01219127FF6DC08987A980BA80CB801B
:1022B000DC80ED80FE800F811885298545E050E0A7
:1022C00061E070E08CE592E00E94CD0782E08983B6
:1022D00083E08A8384E08B838FEF8C838D838E836E
:1022E0008F838887F40190E080E0219127FF50C020
:1022F0008987A980BA80CB80DC80ED80FE800F8149
:102300001885298546E050E061E070E08BE492E0BA
:102310000E94CD0782E0898383E08A8384E08B83F7
:102320008FEF8C838D838E838F838887F40190E079
:1023300080E0219127FF33C08987A980BA80CB80B4
:10234000DC80ED80FE800F81188529854CE050E00F
:1023500061E070E08AE392E00E94CD0729960FB613
:10236000F894DEBF0FBECDBFDF91CF911F910F91CB
:10237000FF90EF90DF90CF90BF90AF909F908F90A5
:10238000089501968830910509F08BCF88E08CCFB5
:1023900001968830910509F0A8CF88E0A9CF019671
:1023A0008830910531F688E0C7CFCF93DF93CDB762
:1023B000DEB768970FB6F894DEBF0FBECDBF789436
:1023C00084B5826084BD84B5816084BD85B582603A
:1023D00085BD85B5816085BD80916E0081608093EB
:1023E0006E00109281008091810082608093810054
:1023F0008091810081608093810080918000816064
:10240000809380008091B10084608093B1008091BE
:10241000B00081608093B00080917A0084608093E6
:102420007A0080917A00826080937A0080917A00AD
:10243000816080937A0080917A00806880937A002E
:102440001092C1000E94C9056093290270932A026C
:1024500080932B0290932C0260932D0270932E0296
:1024600080932F0290933002A2E2EA2EA1E0FA2E8E
:1024700004E011E062E0D8018C910E94D9040B5F66
:102480001F4FE016F106B1F761E08BE00E94D9041E
:10249000E091CD02F091CE0282E08083E091C9020A
:1024A000F091CA021082E091CB02F091CC0280E15F
:1024B00080831092D502E091D102F091D20286E0A1
:1024C0008083E091CF02F091D0028081806180838F
:1024D000E091CF02F091D002808188608083E0910A
:1024E000CF02F091D002808180688083E091CF029A
:1024F000F091D00280818F7D808361EE76E083E071
:102500000E948D098BEE9BE09093B3058093B205FA
:102510008CE49BE09093B7058093B60581EA99E03F
:102520009093B9058093B80580ED98E09093BD0530
:102530008093BC0584ED98E09093CB058093CA0509
:102540008EEE98E09093CD058093CC056091AC0120
:10255000062E000C770B8BE00E941505FCEA8F2EEF
:10256000F1E09F2EEDE6EE2EE2E0FE2EB12CA12C46
:10257000F7018385823008F075C1F894C7010E9485
:102580007F07F70187819085A185B285789462E005
:10259000B595A795979587956A95D1F742895389FF
:1025A00064897589481759076A077B070CF05CC175
:1025B000828B938BA48BB58B80912802882349F161
:1025C000B5016854744FCE010D960E94A30ABE0156
:1025D000635F7F4FCE0107960E94DB0A6AEF76E0C9
:1025E000CE0107960E942B0ABC01CE0101960E94E3
:1025F000DB0ACE0101960E94AD0BCE0101960E942E
:10260000060BCE0107960E94060BCE010D960E9486
:10261000060BF1E0AF16B10419F583E10E948204C4
:10262000892B29F5C090AC0120E1C20EC092AC010B
:102630000C2C000CDD08B6018BE00E941505809182
:1026400028028823A1F0B601CE0101960E94A30AB8
:10265000CE0101960E940E0BCE0101960E94060B40
:102660002CE1E20EF11CAA94AB2809F0F7C00E94FD
:10267000C905C0902D02D0902E02E0902F02F0905C
:1026800030026C197D098E099F0965367105810537
:10269000910508F47DC380912802882309F463C062
:1026A00054E0E52E51E0F52ED7018C910E94820472
:1026B0006C01F7018481082E000C990BC816D9060D
:1026C00009F44AC0618172816433F8E07F070CF03D
:1026D00044C1C114D10409F016C1D70113966C91FD
:1026E000062E000C770BCE010D960E94A30AF7016F
:1026F00061817281CE0101960E94A30ABE016F5FC3
:102700007F4FCE0107960E94DB0A65E077E0CE019D
:1027100007960E942B0ABE01635F7F4F0E946F0ADB
:10272000BC01CE0143960E94DB0ACE0143960E9473
:10273000AD0BCE0143960E94060BCE0107960E9478
:10274000060BCE0101960E94060BCE010D960E944B
:10275000060BD7011496CC92B5E0EB0EF11C0E15CA
:102760001F0509F0A1CF80912802882309F462C0D7
:1027700042E2E42E41E0F42EF7018081813009F03D
:102780001DC161818CE592E00E9426076C01D70192
:1027900015968C911597082E000C990BC816D90622
:1027A00009F441C0C114D104D9F514966C91062ED8
:1027B000000C770BCE010D960E94A30AF7016281EF
:1027C0007381CE0101960E94A30ABE016F5F7F4F05
:1027D000CE0107960E94DB0A69E177E0CE010796F9
:1027E0000E942B0ABE01635F7F4F0E946F0ABC01EB
:1027F000CE0143960E94DB0ACE0143960E94AD0BA8
:10280000CE0143960E94060BCE0107960E94060B4E
:10281000CE0101960E94060BCE010D960E94060B7A
:10282000D7011596CC92F6E0EF0EF11C8E149F04A2
:1028300009F0A2CF82E10E948204892B09F04FC2E5
:1028400083E10E948204892B09F049C28091AC0186
:10285000882309F474C21092AC0174C2AA24A39410
:10286000B12C86CEF8948DCE84179507A607B707AE
:102870000CF0F6CE828B938BA48BB58B80912802C3
:10288000882349F1B5016854744FCE010D960E941A
:10289000A30ABE01635F7F4FCE0107960E94DB0A49
:1028A00066EF76E0CE0107960E942B0ABC01CE01AE
:1028B00001960E94DB0ACE0101960E94AD0BCE016B
:1028C00001960E94060BCE0107960E94060BCE01D0
:1028D0000D960E94060BF1E0AF16B10409F0C0CED0
:1028E00083E10E948204892B09F0C1CE8091AC0162
:1028F000805187FD05C08093AC01C090AC0198CE9B
:102900001092AC01FACFF1E0CF16D10409F021CF3B
:10291000CE0101960E94A30ABE016F5F7F4FCE01D8
:1029200007960E94DB0A62E077E0CE0107960E94DC
:102930002B0ABC01CE010D960E94DB0ACE010D963A
:102940000E94AD0BCE010D960E94060BCE0107969C
:102950000E94060BCE010196FACEC114D104D9F41F
:10296000D70113966C91062E000C770BCE010D96B5
:102970000E94A30AF70161817281CE0101960E9433
:10298000A30ABE016F5F7F4FCE0107960E94DB0A4C
:1029900060E077E0BCCEF1E0CF16D10409F0D9CEEB
:1029A000CE0101960E94A30ABE016F5F7F4FCE0148
:1029B00007960E94DB0A6DEF76E0B7CF823009F010
:1029C0000DC161818BE492E00E9426076C01D70162
:1029D00015968C911597082E000C990BC816D906E0
:1029E00009F421CFC114D10409F042C012968D918F
:1029F0009C918A399840E1F5F7016481062E000C1C
:102A0000770BCE010D960E94A30AD70112966D9105
:102A10007C91CE0101960E94A30ABE016F5F7F4F99
:102A2000CE0107960E94DB0A67E177E0CE010796A8
:102A30000E942B0ABE01635F7F4F0E946F0ABC0198
:102A4000CE0143960E94DB0ACE0143960E94AD0B55
:102A5000CE0143960E94060BCE0107960E94060BFC
:102A6000CE0101960E94060BCE010D960E94060B28
:102A7000F70162817381CB01825D9740029708F074
:102A80003FC0C114D10409F06DC06481062E000C52
:102A9000770BCE010D960E94A30AD70112966D9175
:102AA0007C91CE0101960E94A30ABE016F5F7F4F09
:102AB000CE0107960E94DB0A65E177E0CE0107961A
:102AC0000E942B0ABE01635F7F4F0E946F0ABC0108
:102AD000CE0143960E94DB0ACE0143960E94AD0BC5
:102AE000CE0143960E94060BCE0107960E94060B6C
:102AF000CE0101960E94060BCE010D960E94060B98
:102B0000F70162817381CB0188599840029708F0E0
:102B100087CEC114D10409F04EC0CE0101960E94A7
:102B2000A30ABE016F5F7F4FCE0107960E94DB0AAA
:102B30006FE077E0CE0107960E942B0ABC01CE0120
:102B40000D960E94DB0ACE010D960E94AD0BCE01C0
:102B50000D960E94060BCE0107960E94060BCE0131
:102B600001965CCEB1E0CB16D10451F6CE010196B0
:102B70000E94A30ABE016F5F7F4FCE0107960E949D
:102B8000DB0A62E177E0CE0107960E942B0ABC01C6
:102B9000CE010D960E94DB0ACE010D960E94AD0B70
:102BA000CE010D960E94060BCE0107960E94060BE1
:102BB000CE010196A3CFF1E0CF16D10409F030CEBB
:102BC000CE0101960E94A30ABE016F5F7F4FCE0126
:102BD00007960E94DB0A6CE077E0ACCF833009F007
:102BE00022CE61818AE392E00E9426076C01D70120
:102BF00015968C911597082E000C990BC816D906BE
:102C000009F411CEC114D104F1F514966C91062E7D
:102C1000000C770BCE010D960E94A30AF70162818A
:102C20007381CE0101960E94A30ABE016F5F7F4FA0
:102C3000CE0107960E94DB0A6AE077E0CE01079694
:102C40000E942B0ABE01635F7F4F0E946F0ABC0186
:102C5000CE0143960E94DB0ACE0143960E94AD0B43
:102C6000CE0143960E94060BCE0107960E94060BEA
:102C7000CE0101960E94060BCE010D960E94060B16
:102C8000F701C582D0CDF1E0CF16D104C9F7129675
:102C90006D917C91CE0101960E94A30ABE016F5FE7
:102CA0007F4FCE0107960E94DB0A67E077E0CE01F6
:102CB00007960E942B0ABC01CE010D960E94DB0AEA
:102CC000CE010D960E94AD0BCE010D960E94060B13
:102CD000CE0107960E94060BCE010196CFCF64E08D
:102CE0008BE492E00E942607892B09F047C065E03B
:102CF0008BE492E00E942607892B09F03FC035E063
:102D0000E32EF12C60E870E08BE00E94150564E68C
:102D100070E080E090E00E94970570E060E08BE05A
:102D20000E94150564E670E080E090E00E9497053F
:102D300021E0E21AF10831F70C9400001FC080E88E
:102D40008093AC01E090AC010E2C000CFF08B701A1
:102D50008BE00E941505B701CE0101960E94A30ADF
:102D6000CE0101960E940E0BCE0101960E94060B29
:102D700064EF71E080E090E00E9497050E94C90531
:102D800060932D0270932E0280932F029093300255
:102D90000E94C905C0902902D0902A02E0902B021F
:102DA000F0902C026C197D098E099F09613E7349D0
:102DB0008440910578F070E060E08BE00E9415059A
:102DC0000E94C9056093290270932A0280932B0206
:102DD00090932C0233243394809161038111DBC0E2
:102DE0008091AB059091AC05DC01ED91FC910084E4
:102DF000F185E02D0995892B09F4CDC08091AB05B3
:102E00009091AC05DC01ED91FC910084F185E02D01
:102E10000995A12C22E0B22E8115924064F4809194
:102E2000AB059091AC05DC01ED91FC910084F1853E
:102E3000E02D09955C01E090AB05F090AC0593EABC
:102E4000692E93E0792E2301D12CC12CAC14BD0442
:102E500009F062C0F12CE12CAE14BF0409F4BCCF20
:102E6000D3019D913D011092A3053091AF052091B2
:102E7000600390936003931304C0921302C01092F6
:102E8000600380915C03E82FF0E04091AD05E65AC5
:102E9000FC4F941367C0321709F464C0118688236D
:102EA00021F03092A3051092600310925C031092FF
:102EB000A7051092A6051092A9051092A8053092B8
:102EC000A405D090A305B1E0DB1261C00E94080404
:102ED000882309F451C0D092A405D092A505809111
:102EE000A6059091A7050E94EF1780935B0382339C
:102EF00008F047C02091A505222309F442C0FC0137
:102F0000FF27EE0FFF1FEE54FA4F0190F081E02DE6
:102F10003097B9F109953BC00E94C905F701608758
:102F2000718782879387D701ED91FC910284F385A5
:102F3000E02DC701099597FF3BC00E94C905F70125
:102F40002085318542855385621B730B840B950B5D
:102F5000248135814681578162177307840795075D
:102F600010F378CF91878F5F80935C0390915E031D
:102F7000891708F09ACFA5CF1092A50590E080E0C0
:102F8000B4CFE091B005F091B105309719F6EFEFAD
:102F9000EE1AFE0A61CF80E090E0892B09F4E2CAC4
:102FA0000E948306882309F4D9CA0E940000D6CA69
:102FB000D2018D932D01BFEFCB1ADB0A47CF8FE9EA
:102FC00092E00E94060B85E992E00E94060B83E8DE
:102FD00092E00E94060B89E792E00C94060BFC013C
:102FE00088279927E89421912032E9F3293010F0BD
:102FF0002E30C8F32B3241F02D3239F4689404C0DE
:103000000E946418820F911D219120532A30C0F331
:103010001EF4909581959F4F08951F93FC01992769
:103020008827BC01E89411911032E9F3193010F0AF
:103030001E30C8F31B3251F01D3249F4689406C0AB
:103040000E944F18610F711D811D911D1191105328
:103050001A30B0F33EF490958095709561957F4F4E
:103060008F4F9F4F1F910895FB01DC0105900D923A
:103070000020E1F70895FC0105900020E9F7809514
:1030800090958E0F9F1F0895BB274A3031F49923E6
:1030900022F4BDE2909581959F4F0C946D18592FA5
:1030A000482F372F262F660F771F881F991F660F0F
:1030B000771F881F991F620F731F841F951F660F4C
:1030C000771F881F991F08957AE0979F902D879FFB
:1030D000802D910D11240895BB27FB015527AA27A8
:1030E000880F991FAA1FA41710F0A41B8395505195
:1030F000B9F7A05DAA3308F0A95DA193009779F70D
:10310000B111B1931192CB010C948618DC01FC0132
:10311000672F71917723E1F7329704C07C916D930B
:1031200070836291AE17BF07C8F308952F923F9244
:103130004F925F926F927F928F929F92AF92BF92C7
:10314000CF92DF92EF92FF920F931F93CF93DF9373
:10315000CDB7DEB7CA1BDB0B0FB6F894DEBF0FBED0
:10316000CDBF09942A88398848885F846E847D841D
:103170008C849B84AA84B984C884DF80EE80FD801F
:103180000C811B81AA81B981CE0FD11D0FB6F89495
:10319000DEBF0FBECDBFED010895A1E21A2EAA1B1E
:1031A000BB1BFD010DC0AA1FBB1FEE1FFF1FA217F7
:1031B000B307E407F50720F0A21BB30BE40BF50BF4
:1031C000661F771F881F991F1A9469F7609570957D
:1031D000809590959B01AC01BD01CF010895EE0F44
:1031E000FF1F0590F491E02D09940F931F93CF9347
:1031F000DF938230910510F482E090E0E0911806B0
:10320000F091190630E020E0B0E0A0E0309799F4AA
:103210002115310509F44AC0281B390B243031052A
:10322000D8F58A819B816115710589F1FB01938332
:103230008283FE0111C040815181028113814817B0
:103240005907E0F04817590799F4109761F0129662
:103250000C93129713961C933296CF01DF91CF9166
:103260001F910F9108950093180610931906F4CF3B
:103270002115310551F04217530738F0A901DB0140
:103280009A01BD01DF01F801C1CFEF01F9CF9093A1
:10329000190680931806CDCFFE01E20FF31F81932C
:1032A00091932250310939832883D7CF2091160674
:1032B00030911706232B41F42091AF013091B001DA
:1032C00030931706209316062091AD013091AE0180
:1032D0002115310541F42DB73EB74091B101509110
:1032E000B201241B350BE0911606F0911706E21788
:1032F000F307A0F42E1B3F0B2817390778F0AC0119
:103300004E5F5F4F2417350748F04E0F5F1F5093F5
:10331000170640931606819391939FCFF0E0E0E06B
:103320009CCFCF93DF930097E9F0FC013297138293
:103330001282A0911806B0911906ED0130E020E04C
:103340001097A1F420813181820F931F20911606DE
:10335000309117062817390709F061C0F093170656
:10336000E0931606DF91CF910895EA01CE17DF07AB
:10337000E8F54A815B819E0141155105B1F7E901EC
:10338000FB83EA8349915991C40FD51FEC17FD07C0
:1033900061F4808191810296840F951FE9019983E0
:1033A0008883828193819B838A83F0E0E0E0129698
:1033B0008D919C9113970097B9F52D913C911197A0
:1033C000CD010296820F931F2091160630911706A9
:1033D0002817390739F6309751F5109219061092CF
:1033E0001806B0931706A0931606BCCFD383C283EA
:1033F00040815181840F951FC817D90761F44E5F32
:103400005F4F88819981480F591F518340838A817A
:103410009B81938382832115310509F0B0CFF0930E
:103420001906E09318069ECFFD01DC01C0CF138280
:103430001282D7CFB0E0A0E0E0E2FAE10C94981855
:103440008C01009751F4CB010E94F5188C01C80142
:10345000CDB7DEB7E0E10C94B418FC01E60FF71F1E
:103460009C0122503109E217F30708F49DC0D901ED
:10347000CD91DC911197C617D70798F0C530D105CB
:1034800030F3CE0104978617970708F3C61BD70BB6
:103490002297C193D1936D937C93CF010E94911990
:1034A000D6CF5B01AC1ABD0A4C018C0E9D1EA091BB
:1034B0001806B0911906512C412CF12CE12C1097D3
:1034C00031F580911606909117068815990509F037
:1034D0005CC04616570608F058C08091AD01909127
:1034E000AE01009741F48DB79EB74091B101509164
:1034F000B201841B950BE817F90708F055C0F0934B
:103500001706E0931606F90171836083A0CF8D91B1
:103510009C91119712966C90129713967C9013972A
:10352000A815B90559F56C0142E0C40ED11CCA14A6
:10353000DB0420F1AC014A195B09DA0112961597F8
:1035400080F06282738251834083D9016D937C93B2
:10355000E114F10471F0D7011396FC93EE931297E6
:1035600076CF22968C0F9D1FF90191838083F30102
:10357000EFCFF0931906E093180669CF4816590665
:1035800008F42C017D01D3019ACFCB010E94F518DC
:103590007C01009749F0AE01B8010E94D71AC8011A
:1035A0000E949119870153CF10E000E050CFFB013A
:1035B000DC0102C001900D9241505040D8F70895AF
:1035C000FB01DC018D91019080190110D9F3990B59
:1035D0000895FB01DC0101900D920020E1F70895B0
:1035E00013E0CCEBD3E004C0FE010E94EF1821965B
:0A35F000CD3BD107C9F7F894FFCFD7
:1035FA00D505D50513D00701FF12D10701FF1034F5
:10360A000801FF0E340800FF11350801FF0F3508C5
:10361A0000FF01009B0800FF01019B0801FF010256
:10362A009B0802FF01039B0803FF01049B0804FF98
:10363A0001059B0805FF01069B0806FF01079B0879
:10364A0007FF02009A0800FF02019A0801FF02021E
:10365A009A0802FF02039A0803FF0204D20701FF35
:10366A000205D30701FF0206980801FF020799081D
:10367A0001FF0300D40701FF0301D50701FF03027D
:10368A00D60701FF0303D70701FF0304D80701FF89
:10369A000305D90701FF0306DA0701FF2000001A14
:1036AA0006800000000000B90619064606060777DC
:1036BA0006550669060D0A005354415254005354E4
:1036CA004F5000444953434F4E4E45435400454ED4
:1036DA004400494E4954005343414E5354415445C2
:1036EA00002C002C30002C310050494E4700434F2B
:1036FA004E464947004D494E535F454E430053508D
:10370A0041445F454E434F444552004241524F5F48
:04371A00454E4300D5
:00000001FF
