:100000000C9408030C94420D0C941B0D0C943003BB
:100010000C9430030C9430030C9430030C94300394
:100020000C9430030C9430030C9430030C94300384
:100030000C9430030C9430030C9430030C94300374
:100040000C94D10C0C9430030C948F0D0C94690D0E
:100050000C9430030C9430030C9430030C94300354
:100060000C9430030C943003554E4B4E4F574E209A
:10007000434F4D4D414E44004144442C31322C42BB
:10008000434B4C545F4252492C55382C52572C420A
:1000900061636B6C696768742C4D435020626163C7
:1000A0006B6C69676874206272696768746E6573E7
:1000B000732066726F6D203020746F2032353500EA
:1000C000434F4E46494700494E5055542C3232302A
:1000D000332C524E475F524F542C524F5441525979
:1000E0002C535041445F454E434F4445525F4E4F61
:1000F0004143432C504F535F4E414D45533D3523B3
:10010000313023323023343023383023313630231A
:10011000333230233634302C504F535F56414C55D8
:1001200045533D30233123322333233423352336C3
:1001300023372C504F535F554956414C5545533D3D
:100140002D36232D34232D322330233223342336EE
:10015000233800494E5055542C323230322C4D4FFA
:1001600044455F524F542C524F544152592C5350D6
:1001700041445F454E434F4445525F4E4F414343D8
:100180002C504F535F4E414D45533D4150502356E7
:100190004F52234D415023504C4E2C504F535F56DD
:1001A000414C5545533D302331233223332C504F9E
:1001B000535F554956414C5545533D2D34232D32FF
:1001C0002332233400494E5055542C323230312CD6
:1001D0004241524F5F524F542C524F544152592C6E
:1001E000535041445F454E434F4445525F4E4F414B
:1001F00043432C504F535F4E414D45533D494E2391
:100200004850412C504F535F56414C5545533D315A
:1002100023302C504F535F554956414C5545533D63
:100220002D32233200494E5055542C323230302C6E
:100230004D494E535F524F542C524F544152592CFA
:10024000535041445F454E434F4445525F4E4F41EA
:1002500043432C504F535F4E414D45533D52414413
:10026000494F234241524F2C504F535F56414C55FA
:1002700045533D3023312C504F535F554956414C27
:100280005545533D2D32233200494E5055542C32A2
:100290003130312C535243322C5357495443483355
:1002A0002C535749544348332C504F535F4E414DC4
:1002B00045533D4144463223564F5232234F464622
:1002C00000494E5055542C323130302C535243316A
:1002D0002C535749544348332C53574954434833BC
:1002E0002C504F535F4E414D45533D4144463123C1
:1002F000564F5231234F464600494E5055542C32EA
:100300003031302C544552522C505553484255549C
:10031000544F4E2C535041445F505553484255540E
:10032000544F4E2C55495F545950453D3200494E6B
:100330005055542C323030392C504F532C5055538B
:1003400048425554544F4E2C535041445F505553DE
:1003500048425554544F4E2C55495F545950453DD1
:100360003200494E5055542C323030382C444154D0
:10037000412C50555348425554544F4E2C535041E4
:10038000445F50555348425554544F4E2C55495F85
:10039000545950453D3200494E5055542C3230305E
:1003A000372C4150542C50555348425554544F4EBD
:1003B0002C535041445F50555348425554544F4E6E
:1003C0002C55495F545950453D3200494E505554C3
:1003D0002C323030362C5750542C505553484255FF
:1003E00054544F4E2C535041445F5055534842553E
:1003F00054544F4E2C55495F545950453D32004995
:100400004E5055542C323030352C5354412C5055CD
:100410005348425554544F4E2C535041445F50550D
:100420005348425554544F4E2C55495F54595045EA
:100430003D3200494E5055542C323030342C5758F0
:10044000522C50555348425554544F4E2C53504102
:10045000445F50555348425554544F4E2C55495FB4
:10046000545950453D3200494E5055542C3230308D
:10047000332C5354442C50555348425554544F4EEA
:100480002C535041445F50555348425554544F4E9D
:100490002C48494444454E3D312C524F5554455407
:1004A0004F3D4241524F5F454E4300494E505554D7
:1004B0002C323030322C5253542C50555348425524
:1004C00054544F4E2C535041445F5055534842555D
:1004D00054544F4E2C48494444454E3D312C524FC4
:1004E000555445544F3D4D494E535F454E43004989
:1004F0004E5055542C323030312C4D5452532C50D8
:10050000555348425554544F4E2C535041445F501C
:10051000555348425554544F4E2C55495F545950E9
:10052000453D3200494E5055542C323030302C4627
:1005300050562C50555348425554544F4E2C5350FE
:1005400041445F50555348425554544F4E2C5549E1
:100550005F545950453D3200454E434F444552008B
:10056000494E505554004E4F5F444953504C4159E9
:100570005F434C4541523D31005041474553555032
:10058000504F52543D3000495347454E4552494320
:100590003D31004F5054494F4E00434654203733AD
:1005A0003720454649532050414E454C0053504159
:1005B000440000000000240027002A000000000082
:1005C000250028002B000000000023002600290041
:1005D00004040404040404040202020202020303E9
:1005E00003030303010204081020408001020408F1
:1005F0001020010204081020000000080002010081
:10060000000304070000000000000000C10DDC141E
:1006100011241FBECFEFD8E0DEBFCDBF26E0AEEF86
:10062000B2E001C01D92A83FB207E1F712E0A0E0DE
:10063000B1E0E4EEFFE202C005900D92AE3FB107DB
:10064000D9F713E0C7E0D3E004C02197FE010E9470
:10065000E415C630D107C9F70E94370F0C94E5178F
:100660000C940000AC0110923D0490918D06809195
:100670008C06FA01BF01641B750B20913D0430818B
:1006800030933D04931304C0921302C010923D04B2
:100690003081311104C0921721F0CB010895381731
:1006A000D1F33196E7CF0F931F93CF93DF938091D0
:1006B0008106882309F446C0D0E0C0E0813029F4E7
:1006C00082E080938106C1E4D4E080918206882391
:1006D00041F1209721F4C0918606D09187068E01C2
:1006E000CE010E943203892B29F42196F8018081E2
:1006F0008111F5CFF8018081882309F1C8010E949A
:100700003203F801E80FF91F8081882311F010826D
:100710003196F0938706E093860610938506009342
:1007200084068091840690918506892B59F081E09A
:1007300080938206DF91CF911F910F91089510E071
:1007400000E0EBCF80E0F6CF833081F028F48130F9
:1007500099F08230A9F008958730A9F08830C9F067
:100760008430B1F4809180008F7D03C0809180003F
:100770008F7780938000089584B58F7784BD089526
:1007800084B58F7DFBCF8091B0008F778093B000D0
:1007900008958091B0008F7DF9CFCF93DF93282FFC
:1007A00030E0F901E850FA4F8491F901EC51FA4F29
:1007B000D491F901E053FA4FC491CC23A1F08111F7
:1007C0000E94A403EC2FF0E0EE0FFF1FEA53FA4F54
:1007D000A591B491EC91ED2381E090E009F480E0E3
:1007E000DF91CF91089580E090E0FACF1F93CF93EF
:1007F000DF93282F30E0F901E850FA4F8491F90196
:10080000EC51FA4FD491F901E053FA4FC491CC2343
:10081000A9F0162F81110E94A403EC2FF0E0EE0F37
:10082000FF1FE454FA4FA591B4918FB7F894EC915F
:10083000111108C0D095DE23DC938FBFDF91CF91DB
:100840001F910895DE2BF8CFCF93DF9390E0FC014A
:10085000EC51FA4F249180539A4FFC0184918823E4
:10086000C9F090E0880F991FFC01EE54FA4FA59152
:10087000B491FC01E454FA4FC591D49161110DC0BB
:100880009FB7F8948C91209582238C93888128239C
:1008900028839FBFDF91CF910895623051F49FB7B5
:1008A000F8943C91822F809583238C93E8812E2BA2
:1008B000EFCF8FB7F894EC912E2B2C938FBFEACF0C
:1008C0001F93CF93DF93182FEB0161E00E94240464
:1008D000209739F460E0812FDF91CF911F910C9424
:1008E000F603CF3FD10511F461E0F5CFE12FF0E041
:1008F000E850FA4FE491E33031F140F4E130B1F0E7
:10090000E230E1F0C038D1057CF7E4CFE73029F1DF
:10091000E83059F1E430B1F7809180008062809333
:100920008000D0938B00C0938A0004C084B5806897
:1009300084BDC7BDDF91CF911F91089584B58062BA
:1009400084BDC8BDF7CF809180008068809380000F
:10095000D0938900C0938800EDCF8091B00080686B
:100960008093B000C093B300E5CF8091B000806267
:100970008093B000C093B400DDCF3FB7F89480916E
:10098000080390910903A0910A03B0910B0326B5C7
:10099000A89B05C02F3F19F00196A11DB11D3FBFB7
:1009A000BA2FA92F982F8827BC01CD01620F711D86
:1009B000811D911D42E0660F771F881F991F4A9580
:1009C000D1F708958F929F92AF92BF92CF92DF920C
:1009D000EF92FF924B015C010E94BD046B017C0110
:1009E0000E94BD046C197D098E099F09683E734001
:1009F00081059105A8F321E0821A9108A108B108A8
:100A000088EEC80E83E0D81EE11CF11C811491040D
:100A1000A104B10429F7FF90EF90DF90CF90BF9031
:100A2000AF909F908F9008950895DC01ED91FC9117
:100A30000190F081E02D0994EF92FF920F931F93A4
:100A4000CF93DF93209138042223E9F08C01609149
:100A50008C068091890690918A060E941505E09087
:100A60008906F0908A06E801FE016491662359F038
:100A7000D701ED91FC910190F081E02DC70109951E
:100A80002196892B89F7DF91CF911F910F91FF90CC
:100A9000EF900895DB0114964D915C9115976D913F
:100AA0007C91DC01ED91FC910280F381E02D0994B1
:100AB000CF93DF9320913804222391F0EC016091D1
:100AC0008C068091890690918A060E941505BE01C8
:100AD0008091890690918A06DF91CF910C944A0506
:100AE000DF91CF910895AF92BF92CF92DF92EF92B4
:100AF000FF920F931F93CF93DF936C017B018B01C8
:100B0000040F151FEB015E01AE18BF08C017D10717
:100B100059F06991D601ED91FC910190F081E02DA1
:100B2000C6010995892B79F7C501DF91CF911F91F6
:100B30000F91FF90EF90DF90CF90BF90AF9008950E
:100B4000FC01538D448D252F30E0842F90E0821BD3
:100B5000930B541710F0CF96089501970895FC0158
:100B6000918D828D981761F0A28DAE0FBF2FB11DB0
:100B70005D968C91928D9F5F9F73928F90E0089508
:100B80008FEF9FEF0895FC01918D828D981731F0C2
:100B9000828DE80FF11D858D90E008958FEF9FEF16
:100BA0000895FC01918D228D892F90E0805C9F4FEC
:100BB000821B91098F73992708958BE993E00E9416
:100BC000D10521E0892B09F420E0822F089580E0EF
:100BD00090E0892B29F00E94DD0581110C94000022
:100BE0000895FC01A48DA80FB92FB11DA35ABF4FC2
:100BF0002C91848D90E001968F739927848FA6891C
:100C0000B7892C93A089B1898C91837080648C936F
:100C1000938D848D981306C00288F389E02D80811E
:100C20008F7D80830895EF92FF920F931F93CF9350
:100C3000DF93EC0181E0888F9B8D8C8D98131AC017
:100C4000E889F989808185FF15C09FB7F894EE89FE
:100C5000FF896083E889F98980818370806480835B
:100C60009FBF81E090E0DF91CF911F910F91FF90A6
:100C7000EF900895F62E0B8D10E00F5F1F4F0F734E
:100C80001127E02E8C8D8E110CC00FB607FCFACF09
:100C9000E889F989808185FFF5CFCE010E94F105B1
:100CA000F1CFEB8DEC0FFD2FF11DE35AFF4FF082DA
:100CB0009FB7F8940B8FEA89FB8980818062CFCF40
:100CC000CF93DF93EC01888D8823B9F0AA89BB8983
:100CD000E889F9898C9185FD03C0808186FD0DC06E
:100CE0000FB607FCF7CF8C9185FFF2CF808185FF8F
:100CF000EDCFCE010E94F105E9CFDF91CF910895AC
:100D0000EF92FF921F93CF93DF93EC0167FD22C018
:100D100088816817F9F0E62E062E000CFF088981FD
:100D20008E151F0409F00CF441C0688310E08A8519
:100D3000181780F4B701012E02C0759567950A94C3
:100D4000E2F76170FE01E10FF11D82810E94F6035E
:100D50001F5FEDCF8F859889009729F00197F1F0FB
:100D60008EEF9FEF15C08D858E3008F08E50877006
:100D7000806480937C0080917A00806480937A0004
:100D800080917A0086FDFCCF809178009091790067
:100D9000DF91CF911F91FF90EF9008958D85DF91A6
:100DA000CF911F91FF90EF900C94CD038DEF9FEFAB
:100DB000EFCFDC01ED91FD918081ED91FD9190816E
:100DC000ED91FD916C9163708E2309F064609F2317
:100DD00009F06860E6EFF6E0E60FF11D65956595B0
:100DE0006D936D917D918D919D91099423C01AC051
:100DF00012C016C010C01EC009C014C013C006C067
:100E000019C009C00DC007C00DC014C062507040A9
:100E1000804090400BC0615070408040904006C0C0
:100E20006E5F01C06F5F7F4F8F4F9F4F9E938E937A
:100E30007E936E93089580910003909101030C942A
:100E4000D9068091FE029091FF020C94D9064F9230
:100E50005F926F927F928F929F92AF92BF92CF924A
:100E6000DF92EF92FF920F931F93CF93DF93CDB753
:100E7000DEB762970FB6F894DEBF0FBECDBF4C0150
:100E8000742E652E2B01AA86BB86CC86DD86EE8667
:100E9000FF86088B198B2A8B89E0FE013A96DE01CA
:100EA000119601900D928A95E1F78FEFF4018083FE
:100EB00099E0FE013196D401129601900D929A9517
:100EC000E1F791E0F401938784878587968781E035
:100ED00090E0908B87878401980128193909F401E3
:100EE000828590E00F5F1F4F2817390734F461E0C7
:100EF000F80181810E942404EFCF91E001C0990F95
:100F00008A95EAF79183858587FD0DC0871559F08D
:100F10009685913019F460E00E94F60360E0F401D8
:100F200085850E942404F401758666864786508A6A
:100F3000611004C060E0872D0E94F603F40166850D
:100F4000858562960FB6F894DEBF0FBECDBFDF91E8
:100F5000CF911F910F91FF90EF90DF90CF90BF90B6
:100F6000AF909F908F907F906F905F904F900C9478
:100F7000240480E008950F931F93CF93DF93EC0137
:100F8000062F142F62E0802F0E94240462E0812F3C
:100F90000E942404802F90E0FC01E053FA4FE4917A
:100FA000F0E0EE0FFF1FEA53FA4FA591B491B98319
:100FB000A883FC01EC51FA4F24912C83812F90E0FF
:100FC000FC01E053FA4FE491F0E0EE0FFF1FEA530B
:100FD000FA4F459154915B834A83FC01EC51FA4FDF
:100FE000E491ED831F82188619861A868BE39FE1B0
:100FF0000197F1F78C91282391E009F490E0DA0150
:101000008C91E82309F092609E83BE01802F0E949C
:10101000B907082FBE01812F0E94B907800F8B8767
:10102000DF91CF911F910F9108950E945303882360
:1010300059F081E080938206809383068091840634
:10104000909185060C9412151092830660E070E072
:10105000CB0108950E9415080C941508CF92DF92D9
:10106000EF92FF920E9415086B017C018FEFC8166A
:10107000D104E104F10409F040F4B6018BE00E94D0
:101080006004D0921B02C0921A02FF90EF90DF9092
:10109000CF900895FB0101900020E9F73197AF014F
:1010A000461B570BDC01ED91FC910280F381E02D92
:1010B0000994809138048823A1F060918B06809177
:1010C000890690918A060E94150580914004882324
:1010D00041F064E372E08091890690918A060E9453
:1010E0004A0810923F041092380480E008958F92CD
:1010F0009F92AF92BF92EF92FF920F931F93CF9365
:10110000DF93CDB7DEB7A1970FB6F894DEBF0FBE61
:10111000CDBF7C01FA01CB0119A2223008F42AE0EC
:101120008E010F5D1F4F822E912CB12CA12CBF017F
:10113000A50194010E94C215F901CA016A300CF59B
:10114000605DD8016E938D01232B242B252B79F71D
:1011500090E080E0109721F0BD01C7010E944A088D
:10116000A1960FB6F894DEBF0FBECDBFDF91CF9131
:101170001F910F91FF90EF90BF90AF909F908F9035
:101180000895695CDECF90913804911110C091E010
:101190009093380490933F04482F50E070E060E053
:1011A0002AE08091890690918A060C947708089528
:1011B000CF93DF939091380491110AC0EB010E9404
:1011C000C308CE010E941C05DF91CF910C945908F1
:1011D00080E0DF91CF91089568E670E083E00C94A1
:1011E000D808CF92DF92EF92FF92CF93DF932091B6
:1011F0003804222359F16C0160918C068091890694
:1012000090918A060E941505C0918906D0918A06A0
:101210000D2C000CEE08FF082AE0B701A601F7FE2E
:101220000CC06DE2CE010E94150544275527BA0176
:101230004C195D096E097F092AE0CE01DF91CF913B
:10124000FF90EF90DF90CF900C947708DF91CF91D3
:10125000FF90EF90DF90CF900895CF93DF93209190
:101260003804222391F0EC0160918C06809189066C
:1012700090918A060E941505BE0180918906909181
:101280008A06DF91CF910C944A08DF91CF9108959F
:101290000F931F93CF93DF93EC018881998100977F
:1012A00059F02A813B812617370730F081E0DF9122
:1012B000CF911F910F9108958B016F5F7F4F0E9417
:1012C0000F17009759F0998388831B830A832C8119
:1012D0003D81232B59F7FC011082E8CF80E0E7CF56
:1012E000EF92FF920F931F93CF93DF9361157105D8
:1012F00041F480E0DF91CF911F910F91FF90EF902B
:10130000089541155105B1F07B01EC010C811D815F
:10131000040F151FB8010E944809882351F3288142
:1013200039818C819D81B701820F931F0E94DE1746
:101330001D830C8381E0DECFCF93DF93EC018881A6
:101340009981009711F00E948616198218821D82D9
:101350001C821B821A82DF91CF910895CF93DF9375
:10136000EC01FB0101900020E9F73197AF01461B2A
:10137000570B0E947009811103C0CE010E949C0985
:10138000CE01DF91CF910895CF93DF93EC01FB0164
:1013900044815581608171810E947009811103C06F
:1013A000CE010E949C09CE01DF91CF910895EF926A
:1013B000FF920F931F93CF93DF93EC017B018A0180
:1013C000BA010E94480981110BC0CE010E949C09FC
:1013D000CE01DF91CF911F910F91FF90EF90089573
:1013E0001D830C83B701888199810E94DE17F0CF9D
:1013F000EF92FF920F931F93CF93DF93CDB7DEB79A
:1014000062970FB6F894DEBF0FBECDBF8C01CB0143
:10141000F8011182108213821282158214824AE02E
:101420009E012F5F3F4F7901B9010E943915F701E5
:1014300001900020E9F73197AF014E195F09B7011C
:10144000C8010E94D70962960FB6F894DEBF0FBE9E
:10145000CDBFDF91CF911F910F91FF90EF90089535
:10146000FB01DC0111961C921E9213961C921E9297
:10147000129715961C921E9214978617970749F09B
:10148000608171816115710521F0448155810C9451
:10149000D7090895FC0111821082138212821582ED
:1014A0001482FB0101900020E9F73197AF01461B40
:1014B000570B0C94D709FC0180819181009711F0A2
:1014C0000C94861608950F931F93CF93DF9300D04B
:1014D00000D000D0CDB7DEB72091380421111EC056
:1014E0008C018CE00E94C308B801CE0101960E94D5
:1014F000300ACE0101960E945805CE0101960E9445
:101500005B0A0E94590826960FB6F894DEBF0FBEFC
:10151000CDBFDF91CF911F910F91089580E0F3CF60
:101520000F931F93CF93DF9300D000D000D0CDB79F
:10153000DEB70E945303882371F181E08093820615
:1015400080938306009184061091850667E372E01C
:10155000C8010E94D517892B19F581E080930203F9
:1015600060911A0270911B02CE0101960E94F80947
:10157000CE0101960E94630ACE0101960E945B0A89
:1015800026960FB6F894DEBF0FBECDBFDF91CF9188
:101590001F910F9108951092830610E000E0D6CFBE
:1015A0006DE372E0C8010E94D517892B49F71092AC
:1015B0000203E6CF0F931F93CF93DF9300D000D0A9
:1015C00000D0CDB7DEB72091380421112FC08C0197
:1015D00088E00E94C308B801CE0101960E94300A3B
:1015E00080913804882389F060918C068091890667
:1015F00090918A060E941505BE016F5F7F4F809112
:10160000890690918A060E944A05CE0101960E94A1
:101610005B0A0E94590826960FB6F894DEBF0FBEEB
:10162000CDBFDF91CF911F910F91089580E0F3CF4F
:10163000CF92DF92EF92FF920F931F93CF93DF939E
:10164000CDB7DEB72C970FB6F894DEBF0FBECDBF77
:101650000E945303882309F471C081E080938206BD
:1016600080938306009184061091850661E472E000
:10167000C8010E94D517892B09F065C080E00E943F
:10168000C3088DEA95E00E941C056FE873E0CE0167
:1016900001960E94300ACE0101960E945805CE01A3
:1016A00001960E945B0A8AE995E00E941C0582E08F
:1016B00090E00E94F10885EF92E00E942D0966E417
:1016C00072E0CE0101960E944A0A65E973E0CE01FC
:1016D00001960E94C409BC01CE0107960E94300AFF
:1016E00080913804882389F060918C068091890666
:1016F00090918A060E941505BE01695F7F4F809117
:10170000890690918A060E944A05CE0107960E949A
:101710005B0ACE0101960E945B0A0E9459082C9632
:101720000FB6F894DEBF0FBECDBFDF91CF911F91F2
:101730000F91FF90EF90DF90CF9008951092830665
:1017400010E000E093CF6EE472E0C8010E94D5176C
:10175000892B41F480E00E94C30888E592E00E9452
:101760002D09DBCF62E672E0C8010E94D517892BF4
:1017700081F580E00E94C30887E692E00E942D096F
:101780000E9415086B017C0180913804882329F29E
:1017900060918C068091890690918A060E941505B9
:1017A0000091890610918A062AE0B701A601F7FE8A
:1017B0000CC06DE2C8010E94150544275527BA01E7
:1017C0004C195D096E097F092AE0C8010E9477085B
:1017D000A4CF6DE372E0C8010E94D517892B51F4A4
:1017E00070E060E08BE00E94600410921B02109297
:1017F0001A0295CF6CE672E0C8010E94D517892BBA
:1018000009F08DCF80E00E94C30883E995E00E9433
:101810001C0587E895E00E941C0589E795E00E9479
:101820001C0586E695E00E941C050E94590880E090
:101830000E94C30880E695E00E941C0588EB9BE0AF
:101840000E94F1086BE473E0CE0101960E94300A19
:10185000CE0101960E945805CE0101960E945B0AB6
:1018600088E595E00E941C0565E573E0CE010196D0
:101870000E94300ACE0101960E945805CE010196C1
:101880000E945B0A0E94590880E00E94C30880E61B
:1018900095E00E941C0589EB9BE00E94F10867E639
:1018A00073E0CE0101960E94300ACE0101960E949B
:1018B0005805CE0101960E945B0A88E595E00E94DA
:1018C0001C0561E773E0CE0101960E94300ACE014B
:1018D00001960E945805CE0101960E945B0A0E9463
:1018E000590864E275E080E00E94D8086FEE74E069
:1018F00080E00E94D8086BEA74E080E00E94D8087B
:1019000067E674E080E00E94D80863E374E080E05A
:101910000E94D8086FEF73E080E00E94D8086BEC5B
:1019200073E080E00E94D80867E973E080E00E94DD
:10193000D80862E673E080E00E94D8086EE273E0A7
:1019400080E00E94D80869EF72E080E00E94D80829
:1019500061EC72E080E00E94D80869E872E080E003
:101960000E94D80865E272E080E00E94D80865EC29
:1019700071E080E00E94D80863E571E080E00E9499
:10198000D80867EC70E080E00E94D80860EC70E056
:1019900080E00E94D80868E770E081E00E94D808E3
:1019A000BECE1F920F920FB60F9211242F933F932A
:1019B0008F939F93AF93BF938091040390910503FE
:1019C000A0910603B09107033091030323E0230F96
:1019D0002D3758F50196A11DB11D20930303809367
:1019E000040390930503A0930603B093070380912B
:1019F000080390910903A0910A03B0910B0301968B
:101A0000A11DB11D8093080390930903A0930A03BD
:101A1000B0930B03BF91AF919F918F913F912F9105
:101A20000F900FBE0F901F90189526E8230F029677
:101A3000A11DB11DD2CF1F920F920FB60F9211248C
:101A40002F933F934F935F936F937F938F939F93C6
:101A5000AF93BF93EF93FF93E0910201F0910301E5
:101A60000995FF91EF91BF91AF919F918F917F91D8
:101A70006F915F914F913F912F910F900FBE0F90FB
:101A80001F9018951F920F920FB60F9211242F934B
:101A90003F934F935F936F937F938F939F93AF93F6
:101AA000BF93EF93FF93E0910001F091010109953D
:101AB000FF91EF91BF91AF919F918F917F916F9126
:101AC0005F914F913F912F910F900FBE0F901F90FC
:101AD00018951F920F920FB60F9211242F933F93D8
:101AE0004F935F936F937F938F939F93AF93BF9326
:101AF000EF93FF938BE993E00E94F105FF91EF9143
:101B0000BF91AF919F918F917F916F915F914F9115
:101B10003F912F910F900FBE0F901F9018951F921D
:101B20000F920FB60F9211242F938F939F93EF93E1
:101B3000FF93E091AB03F091AC038081E091B1039E
:101B4000F091B20382FD1BC090818091B4038F5F3E
:101B50008F732091B503821741F0E091B403F0E058
:101B6000E556FC4F958F8093B403FF91EF919F91C1
:101B70008F912F910F900FBE0F901F90189580811D
:101B8000F4CF8F929F92AF92BF92CF92DF92EF925B
:101B9000FF920F931F93CF93DF93CDB7DEB72997B3
:101BA0000FB6F894DEBF0FBECDBF10929E03109209
:101BB0009D0388EE93E0A0E0B0E080939F039093B4
:101BC000A003A093A103B093A20386E292E09093B6
:101BD0009C0380939B0385EC90E09093A8038093F3
:101BE000A70384EC90E09093AA038093A90380EC70
:101BF00090E09093AC038093AB0381EC90E09093E2
:101C0000AE038093AD0382EC90E09093B003809399
:101C1000AF0386EC90E09093B2038093B1031092EF
:101C2000B4031092B5031092B6031092B70310924A
:101C30008F0610928E068BE993E090938A0680932C
:101C40008906109240048CE280938C068BE380938B
:101C50008B068FE280938D0680E480933B048FE3B4
:101C600080933C0410923A041092850610928406E8
:101C7000109287061092860681E080938206E0E942
:101C8000F6E01192119286E0E43FF807D1F7109246
:101C90003F0463E772E085E993E00E944A0A64E941
:101CA00072E08FE893E00E944A0A48E067E083E828
:101CB00093E00E94BB074AE069E087E793E00E9457
:101CC000BB078CE0E3E8F3E0AFE3B3E001900D92F3
:101CD0008A95E1F76BEB72E08BE493E00E944A0A8D
:101CE00089E1882E8CEF982EAA24AA94BA2C80928F
:101CF000510390925203A0925303B092540364ECA8
:101D000072E085E593E00E944A0A8CE0E7E7F3E0A1
:101D1000ABE5B3E001900D928A95E1F761ED72E0D9
:101D200087E693E00E944A0A80926D0390926E03C8
:101D3000A0926F03B092700364EC72E081E793E0CD
:101D40000E944A0A82E0898383E08A8384E08B834D
:101D50008FEF8C838D838E838F838887FE013196EE
:101D600090E080E04F01219127FF6DC08987A98015
:101D7000BA80CB80DC80ED80FE800F8118852985BC
:101D800045E050E061E070E08EE293E00E942707BA
:101D900082E0898383E08A8384E08B838FEF8C8366
:101DA0008D838E838F838887F40190E080E021917A
:101DB00027FF50C08987A980BA80CB80DC80ED8066
:101DC000FE800F811885298546E050E061E070E0D3
:101DD0008DE193E00E94270782E0898383E08A8374
:101DE00084E08B838FEF8C838D838E838F838887B2
:101DF000F40190E080E0219127FF33C08987A9801A
:101E0000BA80CB80DC80ED80FE800F81188529852B
:101E10004CE050E061E070E08CE093E00E94270726
:101E200029960FB6F894DEBF0FBECDBFDF91CF91DC
:101E30001F910F91FF90EF90DF90CF90BF90AF90E8
:101E40009F908F90089501968830910509F08BCF6F
:101E500088E08CCF01968830910509F0A8CF88E002
:101E6000A9CF01968830910531F688E0C7CFCF938E
:101E7000DF93CDB7DEB768970FB6F894DEBF0FBE1D
:101E8000CDBF789484B5826084BD84B5816084BD03
:101E900085B5826085BD85B5816085BD80916E0008
:101EA000816080936E001092810080918100826039
:101EB0008093810080918100816080938100809176
:101EC00080008160809380008091B1008460809365
:101ED000B1008091B00081608093B00080917A0061
:101EE000846080937A0080917A00826080937A0087
:101EF00080917A00816080937A0080917A00806876
:101F000080937A001092C100E091AB03F091AC0392
:101F100082E08083E091A703F091A8031082E09112
:101F2000A903F091AA0380E180831092B303E091AA
:101F3000AF03F091B00386E08083E091AD03F091B0
:101F4000AE03808180618083E091AD03F091AE03A8
:101F5000808188608083E091AD03F091AE03808141
:101F600080688083E091AD03F091AE0380818F7D26
:101F7000808304E311E064E0E62E61E0F62E62E087
:101F8000D7018C910E942404B8E0EB0EF11C0E15D1
:101F90001F05A9F761E08BE00E94240460911A02FA
:101FA00070911B028BE00E946004809138048111C3
:101FB00009C083E00E94C3088AED92E00E942D09C7
:101FC0000E94590888E19BE09093910680939006C7
:101FD00080E99AE090939506809394068CEE98E0C1
:101FE00090939706809396068AE298E090939B06DA
:101FF00080939A068EE298E09093A9068093A806B3
:1020000088248A94912C80910203882309F45FC06C
:1020100004E011E0F80180810E94CD036C01D80139
:1020200016968D919C911797C816D90609F449C048
:1020300012966D917C916433B8E07B070CF043C13C
:10204000C114D10409F015C1F80164817581CE0174
:102050000D960E94F809D80112966D917C91CE01DF
:1020600001960E94F809BE016F5F7F4FCE0107966F
:102070000E94300A6FEE72E0CE0107960E94AE0910
:10208000BE01635F7F4F0E94C409BC01CE0143962D
:102090000E94300ACE0143960E94DA0ACE0143968E
:1020A0000E945B0ACE0107960E945B0ACE01019650
:1020B0000E945B0ACE010D960E945B0AF801D7824E
:1020C000C682085F1F4FE016F10609F0A3CF80918A
:1020D0000203882309F45EC004E311E0D8018D9166
:1020E0009C9111978130910509F004C112966C9171
:1020F0008EE293E00E9480066C01F8018085918554
:10210000C816D90609F43FC0C114D104C9F56681C7
:102110007781CE010D960E94F809D80114966D9131
:102120007C91CE0101960E94F809BE016F5F7F4F3E
:10213000CE0107960E94300A6FEE72E0CE0107963C
:102140000E94AE09BE01635F7F4F0E94C409BC01BB
:10215000CE0143960E94300ACE0143960E94DA0ACD
:10216000CE0143960E945B0ACE0107960E945B0A4D
:10217000CE0101960E945B0ACE010D960E945B0A79
:10218000F801D186C086065F1F4FB2E00A311B07F7
:1021900009F0A4CF0FE313E0D12CC12CF801838503
:1021A000823008F035C2F894C8010E94D906F801BF
:1021B00087819085A185B285789432E0B595A79501
:1021C000979587953A95D1F742895389648975899E
:1021D000481759076A077B070CF018C3828B938B4B
:1021E000A48BB58B80910203882349F1B601685412
:1021F000744FCE010D960E94F809BE01635F7F4FB8
:10220000CE0107960E94300A67EF72E0CE01079672
:102210000E94AE09BC01CE0101960E94300ACE0197
:1022200001960E94DA0ACE0101960E945B0ACE0155
:1022300007960E945B0ACE010D960E945B0AF1E0B0
:10224000CF16D10409F003C283E10E94CD03892B8C
:1022500009F002C280911A0290911B0240968F3FB2
:10226000910511F00CF0D6C190931B0280931A02D5
:10227000D5C1B1E0CB16D10409F020CFCE01019633
:102280000E94F809BE016F5F7F4FCE0107960E9442
:10229000300A61EF72E0CE0107960E94AE09BC01E0
:1022A000CE010D960E94300ACE010D960E94DA0AE8
:1022B000CE010D960E945B0ACE0107960E945B0A32
:1022C000CE010196F9CEC114D10409F4BDCEB1E01E
:1022D000CB16D10409F0F2CECE0101960E94F80986
:1022E000BE016F5F7F4FCE0107960E94300A64EFF8
:1022F00072E0D1CF8230910509F007C112966C913E
:102300008DE193E00E9480066C01F8018085918543
:10231000C816D90609F437CFC114D10409F03FC05B
:10232000848195818A399840D1F5D80116966D91AE
:102330007C91CE010D960E94F809F80164817581A7
:10234000CE0101960E94F809BE016F5F7F4FCE015A
:1023500007960E94300A6FEE72E0CE0107960E9447
:10236000AE09BE01635F7F4F0E94C409BC01CE016C
:1023700043960E94300ACE0143960E94DA0ACE01AB
:1023800043960E945B0ACE0107960E945B0ACE012B
:1023900001960E945B0ACE010D960E945B0AD8014D
:1023A00014966D917C911597CB01825D97400297B1
:1023B000E8F5C114D10409F06CC016966D917C91BA
:1023C000CE010D960E94F809F80164817581CE0155
:1023D00001960E94F809BE016F5F7F4FCE010796FC
:1023E0000E94300A6FEE72E0CE0107960E94AE099D
:1023F000BE01635F7F4F0E94C409BC01CE014396BA
:102400000E94300ACE0143960E94DA0ACE0143961A
:102410000E945B0ACE0107960E945B0ACE010196DC
:102420000E945B0ACE010D960E945B0AD8011496A9
:102430006D917C91CB0188599840029708F0A0CE0D
:10244000C114D10409F04EC0CE0101960E94F809D2
:10245000BE016F5F7F4FCE0107960E94300A67EF83
:1024600072E0CE0107960E94AE09BC01CE010D9626
:102470000E94300ACE010D960E94DA0ACE010D9616
:102480000E945B0ACE0107960E945B0ACE0101966C
:1024900075CEF1E0CF16D10449F6CE0101960E9427
:1024A000F809BE016F5F7F4FCE0107960E94300A88
:1024B00061EF72E0CE0107960E94AE09BC01CE0129
:1024C0000D960E94300ACE010D960E94DA0ACE01C6
:1024D0000D960E945B0ACE0107960E945B0ACE0110
:1024E0000196A2CFB1E0CB16D10409F049CECE01BE
:1024F00001960E94F809BE016F5F7F4FCE010796DB
:102500000E94300A61EF72E0ACCF039709F03BCE36
:1025100012966C918CE093E00E9480066C01F801A9
:1025200080859185C816D90609F42DCEC114D10431
:1025300009F03FC066817781CE010D960E94F809AF
:10254000D80114966D917C91CE0101960E94F809F4
:10255000BE016F5F7F4FCE0107960E94300A6FEE7B
:1025600072E0CE0107960E94AE09BE01635F7F4F05
:102570000E94C409BC01CE0143960E94300ACE01DC
:1025800043960E94DA0ACE0143960E945B0ACE016E
:1025900007960E945B0ACE0101960E945B0ACE015B
:1025A0000D960E945B0AD8011996DC92CE9218977C
:1025B000EACDB1E0CB16D104B1F764817581CE01CB
:1025C00001960E94F809BE016F5F7F4FCE0107960A
:1025D0000E94300A61EF72E0CE0107960E94AE09B8
:1025E000BC01CE010D960E94300ACE010D960E94CC
:1025F000DA0ACE010D960E945B0ACE0107960E9470
:102600005B0ACE010196CDCFCC24C394D12CC6CD8C
:10261000F894CDCD90921B0280921A02A0901A02DB
:10262000B0901B02B5018BE00E9460048091020310
:10263000882391F0B501CE0101960E94F809CE01E0
:1026400001960E94630ACE0101960E945B0A045E15
:102650001F4FCA94CD28C1F682E10E94CD03892B79
:1026600091F583E10E94CD03892B69F580910203E6
:10267000882309F41EC180911A0290911B02892BB4
:1026800009F012C180E890E090931B0280931A0237
:1026900000911A0210911B02B8018BE00E946004A5
:1026A000B801CE0101960E94F809CE0101960E9460
:1026B000630ACE0101960E945B0A64EF71E080E03C
:1026C00090E00E94E2043324339480913F0481110E
:1026D0005FC18091890690918A06DC01ED91FC91A1
:1026E0000084F185E02D0995892B09F451C1809171
:1026F000890690918A06DC01ED91FC910084F185B8
:10270000E02D0995A12C22E0B22E8115924064F4AF
:102710008091890690918A06DC01ED91FC910084FC
:10272000F185E02D09955C010091890610918A06DA
:1027300091E8692E94E0792E2301D12CC12CAC14A0
:10274000BD0409F0D4C010E000E0A016B10609F401
:10275000BCCFD3019D913D011092810630918D0631
:1027600020913E0490933E04931304C0921302C040
:1027700010923E0480913A04E82FF0E040918B06DD
:10278000E85CFB4F9413EBC0321709F4E8C01186E4
:10279000882321F03092810610923E0410923A0470
:1027A0001092850610928406109287061092860673
:1027B00030928206D0908106B1E0DB12E6C00E9422
:1027C0005303882309F4D5C0D0928206D0928306A1
:1027D00080918406909185060E94F41480933904B8
:1027E000823308F0CBC020918306222309F4C6C0AF
:1027F000FC01FF27EE0FFF1FE057F94F0190F0811A
:10280000E02D309709F4BAC00995BFC08417950729
:10281000A607B7070CF01BCF828B938BA48BB58BCD
:1028200080910203882349F1B6016854744FCE01A8
:102830000D960E94F809BE01635F7F4FCE01079697
:102840000E94300A6AEF72E0CE0107960E94AE093C
:10285000BC01CE0101960E94300ACE0101960E9471
:10286000DA0ACE0101960E945B0ACE0107960E9409
:102870005B0ACE010D960E945B0AF1E0CF16D104EF
:1028800009F0E5CE83E10E94CD03892B09F0E4CE67
:1028900080911A0290911B02409797FFE5CC10920D
:1028A0001B0210921A02BACE10921B0210921A0248
:1028B000EFCE05E010E060E870E08BE00E9460047D
:1028C00064E670E080E090E00E94E20470E060E086
:1028D0008BE00E94600464E670E080E090E00E947B
:1028E000E2040150110939F70C940000E6CE2FB72D
:1028F000F8948091040390910503A0910603B09190
:1029000007032FBFF80180879187A287B387D8017B
:10291000ED91FC910284F385E02DC801099597FFA4
:1029200044C02FB7F8948091040390910503A091BF
:102930000603B09107032FBFF801408551856285DA
:102940007385841B950BA60BB70B4481558166815B
:10295000778184179507A607B707C8F2F4CE918749
:102960008F5F80933A0490913C04891708F016CF4A
:1029700021CF1092830690E080E030CFE0918E0668
:10298000F0918F06309709F03FCF0F5F1F4FDDCEDC
:1029900080E090E0892B09F436CB0E94DD05882386
:1029A00009F42ECB0E9400002BCBF20181932F0162
:1029B000FFEFCF1ADF0AC3CE81E793E00E945B0AE4
:1029C00087E693E00E945B0A85E593E00E945B0A3C
:1029D0008BE493E00E945B0A8FE893E00E945B0A1D
:1029E00085E993E00C945B0AFC0188279927E89419
:1029F00021912032E9F3293010F02E30C8F32B3228
:102A000041F02D3239F4689404C00E945915820FA8
:102A1000911D219120532A30C0F31EF49095819589
:102A20009F4F08951F93FC0199278827BC01E894C4
:102A300011911032E9F3193010F01E30C8F31B3237
:102A400051F01D3249F4689406C00E944415610F8C
:102A5000711D811D911D119110531A30B0F33EF478
:102A600090958095709561957F4F8F4F9F4F1F91E7
:102A70000895BB274A3031F4992322F4BDE29095A2
:102A800081959F4F0C946215592F482F372F262F71
:102A9000660F771F881F991F660F771F881F991F62
:102AA000620F731F841F951F660F771F881F991F62
:102AB00008957AE0979F902D879F802D910D112486
:102AC0000895BB27FB015527AA27880F991FAA1F26
:102AD000A41710F0A41B83955051B9F7A05DAA3339
:102AE00008F0A95DA193009779F7B111B193119204
:102AF000CB010C947B15DC01FC01672F71917723CE
:102B0000E1F7329704C07C916D9370836291AE17A8
:102B1000BF07C8F308952F923F924F925F926F9232
:102B20007F928F929F92AF92BF92CF92DF92EF925D
:102B3000FF920F931F93CF93DF93CDB7DEB7CA1BDE
:102B4000DB0B0FB6F894DEBF0FBECDBF09942A8809
:102B5000398848885F846E847D848C849B84AA84B1
:102B6000B984C884DF80EE80FD800C811B81AA813E
:102B7000B981CE0FD11D0FB6F894DEBF0FBECDBF09
:102B8000ED010895A1E21A2EAA1BBB1BFD010DC089
:102B9000AA1FBB1FEE1FFF1FA217B307E407F5070D
:102BA00020F0A21BB30BE40BF50B661F771F881FE9
:102BB000991F1A9469F760957095809590959B017F
:102BC000AC01BD01CF010895EE0FFF1F0590F491F8
:102BD000E02D09940F931F93CF93DF9382309105DB
:102BE00010F482E090E0E091F606F091F70630E014
:102BF00020E0B0E0A0E0309799F42115310509F408
:102C00004AC0281B390B24303105D8F58A819B81B5
:102C10006115710589F1FB0193838283FE0111C067
:102C2000408151810281138148175907E0F048170C
:102C3000590799F4109761F012960C931297139616
:102C40001C933296CF01DF91CF911F910F91089580
:102C50000093F6061093F706F4CF2115310551F0D5
:102C60004217530738F0A901DB019A01BD01DF01CA
:102C7000F801C1CFEF01F9CF9093F7068093F606E4
:102C8000CDCFFE01E20FF31F8193919322503109C2
:102C900039832883D7CF2091F4063091F506232B72
:102CA00041F420911E0230911F023093F5062093CB
:102CB000F40620911C0230911D022115310541F4CA
:102CC0002DB73EB74091200250912102241B350BB5
:102CD000E091F406F091F506E217F307A0F42E1B3D
:102CE0003F0B2817390778F0AC014E5F5F4F241770
:102CF000350748F04E0F5F1F5093F5064093F406DA
:102D0000819391939FCFF0E0E0E09CCFCF93DF934E
:102D10000097E9F0FC01329713821282A091F60627
:102D2000B091F706ED0130E020E01097A1F420818A
:102D30003181820F931F2091F4063091F5062817F8
:102D4000390709F061C0F093F506E093F406DF91CE
:102D5000CF910895EA01CE17DF07E8F54A815B813C
:102D60009E0141155105B1F7E901FB83EA834991C1
:102D70005991C40FD51FEC17FD0761F48081918133
:102D80000296840F951FE90199838883828193813C
:102D90009B838A83F0E0E0E012968D919C911397DB
:102DA0000097B9F52D913C911197CD010296820FB4
:102DB000931F2091F4063091F5062817390739F64C
:102DC000309751F51092F7061092F606B093F5067B
:102DD000A093F406BCCFD383C28340815181840F7A
:102DE000951FC817D90761F44E5F5F4F888199819D
:102DF000480F591F518340838A819B81938382832B
:102E00002115310509F0B0CFF093F706E093F606EF
:102E10009ECFFD01DC01C0CF13821282D7CFB0E07C
:102E2000A0E0E5E1F7E10C948D158C01009751F4D9
:102E3000CB010E94EA158C01C801CDB7DEB7E0E1F5
:102E40000C94A915FC01E60FF71F9C0122503109D3
:102E5000E217F30708F49DC0D901CD91DC911197D9
:102E6000C617D70798F0C530D10530F3CE010497C7
:102E70008617970708F3C61BD70B2297C193D193E8
:102E80006D937C93CF010E948616D6CF5B01AC1A5E
:102E9000BD0A4C018C0E9D1EA091F606B091F7065E
:102EA000512C412CF12CE12C109731F58091F40636
:102EB0009091F5068815990509F05CC046165706ED
:102EC00008F058C080911C0290911D02009741F4B7
:102ED0008DB79EB74091200250912102841B950B23
:102EE000E817F90708F055C0F093F506E093F406EB
:102EF000F90171836083A0CF8D919C9111971296F7
:102F00006C90129713967C901397A815B90559F5F4
:102F10006C0142E0C40ED11CCA14DB0420F1AC01E8
:102F20004A195B09DA011296159780F06282738262
:102F300051834083D9016D937C93E114F10471F0C6
:102F4000D7011396FC93EE93129776CF22968C0FAF
:102F50009D1FF90191838083F301EFCFF093F70672
:102F6000E093F60669CF4816590608F42C017D0156
:102F7000D3019ACFCB010E94EA157C01009749F05A
:102F8000AE01B8010E94CC17C8010E9486168701C5
:102F900053CF10E000E050CFFB01DC0102C00190F4
:102FA0000D9241505040D8F70895FB01DC018D91FE
:102FB000019080190110D9F3990B0895FB01DC01F0
:102FC00001900D920020E1F7089513E0C7E0D3E0EF
:102FD00004C0FE010E94E4152196C830D107C9F74C
:042FE000F894FFCF93
:102FE400140514051300D0070100FFFF1200D107D8
:102FF4000100FFFF100034080100FFFF0E00340839
:103004000000FFFF110035080100FFFF0F00350825
:103014000000FFFF010000009B080000FFFF01000B
:1030240001009B080100FFFF010002009B08020051
:10303400FFFF010003009B080300FFFF01000400E1
:103044009B080400FFFF010005009B080500FFFF2B
:10305400010006009B080600FFFF010007009B0813
:103064000700FFFF020000009A080000FFFF0200B3
:1030740001009A080100FFFF020002009A08020002
:10308400FFFF020003009A080300FFFF0200040090
:10309400D2070100FFFF02000500D3070100FFFF74
:1030A4000200060098080100FFFF020007009908CB
:1030B4000100FFFF03000000D4070100FFFF03002D
:1030C4000100D5070100FFFF03000200D60701003D
:1030D400FFFF03000300D7070100FFFF0300040004
:1030E400D8070100FFFF03000500D9070100FFFF17
:1030F40003000600DA070100FFFF20000000F806C5
:1031040080000000000013067305A0056006D105C9
:10311400AF05C3050D0A00535441525400454E44B3
:1031240000494E495400415554484F523D005343C1
:10313400414E535441544500535441544553434123
:103144004E0050494E4700504F4E4700434F4E46A5
:103154004947003336306238313265663130643382
:103164003365353435376565376234313238343553
:10317400333666007B61646636646663662D64621A
:1031840064632D346534652D383035352D656134EF
:103194003335643939663661657D004D494E535F78
:1031A400454E4300535041445F454E434F444552BE
:1031B400004241524F5F454E4300415454414348FD
:1031C400494E472043414C4C4241434B5321002C30
:0E31D400002C30002C32002C31002C2D31004C
:00000001FF
