:100000000C9473030C94CD0F0C94A60F0C949B03CB
:100010000C949B030C949B030C949B030C949B03E8
:100020000C949B030C949B030C949B030C949B03D8
:100030000C949B030C949B030C949B030C949B03C8
:100040000C945C0F0C949B030C941A100C94F40FFA
:100050000C949B030C949B030C949B030C949B03A8
:100060000C949B030C949B03554E4B4E4F574E20C4
:10007000434F4D4D414E4400434F4E46494700418A
:1000800044442C31332C5649525455414C5F504F07
:100090005745522C55382C52572C5669727475613D
:1000A0006C20506F7765722C4546495320766972F3
:1000B0007475616C20706F7765722030206F7220CC
:1000C000312C504552534953543D31004144442C46
:1000D00031322C4241434B4C494748545F425249CC
:1000E0002C55382C52572C4261636B6C69676874CD
:1000F0002C45464953206261636B6C6967687420C4
:100100006272696768746E6573732066726F6D20C2
:100110003020746F203235352C504552534953549A
:100120003D3100494E5055542C302C434F4E4649DA
:10013000475552455F50414E454C5F5354415455CD
:10014000532C53595354454D2C535041445F5649F9
:10015000525455414C5F504F5745522C55495F54AE
:100160005950453D332C435553544F4D5F545950CE
:10017000453D504F57455200494E5055542C323250
:1001800030332C524E475F524F542C524F544152F1
:10019000592C535041445F454E434F4445525F4EA6
:1001A0004F4143432C504F535F4E414D45533D35D6
:1001B000233130233230233430233830233136306A
:1001C00023333230233634302C504F535F56414C5A
:1001D0005545533D302331233223332334233523F4
:1001E0003623372C504F535F554956414C55455394
:1001F0003D2D36232D34232D322330233223342337
:1002000036233800494E5055542C323230322C4D62
:100210004F44455F524F542C524F544152592C5326
:100220005041445F454E434F4445525F4E4F41431A
:10023000432C504F535F4E414D45533D4150502349
:10024000564F52234D415023504C4E2C504F535F2C
:1002500056414C5545533D302331233223332C50E6
:100260004F535F554956414C5545533D2D34232D31
:10027000322332233400494E5055542C323230311F
:100280002C4241524F5F524F542C524F54415259BD
:100290002C535041445F454E434F4445525F4E4FAF
:1002A0004143432C504F535F4E414D45533D494EC2
:1002B000234850412C504F535F56414C5545533DB8
:1002C0003123302C504F535F554956414C554553BF
:1002D0003D2D32233200494E5055542C32323030AD
:1002E0002C4D494E535F524F542C524F544152594A
:1002F0002C535041445F454E434F4445525F4E4F4F
:100300004143432C504F535F4E414D45533D524165
:1003100044494F234241524F2C504F535F56414C5A
:100320005545533D3023312C504F535F554956416D
:100330004C5545533D2D32233200494E5055542CD7
:10034000323130312C535243322C535749544348A5
:10035000332C535749544348332C504F535F4E412D
:100360004D45533D4144463223564F5232234F466A
:100370004600494E5055542C323130302C535243A4
:10038000312C535749544348332C5357495443480D
:10039000332C504F535F4E414D45533D4144463100
:1003A00023564F5231234F464600494E5055542C48
:1003B000323031302C544552522C5055534842550E
:1003C00054544F4E2C535041445F5055534842555E
:1003D00054544F4E2C55495F545950453D320049B5
:1003E0004E5055542C323030392C504F532C5055E0
:1003F0005348425554544F4E2C535041445F50552E
:100400005348425554544F4E2C55495F545950450A
:100410003D3200494E5055542C323030382C444136
:1004200054412C50555348425554544F4E2C535020
:1004300041445F50555348425554544F4E2C5549F2
:100440005F545950453D3200494E5055542C32307E
:1004500030372C4150542C50555348425554544F2A
:100460004E2C535041445F50555348425554544FBD
:100470004E2C55495F545950453D3200494E505518
:10048000542C323030362C5750542C50555348424F
:100490005554544F4E2C535041445F50555348428D
:1004A0005554544F4E2C55495F545950453D3200D8
:1004B000494E5055542C323030352C5354412C5029
:1004C000555348425554544F4E2C535041445F505D
:1004D000555348425554544F4E2C55495F5459502A
:1004E000453D3200494E5055542C323030342C5753
:1004F00058522C50555348425554544F4E2C53503B
:1005000041445F50555348425554544F4E2C554921
:100510005F545950453D3200494E5055542C3230AD
:1005200030332C5354442C50555348425554544F57
:100530004E2C535041445F50555348425554544FEC
:100540004E2C48494444454E3D312C524F5554455C
:10055000544F3D4241524F5F454E4300494E505526
:10056000542C323030322C5253542C505553484274
:100570005554544F4E2C535041445F5055534842AC
:100580005554544F4E2C48494444454E3D312C520D
:100590004F555445544F3D4D494E535F454E4300D2
:1005A000494E5055542C323030312C4D5452532C2E
:1005B00050555348425554544F4E2C535041445F6C
:1005C00050555348425554544F4E2C55495F545939
:1005D00050453D3200494E5055542C323030302C6D
:1005E0004650562C50555348425554544F4E2C5358
:1005F0005041445F50555348425554544F4E2C552A
:10060000495F545950453D3200454E434F44455291
:1006100000494E505554004E4F5F444953504C4191
:10062000595F434C4541523D31005650535550504F
:100630004F52543D310050414745535550504F5251
:10064000543D3000495347454E455249433D3100E2
:100650004F5054494F4E00434654203733372045BE
:100660004649532050414E454C00535041440043AD
:1006700046542037333720454649532050414E4594
:100680004C00535041440000000000240027002A81
:100690000000000000250028002B000000000023BF
:1006A00000260029000404040404040404020202D5
:1006B00002020203030303030301020408102040A3
:1006C000800102040810200102040810200000002C
:1006D0000800020100000304070000000000000001
:1006E00000004C10191811241FBECFEFD8E0DEBF58
:1006F000CDBF27E0A6E2B3E001C01D92A532B2074C
:10070000E1F713E0A0E0B1E0EEE5F6E302C005900A
:100710000D92A632B107D9F713E0C2E7D3E004C0C7
:100720002197FE010E942119C137D107C9F70E9404
:10073000C2110C94221B0C940000AC0110926A04AC
:100740009091BA068091B906FA01BF01641B750B3E
:1007500020916A04308130936A04931304C0921389
:1007600002C010926A043081311104C0921721F046
:10077000CB0108953817D1F33196E7CF0F931F932C
:10078000CF93DF938091AE06882309F446C0D0E072
:10079000C0E0813029F482E08093AE06CEE6D4E05A
:1007A0008091AF06882341F1209721F4C091B306D0
:1007B000D091B4068E01CE010E949D03892B29F4AD
:1007C0002196F80180818111F5CFF801808188237D
:1007D00009F1C8010E949D03F801E80FF91F80810B
:1007E000882311F010823196F093B406E093B3069B
:1007F0001093B2060093B1068091B1069091B206B3
:10080000892B59F081E08093AF06DF91CF911F9142
:100810000F91089510E000E0EBCF80E0F6CF833039
:1008200081F028F4813099F08230A9F00895873062
:10083000A9F08830C9F08430B1F4809180008F7DB8
:1008400003C0809180008F7780938000089584B5E5
:100850008F7784BD089584B58F7DFBCF8091B000E4
:100860008F778093B00008958091B0008F7DF9CF8D
:10087000CF93DF93282F30E0F901E353F94F8491B0
:10088000F901E754F94FD491F901EB55F94FC491AF
:10089000CC23A1F081110E940F04EC2FF0E0EE0FA9
:1008A000FF1FE556F94FA591B491EC91ED2381E03E
:1008B00090E009F480E0DF91CF91089580E090E02E
:1008C000FACF1F93CF93DF93282F30E0F901E35342
:1008D000F94F8491F901E754F94FD491F901EB559F
:1008E000F94FC491CC23A9F0162F81110E940F0457
:1008F000EC2FF0E0EE0FFF1FEF56F94FA591B491EA
:100900008FB7F894EC91111108C0D095DE23DC93D9
:100910008FBFDF91CF911F910895DE2BF8CFCF933A
:10092000DF9390E0FC01E754F94F24918B55994FE8
:10093000FC0184918823C9F090E0880F991FFC0185
:10094000E957F94FA591B491FC01EF56F94FC591C4
:10095000D49161110DC09FB7F8948C91209582239A
:100960008C938881282328839FBFDF91CF9108959E
:10097000623051F49FB7F8943C91822F8095832385
:100980008C93E8812E2BEFCF8FB7F894EC912E2B20
:100990002C938FBFEACF1F93CF93DF93182FEB01D8
:1009A00061E00E948F04209739F460E0812FDF918D
:1009B000CF911F910C946104CF3FD10511F461E0F8
:1009C000F5CFE12FF0E0E353F94FE491E33031F15B
:1009D00040F4E130B1F0E230E1F0C038D1057CF70D
:1009E000E4CFE73029F1E83059F1E430B1F78091F4
:1009F0008000806280938000D0938B00C0938A0037
:100A000004C084B5806884BDC7BDDF91CF911F91BC
:100A1000089584B5806284BDC8BDF7CF8091800001
:100A2000806880938000D0938900C0938800EDCFC8
:100A30008091B00080688093B000C093B300E5CF90
:100A40008091B00080628093B000C093B400DDCF8D
:100A50003FB7F8948091350390913603A091370306
:100A6000B091380326B5A89B05C02F3F19F0019619
:100A7000A11DB11D3FBFBA2FA92F982F8827BC01F8
:100A8000CD01620F711D811D911D42E0660F771F20
:100A9000881F991F4A95D1F708958F929F92AF9220
:100AA000BF92CF92DF92EF92FF924B015C010E94C6
:100AB00028056B017C010E9428056C197D098E09AF
:100AC0009F09683E734081059105A8F321E0821AD1
:100AD0009108A108B10888EEC80E83E0D81EE11C79
:100AE000F11C81149104A104B10429F7FF90EF9047
:100AF000DF90CF90BF90AF909F908F900895089512
:100B0000DC01ED91FC910190F081E02D0994EF92D0
:100B1000FF920F931F93CF93DF93209165042223BD
:100B2000E9F08C016091B9068091B6069091B70604
:100B30000E948005E090B606F090B706E801FE013D
:100B40006491662359F0D701ED91FC910190F081F9
:100B5000E02DC70109952196892B89F7DF91CF9167
:100B60001F910F91FF90EF900895DB0114964D9126
:100B70005C9115976D917C91DC01ED91FC91028067
:100B8000F381E02D0994CF93DF9320916504222314
:100B900091F0EC016091B9068091B6069091B7068C
:100BA0000E948005BE018091B6069091B706DF9144
:100BB000CF910C94B505DF91CF910895AF92BF927C
:100BC000CF92DF92EF92FF920F931F93CF93DF9319
:100BD0006C017B018B01040F151FEB015E01AE1848
:100BE000BF08C017D10759F06991D601ED91FC916A
:100BF0000190F081E02DC6010995892B79F7C50197
:100C0000DF91CF911F910F91FF90EF90DF90CF90E8
:100C1000BF90AF900895FC01538D448D252F30E097
:100C2000842F90E0821B930B541710F0CF960895F9
:100C300001970895FC01918D828D981761F0A28D26
:100C4000AE0FBF2FB11D5D968C91928D9F5F9F73EC
:100C5000928F90E008958FEF9FEF0895FC01918DA2
:100C6000828D981731F0828DE80FF11D858D90E00F
:100C700008958FEF9FEF0895FC01918D228D892FAC
:100C800090E0805C9F4F821B91098F739927089594
:100C900088EC93E00E943C0621E0892B09F420E0D7
:100CA000822F089580E090E0892B29F00E94480669
:100CB00081110C9400000895FC01A48DA80FB92F98
:100CC000B11DA35ABF4F2C91848D90E001968F7374
:100CD0009927848FA689B7892C93A089B1898C9193
:100CE000837080648C93938D848D981306C00288E2
:100CF000F389E02D80818F7D80830895EF92FF92AC
:100D00000F931F93CF93DF93EC0181E0888F9B8D2E
:100D10008C8D98131AC0E889F989808185FF15C0E8
:100D20009FB7F894EE89FF896083E889F98980810B
:100D30008370806480839FBF81E090E0DF91CF91DA
:100D40001F910F91FF90EF900895F62E0B8D10E0FC
:100D50000F5F1F4F0F731127E02E8C8D8E110CC06B
:100D60000FB607FCFACFE889F989808185FFF5CFB6
:100D7000CE010E945C06F1CFEB8DEC0FFD2FF11D33
:100D8000E35AFF4FF0829FB7F8940B8FEA89FB89F3
:100D900080818062CFCFCF93DF93EC01888D882351
:100DA000B9F0AA89BB89E889F9898C9185FD03C0CE
:100DB000808186FD0DC00FB607FCF7CF8C9185FFB3
:100DC000F2CF808185FFEDCFCE010E945C06E9CF96
:100DD000DF91CF910895EF92FF921F93CF93DF930E
:100DE000EC0167FD22C088816817F9F0E62E062E17
:100DF000000CFF0889818E151F0409F00CF441C016
:100E0000688310E08A85181780F4B701012E02C0AC
:100E1000759567950A94E2F76170FE01E10FF11D87
:100E200082810E9461041F5FEDCF8F8598890097B2
:100E300029F00197F1F08EEF9FEF15C08D858E3070
:100E400008F08E508770806480937C0080917A00D7
:100E5000806480937A0080917A0086FDFCCF809137
:100E6000780090917900DF91CF911F91FF90EF90E2
:100E700008958D85DF91CF911F91FF90EF900C9495
:100E800038048DEF9FEFEFCFDC01ED91FD91808174
:100E9000ED91FD919081ED91FD916C9163708E23A8
:100EA00009F064609F2309F06860E1E6F7E0E60F6F
:100EB000F11D659565956D936D917D918D919D91D8
:100EC000099423C01AC012C016C010C01EC009C0A9
:100ED00014C013C006C019C009C00DC007C00DC0A2
:100EE00014C062507040804090400BC06150704010
:100EF0008040904006C06E5F01C06F5F7F4F8F4F94
:100F00009F4F9E938E937E936E93089580912803B6
:100F1000909129030C944407809126039091270314
:100F20000C9444074F925F926F927F928F929F92A0
:100F3000AF92BF92CF92DF92EF92FF920F931F93E7
:100F4000CF93DF93CDB7DEB762970FB6F894DEBFCD
:100F50000FBECDBF4C01742E652E2B01AA86BB8619
:100F6000CC86DD86EE86FF86088B198B2A8B89E07E
:100F7000FE013A96DE01119601900D928A95E1F7F5
:100F80008FEFF401808399E0FE013196D40112962F
:100F900001900D929A95E1F791E0F401938784878F
:100FA0008587968781E090E0908B87878401980100
:100FB00028193909F401828590E00F5F1F4F281727
:100FC000390734F461E0F80181810E948F04EFCF8A
:100FD00091E001C0990F8A95EAF79183858587FD95
:100FE0000DC0871559F09685913019F460E00E9484
:100FF000610460E0F40185850E948F04F401758628
:1010000066864786508A611004C060E0872D0E9482
:101010006104F4016685858562960FB6F894DEBF9B
:101020000FBECDBFDF91CF911F910F91FF90EF9039
:10103000DF90CF90BF90AF909F908F907F906F90F8
:101040005F904F900C948F0480E008950F931F934E
:10105000CF93DF93EC01062F142F62E0802F0E94C4
:101060008F0462E0812F0E948F04802F90E0FC01AA
:10107000EB55F94FE491F0E0EE0FFF1FE556F94F05
:10108000A591B491B983A883FC01E754F94F249149
:101090002C83812F90E0FC01EB55F94FE491F0E0B7
:1010A000EE0FFF1FE556F94F459154915B834A833C
:1010B000FC01E754F94FE491ED831F8218861986ED
:1010C0001A868BE39FE10197F1F78C91282391E039
:1010D00009F490E0DA018C91E82309F092609E8394
:1010E000BE01802F0E942408082FBE01812F0E947C
:1010F0002408800F8B87DF91CF911F910F91089566
:101100000E94BE03882359F081E08093AF0680934C
:10111000B0068091B1069091B2060C944F181092CF
:10112000B00660E070E0CB0108950E9480080C9446
:101130008008CF92DF92EF92FF920E9480086B01AD
:101140007C018FEFC816D104E104F10409F040F4EA
:10115000B6018BE00E94CB04D0921B02C0921A020F
:10116000FF90EF90DF90CF9008950E948008672B4A
:10117000682B692B29F470E060E08BE00C94CB04C1
:1011800060911A0270911B02F8CFFB0101900020C0
:10119000E9F73197AF01461B570BDC01ED91FC914C
:1011A0000280F381E02D0994809165048823A1F0E9
:1011B0006091B8068091B6069091B7060E948005AE
:1011C00080916D04882341F064E372E08091B6065B
:1011D0009091B7060E94C50810926C0410926504A5
:1011E00080E008958F929F92AF92BF92EF92FF920C
:1011F0000F931F93CF93DF93CDB7DEB7A1970FB6B1
:10120000F894DEBF0FBECDBF7C01FA01CB0119A25D
:10121000223008F42AE08E010F5D1F4F822E912CA0
:10122000B12CA12CBF01A50194010E94FF18F90166
:10123000CA016A300CF5605DD8016E938D01232BD5
:10124000242B252B79F790E080E0109721F0BD0149
:10125000C7010E94C508A1960FB6F894DEBF0FBE65
:10126000CDBFDF91CF911F910F91FF90EF90BF9075
:10127000AF909F908F900895695CDECF9091650448
:10128000911110C091E09093650490936C04482FE5
:1012900050E070E060E02AE08091B6069091B706D9
:1012A0000C94F2080895CF93DF9390916504911107
:1012B0000AC0EB010E943E09CE010E948705DF9122
:1012C000CF910C94D40880E0DF91CF91089568E627
:1012D00070E083E00C945309CF92DF92EF92FF927B
:1012E000CF93DF9320916504222359F16C01609123
:1012F000B9068091B6069091B7060E948005C0910C
:10130000B606D091B7060D2C000CEE08FF082AE0B7
:10131000B701A601F7FE0CC06DE2CE010E94800568
:1013200044275527BA014C195D096E097F092AE047
:10133000CE01DF91CF91FF90EF90DF90CF900C9492
:10134000F208DF91CF91FF90EF90DF90CF9008955A
:10135000CF93DF9320916504222391F0EC016091FB
:10136000B9068091B6069091B7060E948005BE012D
:101370008091B6069091B706DF91CF910C94C50885
:10138000DF91CF9108950F931F93CF93DF93EC01DB
:1013900088819981009759F02A813B812617370768
:1013A00030F081E0DF91CF911F910F9108958B0173
:1013B0006F5F7F4F0E944C1A009759F09983888382
:1013C0001B830A832C813D81232B59F7FC0110825A
:1013D000E8CF80E0E7CFEF92FF920F931F93CF9378
:1013E000DF936115710541F480E0DF91CF911F918A
:1013F0000F91FF90EF90089541155105B1F07B01D9
:10140000EC010C811D81040F151FB8010E94C30956
:10141000882351F3288139818C819D81B701820F06
:10142000931F0E941B1B1D830C8381E0DECFCF9393
:10143000DF93EC0188819981009711F00E94C31914
:10144000198218821D821C821B821A82DF91CF9121
:101450000895CF93DF93EC01FB0101900020E9F7A1
:101460003197AF01461B570B0E94EB09811103C056
:10147000CE010E94170ACE01DF91CF910895CF933C
:10148000DF93EC01FB0144815581608171810E94F1
:10149000EB09811103C0CE010E94170ACE01DF9132
:1014A000CF910895EF92FF920F931F93CF93DF9305
:1014B000EC017B018A01BA010E94C30981110BC0B2
:1014C000CE010E94170ACE01DF91CF911F910F919B
:1014D000FF90EF9008951D830C83B7018881998157
:1014E0000E941B1BF0CFEF92FF920F931F93CF939D
:1014F000DF93CDB7DEB762970FB6F894DEBF0FBEAD
:10150000CDBF8C01CB01F8011182108213821282AF
:10151000158214824AE09E012F5F3F4F7901B90185
:101520000E947618F70101900020E9F73197AF018A
:101530004E195F09B701C8010E94520A62960FB6A0
:10154000F894DEBF0FBECDBFDF91CF911F910F91F9
:10155000FF90EF900895FB01DC0111961C921E9202
:1015600013961C921E92129715961C921E92149717
:101570008617970749F0608171816115710521F027
:10158000448155810C94520A0895FC011182108205
:101590001382128215821482FB0101900020E9F768
:1015A0003197AF01461B570B0C94520AFC01808106
:1015B0009181009711F00C94C31908950F931F9314
:1015C000CF93DF9300D000D000D0CDB7DEB720910D
:1015D000650421111EC08C018CE00E943E09B801F7
:1015E000CE0101960E94AB0ACE0101960E94C3056E
:1015F000CE0101960E94D60A0E94D40826960FB604
:10160000F894DEBF0FBECDBFDF91CF911F910F9138
:10161000089580E0F3CF0F931F93CF93DF9300D013
:1016200000D000D0CDB7DEB70E94BE03882371F191
:1016300081E08093AF068093B0060091B1061091CF
:10164000B20667E372E0C8010E94121B892B19F5EC
:1016500081E080932B0360911A0270911B02CE01EE
:1016600001960E94730ACE0101960E94DE0ACE0105
:1016700001960E94D60A26960FB6F894DEBF0FBEDA
:10168000CDBFDF91CF911F910F9108951092B006B9
:1016900010E000E0D6CF6DE372E0C8010E94121B9B
:1016A000892B39F062E472E0C8010E94121B892B79
:1016B00061F410922B0370E060E08BE00E94CB0499
:1016C00010921B0210921A02D6CF6DE472E0C8018C
:1016D0000E94121B892B79F6ECCF0F931F93CF93A7
:1016E000DF9300D000D000D0CDB7DEB720916504E5
:1016F00021112FC08C0188E00E943E09B801CE0163
:1017000001960E94AB0A80916504882389F060915C
:10171000B9068091B6069091B7060E948005BE0179
:101720006F5F7F4F8091B6069091B7060E94B50516
:10173000CE0101960E94D60A0E94D40826960FB6C2
:10174000F894DEBF0FBECDBFDF91CF911F910F91F7
:10175000089580E0F3CFCF92DF92EF92FF920F9344
:101760001F93CF93DF93CDB7DEB768970FB6F8948A
:10177000DEBF0FBECDBF0E94BE03882309F4A2C006
:1017800081E08093AF068093B0060091B10610917E
:10179000B20661E572E0C8010E94121B892B09F0B4
:1017A00096C080E00E943E098AE696E00E94870586
:1017B0006CEB73E0CE0101960E94AB0ACE0101965C
:1017C0000E94C305CE0101960E94D60A87E596E0E5
:1017D0000E94870582E090E00E946C0984E293E019
:1017E0000E94A80966E572E0CE0101960E94C50A32
:1017F00062EC73E0CE0101960E943F0ABC01CE016B
:1018000007960E94AB0A80916504882389F0609155
:10181000B9068091B6069091B7060E948005BE0178
:10182000695F7F4F8091B6069091B7060E94B5051B
:10183000CE0107960E94D60ACE0101960E94D60AD2
:101840008EE592E00E94A80987E692E00E94A8092E
:101850000E94D40868EC70E08BE00E94CB0464E640
:1018600070E080E090E00E944D0570E060E08BE069
:101870000E94CB0464E670E080E090E00E944D0599
:1018800068EC70E08BE00E94CB0464E670E080E0DE
:1018900090E00E944D0570E060E08BE00E94CB0478
:1018A00081E080932A0368960FB6F894DEBF0FBEDE
:1018B000CDBFDF91CF911F910F91FF90EF90DF90FF
:1018C000CF9008951092B00610E000E062CF66E776
:1018D00072E0C8010E94121B892B09F0BFC180E091
:1018E0000E943E0980E892E00E94A80981E090E011
:1018F0000E946C090E94D40804E311E0F801808181
:1019000091818130910509F0ACC062818BE593E053
:101910000E94EB067C01892BC9F5F801668177816D
:10192000CE010D960E94730AF80164817581CE0183
:1019300001960E94730ABE016F5F7F4FCE0107962A
:101940000E94AB0A6AE872E0CE0107960E94290A5B
:10195000BE01635F7F4F0E943F0ABC01CE014396E8
:101960000E94AB0ACE0143960E946D0BCE014396B6
:101970000E94D60ACE0107960E94D60ACE01019691
:101980000E94D60ACE010D960E94D60AF801F18671
:10199000E086065F1F4FF2E00A311F0709F0AECF65
:1019A00004E011E0F80180810E9438047C01F80114
:1019B0008281938184339840E4F1E114F104C9F504
:1019C000F80164817581CE010D960E94730AF801B9
:1019D00062817381CE0101960E94730ABE016F5F1E
:1019E0007F4FCE0107960E94AB0A6AE872E0CE01F3
:1019F00007960E94290ABE01635F7F4F0E943F0A3B
:101A0000BC01CE0143960E94AB0ACE0143960E94D0
:101A10006D0BCE0143960E94D60ACE0107960E9416
:101A2000D60ACE0101960E94D60ACE010D960E94DA
:101A3000D60AF801F782E682085F1F4FF1E004330F
:101A40001F0709F0AFCF80E00E943E0980E892E0D6
:101A50000E94A80982E090E00E946C090E94D408CC
:101A600022CF029709F095CF62818AE493E00E9429
:101A7000EB067C01892B09F03FC0F8018481958138
:101A80008A399840C9F5F80166817781CE010D96B3
:101A90000E94730AF80164817581CE0101960E944B
:101AA000730ABE016F5F7F4FCE0107960E94AB0A9B
:101AB0006AE872E0CE0107960E94290ABE01635FC0
:101AC0007F4F0E943F0ABC01CE0143960E94AB0AA1
:101AD000CE0143960E946D0BCE0143960E94D60A1A
:101AE000CE0107960E94D60ACE0101960E94D60A20
:101AF000CE010D960E94D60AF80164817581CB0152
:101B0000825D97400297E0F5E114F10409F06AC0A4
:101B100066817781CE010D960E94730AF801648177
:101B20007581CE0101960E94730ABE016F5F7F4FDF
:101B3000CE0107960E94AB0A6AE872E0CE010796D2
:101B40000E94290ABE01635F7F4F0E943F0ABC01C9
:101B5000CE0143960E94AB0ACE0143960E946D0BC4
:101B6000CE0143960E94D60ACE0107960E94D60A5D
:101B7000CE0101960E94D60ACE010D960E94D60A89
:101B8000F80164817581CB0188599840029708F06B
:101B9000FDCEE114F10409F04EC0CE0101960E9481
:101BA000730ABE016F5F7F4FCE0107960E94AB0A9A
:101BB0006FE872E0CE0107960E94290ABC01CE01AF
:101BC0000D960E94AB0ACE010D960E946D0BCE01C0
:101BD0000D960E94D60ACE0107960E94D60ACE0123
:101BE0000196D2CEF1E0EF16F10451F6CE01019646
:101BF0000E94730ABE016F5F7F4FCE0107960E945D
:101C0000AB0A6CE872E0CE0107960E94290ABC017B
:101C1000CE010D960E94AB0ACE010D960E946D0B6F
:101C2000CE010D960E94D60ACE0107960E94D60AD2
:101C3000CE010196A3CFF1E0EF16F10409F0A6CE94
:101C4000CE0101960E94730ABE016F5F7F4FCE01E5
:101C500007960E94AB0A6CE872E0ACCF62E972E0D2
:101C6000C8010E94121B892B89F580E00E943E0961
:101C700087E992E00E94A8090E9480086B017C011C
:101C800080916504882309F4E9CE6091B9068091BA
:101C9000B6069091B7060E9480050091B606109195
:101CA000B7062AE0B701A601F7FE0CC06DE2C80135
:101CB0000E94800544275527BA014C195D096E0919
:101CC0007F092AE0C8010E94F208C8CE6DE472E0E4
:101CD000C8010E94121B892B51F470E060E08BE078
:101CE0000E94CB0410921B0210921A02DCCD6CE908
:101CF00072E0C8010E94121B892B09F0D4CD80E04C
:101D00000E943E0980E596E00E94870584E496E003
:101D10000E94870586E396E00E9487058AE296E0A6
:101D20000E94870587E196E00E9487050E94D408FB
:101D300080E00E943E0981E196E00E94870588EBE1
:101D40009BE00E946C0968E773E0CE0101960E9457
:101D5000AB0ACE0101960E94C305CE0101960E94F6
:101D6000D60A89E096E00E94870562E873E0CE011A
:101D700001960E94AB0ACE0101960E94C305CE01D6
:101D800001960E94D60A0E94D40880E00E943E0973
:101D900081E196E00E94870589EB9BE00E946C0937
:101DA00064E973E0CE0101960E94AB0ACE01019670
:101DB0000E94C305CE0101960E94D60A89E096E0F2
:101DC0000E9487056EE973E0CE0101960E94AB0A7E
:101DD000CE0101960E94C305CE0101960E94D60A4B
:101DE0000E94D40865ED75E080E00E94530960EA26
:101DF00075E080E00E9453096CE575E080E00E9488
:101E0000530968E175E080E00E94530964EE74E0D4
:101E100080E00E94530960EB74E080E00E94530967
:101E20006CE774E080E00E94530968E474E080E0AD
:101E30000E94530963E174E080E00E9453096FED52
:101E400073E080E00E9453096AEA73E080E00E9438
:101E5000530962E773E080E00E9453096AE373E08C
:101E600080E00E94530966ED72E080E00E94530911
:101E700066E772E080E00E94530964E072E080E06F
:101E80000E94530968E771E080E00E94530963E211
:101E900071E080E00E9453096CEC70E081E00E94E8
:101EA00053096FE770E081E00E94530968E770E032
:101EB00080E00E945309F7CC1F920F920FB60F9249
:101EC00011242F933F938F939F93AF93BF93809150
:101ED000310390913203A0913303B09134033091D8
:101EE000300323E0230F2D3758F50196A11DB11DB6
:101EF000209330038093310390933203A0933303F4
:101F0000B09334038091350390913603A091370349
:101F1000B09138030196A11DB11D809335039093B4
:101F20003603A0933703B0933803BF91AF919F91CD
:101F30008F913F912F910F900FBE0F901F9018958A
:101F400026E8230F0296A11DB11DD2CF1F920F923A
:101F50000FB60F9211242F933F934F935F936F937C
:101F60007F938F939F93AF93BF93EF93FF93E091F2
:101F70000201F09103010995FF91EF91BF91AF919B
:101F80009F918F917F916F915F914F913F912F9191
:101F90000F900FBE0F901F9018951F920F920FB6C3
:101FA0000F9211242F933F934F935F936F937F93DF
:101FB0008F939F93AF93BF93EF93FF93E0910001B3
:101FC000F09101010995FF91EF91BF91AF919F9120
:101FD0008F917F916F915F914F913F912F910F90D2
:101FE0000FBE0F901F9018951F920F920FB60F9271
:101FF00011242F933F934F935F936F937F938F930E
:102000009F93AF93BF93EF93FF9388EC93E00E946D
:102010005C06FF91EF91BF91AF919F918F917F915E
:102020006F915F914F913F912F910F900FBE0F9045
:102030001F9018951F920F920FB60F9211242F9395
:102040008F939F93EF93FF93E091D803F091D9037F
:102050008081E091DE03F091DF0382FD1BC090815F
:102060008091E1038F5F8F732091E203821741F02B
:10207000E091E103F0E0E853FC4F958F8093E1039A
:10208000FF91EF919F918F912F910F900FBE0F9025
:102090001F9018958081F4CF8F929F92AF92BF923C
:1020A000CF92DF92EF92FF920F931F93CF93DF9324
:1020B000CDB7DEB729970FB6F894DEBF0FBECDBF00
:1020C0001092CB031092CA0388EE93E0A0E0B0E038
:1020D0008093CC039093CD03A093CE03B093CF0312
:1020E00086E292E09093C9038093C80385EC90E068
:1020F0009093D5038093D40384EC90E09093D7031E
:102100008093D60380EC90E09093D9038093D8031A
:1021100081EC90E09093DB038093DA0382EC90E013
:102120009093DD038093DC0386EC90E09093DF03D3
:102130008093DE031092E1031092E2031092E30316
:102140001092E4031092BC061092BB0688EC93E058
:102150009093B7068093B60610926D048CE280933C
:10216000B9068BE38093B8068FE28093BA0680E4C9
:10217000809368048FE3809369041092670410923F
:10218000B2061092B1061092B4061092B30681E026
:102190008093AF06EDEBF6E01192119287E0E13209
:1021A000F807D1F710926C0463EA72E082EC93E0D6
:1021B0000E94C50A64EC72E08CEB93E00E94C50AB1
:1021C00048E067E080EB93E00E9426084AE069E07F
:1021D00084EA93E00E9426088CE0E0EBF3E0ACE6B2
:1021E000B3E001900D928A95E1F76BEE72E088E71B
:1021F00093E00E94C50A89E1882E8CEF982EAA24CC
:10220000AA94BA2C80927E0390927F03A0928003BE
:10221000B092810364EF72E082E893E00E94C50A05
:102220008CE0E4EAF3E0A8E8B3E001900D928A952F
:10223000E1F761E073E084E993E00E94C50A8092CF
:102240009A0390929B03A0929C03B0929D0364EF2B
:1022500072E08EE993E00E94C50A82E0898383E000
:102260008A8384E08B838FEF8C838D838E838F832F
:102270008887FE01319690E080E04F01219127FF91
:102280006DC08987A980BA80CB80DC80ED80FE801C
:102290000F811885298545E050E061E070E08BE50D
:1022A00093E00E94920782E0898383E08A8384E03E
:1022B0008B838FEF8C838D838E838F838887F4014C
:1022C00090E080E0219127FF50C08987A980BA80E3
:1022D000CB80DC80ED80FE800F811885298546E06B
:1022E00050E061E070E08AE493E00E94920782E0AF
:1022F000898383E08A8384E08B838FEF8C838D8353
:102300008E838F838887F40190E080E0219127FFFE
:1023100033C08987A980BA80CB80DC80ED80FE80C5
:102320000F81188529854CE050E061E070E089E379
:1023300093E00E94920729960FB6F894DEBF0FBE75
:10234000CDBFDF91CF911F910F91FF90EF90DF9064
:10235000CF90BF90AF909F908F9008950196883056
:10236000910509F08BCF88E08CCF019688309105DC
:1023700009F0A8CF88E0A9CF01968830910531F601
:1023800088E0C7CFCF93DF93CDB7DEB768970FB69E
:10239000F894DEBF0FBECDBF789484B5826084BD53
:1023A00084B5816084BD85B5826085BD85B5816059
:1023B00085BD80916E00816080936E0010928100D7
:1023C0008091810082608093810080918100816092
:1023D0008093810080918000816080938000809153
:1023E000B10084608093B1008091B00081608093DF
:1023F000B00080917A00846080937A0080917A00A6
:10240000826080937A0080917A00816080937A0064
:1024100080917A00806880937A001092C100B4E3C2
:10242000EB2EB1E0FB2E04E011E062E0D8018C91CC
:102430000E948F04085F1F4FE016F106B1F761E0BC
:102440008BE00E948F04E091D803F091D90382E0E1
:102450008083E091D403F091D5031082E091D603FC
:10246000F091D70380E180831092E003E091DC03D8
:10247000F091DD0386E08083E091DA03F091DB03E5
:10248000808180618083E091DA03F091DB038081B9
:1024900088608083E091DA03F091DB0380818068BB
:1024A0008083E091DA03F091DB0380818F7D80836C
:1024B00080916504811109C083E00E943E098AE091
:1024C00093E00E94A8090E94D4088BEA9BE09093B5
:1024D000BE068093BD068BE09BE09093C20680937E
:1024E000C10687E699E09093C4068093C30685E908
:1024F00098E09093C8068093C70689E998E0909386
:10250000D6068093D50685EB98E09093D806809305
:10251000D70664EF71E080E090E00E944D05809165
:102520002A03811168C00E943E0982E896E00E9459
:1025300087056CEB73E0CE0101960E94AB0ACE01D9
:1025400001960E94C305CE0101960E94D60A8FE62D
:1025500096E00E94870582E090E00E946C0984E288
:1025600093E00E94A80966E572E0CE0107960E94FA
:10257000C50A62EC73E0CE0107960E943F0ABC01D7
:10258000CE0101960E94AB0A80916504882389F0F0
:102590006091B9068091B6069091B7060E948005B9
:1025A000BE016F5F7F4F8091B6069091B7060E9483
:1025B000B505CE0101960E94D60ACE0107960E946B
:1025C000D60A8EE592E00E94A80987E692E00E9472
:1025D000A8090E94D40868EC70E08BE00E94CB044C
:1025E00064EF71E080E090E00E944D0570E060E0F3
:1025F0008BE00E94CB0460911A0270911B028BE069
:102600000E94CB0488248A94912CFCE6EF2EF3E000
:10261000FF2ED12CC12CF7018385823008F067C0D2
:10262000F894C7010E944407F70187819085A1852E
:10263000B285789472E0B595A795979587957A9528
:10264000D1F74289538964897589481759076A0700
:102650007B070CF04CC2828B938BA48BB58B809143
:102660002B03882349F1B6016854744FCE010D96AF
:102670000E94730ABE01635F7F4FCE0107960E94DE
:10268000AB0A6FE872E0CE0107960E94290ABC01EE
:10269000CE0101960E94AB0ACE0101960E946D0BFD
:1026A000CE0101960E94D60ACE0107960E94D60A54
:1026B000CE010D960E94D60AF1E0CF16D104B1F5F5
:1026C00083E10E943804892BB9F580911A02909118
:1026D0001B0240968F3F910509F05CF490931B021A
:1026E00080931A020AC0CC24C394D12C94CFF894BE
:1026F0009BCF90921B0280921A02A0901A02B09077
:102700001B02B5018BE00E94CB0480912B03882330
:1027100099F0B501CE0101960E94730ACE0101968F
:102720000E94DE0ACE0101960E94D60A2CE1E20E3A
:10273000F11CCA94CD28B9F62FB7F89480913103D3
:1027400090913203A0913303B09134032FBF409195
:102750002C0350912D0360912E0370912F03841B45
:10276000950BA60BB70B85369105A105B10508F4AD
:102770001BC180912B03882309F461C064E0E62E1D
:1027800061E0F62ED7018C910E9438046C01F701AC
:1027900086819781C816D90609F44AC0628173817F
:1027A0006433F8E07F070CF01AC2C114D10409F0B9
:1027B000ECC1D70114966D917C91CE010D960E94CB
:1027C000730AF70162817381CE0101960E94730A38
:1027D000BE016F5F7F4FCE0107960E94AB0A6AE889
:1027E00072E0CE0107960E94290ABE01635F7F4F07
:1027F0000E943F0ABC01CE0143960E94AB0ACE0163
:1028000043960E946D0BCE0143960E94D60ACE01DC
:1028100007960E94D60ACE0101960E94D60ACE01E2
:102820000D960E94D60AD7011796DC92CE92169783
:10283000B8E0EB0EF11C0E151F0509F0A3CF809137
:102840002B03882309F466C044E3E42E41E0F42E10
:102850005AE1A52E52E0B52EF70180819181813099
:10286000910509F0D3C162818BE593E00E94EB06EC
:102870006C01D70118968D919C911997C816D906AD
:1028800009F441C0C114D104C9F516966D917C912B
:10289000CE010D960E94730AF70164817581CE0105
:1028A00001960E94730ABE016F5F7F4FCE010796AB
:1028B0000E94AB0A6AE872E0CE0107960E94290ADC
:1028C000BE01635F7F4F0E943F0ABC01CE01439669
:1028D0000E94AB0ACE0143960E946D0BCE01439637
:1028E0000E94D60ACE0107960E94D60ACE01019612
:1028F0000E94D60ACE010D960E94D60AD7011996DB
:10290000DC92CE921897FAE0EF0EF11CAE14BF04E1
:1029100009F0A2CF82E10E943804892B91F583E16E
:102920000E943804892B69F580912B03882309F4D0
:10293000FAC280911A0290911B02892B09F0EEC213
:1029400080E890E090931B0280931A02E0901A02B4
:10295000F0901B02B7018BE00E94CB04B701CE01BF
:1029600001960E94730ACE0101960E94DE0ACE01F2
:1029700001960E94D60A64EF71E080E090E00E9428
:102980004D052FB7F8948091310390913203A091B7
:102990003303B09134032FBF80932C0390932D0306
:1029A000A0932E03B0932F033324339480916C04AF
:1029B00081112BC38091B6069091B706DC01ED9191
:1029C000FC910084F185E02D0995892B09F41DC344
:1029D0008091B6069091B706DC01ED91FC910084E0
:1029E000F185E02D0995A12C22E0B22E81159240AF
:1029F00064F48091B6069091B706DC01ED91FC91EC
:102A00000084F185E02D09955C01E090B606F09018
:102A1000B7069EEA692E94E0792E2301D12CC12CB1
:102A2000AC14BD0409F09FC2F12CE12CAE14BF041C
:102A300009F4BCCFD3019D913D011092AE063091B7
:102A4000BA0620916B0490936B04931304C0921305
:102A500002C010926B0480916704E82FF0E040916F
:102A6000B806EB59FB4F9413B6C2321709F4B3C240
:102A70001186882321F03092AE0610926B041092DA
:102A800067041092B2061092B1061092B40610922A
:102A9000B3063092AF06D090AE06B1E0DB12B1C201
:102AA0000E94BE03882309F4A0C2D092AF06D09240
:102AB000B0068091B1069091B2060E9431188093C1
:102AC0006604823308F096C22091B006222309F4EE
:102AD00091C2FC01FF27EE0FFF1FE354F94F019055
:102AE000F081E02D309709F485C209958AC28417D8
:102AF0009507A607B7070CF019CE828B938BA48B92
:102B0000B58B80912B03882349F1B6016854744F2B
:102B1000CE010D960E94730ABE01635F7F4FCE0106
:102B200007960E94AB0A6FE173E0CE0107960E9400
:102B3000290ABC01CE0101960E94AB0ACE01019682
:102B40000E946D0BCE0101960E94D60ACE01079617
:102B50000E94D60ACE010D960E94D60AF1E0CF1649
:102B6000D10409F0E3CD83E10E943804892B09F0F8
:102B7000E3CD80911A0290911B02409797FFAECD52
:102B800010921B0210921A02B8CDF1E0CF16D104B8
:102B900009F049CECE0101960E94730ABE016F5F13
:102BA0007F4FCE0107960E94AB0A6CE872E0CE011F
:102BB00007960E94290ABC01CE010D960E94AB0A1D
:102BC000CE010D960E946D0BCE010D960E94D60A85
:102BD000CE0107960E94D60ACE01019622CEC114DC
:102BE000D10409F4E6CDF1E0CF16D10409F01BCEF3
:102BF000CE0101960E94730ABE016F5F7F4FCE0126
:102C000007960E94AB0A63E273E0D1CF8230910550
:102C100009F006C162818AE493E00E94EB066C0130
:102C2000D70118968D919C911997C816D90609F469
:102C30006ACEC114D10409F040C014968D919C91C4
:102C40008A399840D1F5F70166817781CE010D96DA
:102C50000E94730AD70114966D917C91CE01019662
:102C60000E94730ABE016F5F7F4FCE0107960E94DC
:102C7000AB0A6AE872E0CE0107960E94290ABE01FB
:102C8000635F7F4F0E943F0ABC01CE0143960E94C2
:102C9000AB0ACE0143960E946D0BCE0143960E9473
:102CA000D60ACE0107960E94D60ACE0101960E944E
:102CB000D60ACE010D960E94D60AF701648175816D
:102CC000CB01825D97400297E8F5C114D10409F069
:102CD0006BC066817781CE010D960E94730AD70181
:102CE00014966D917C91CE0101960E94730ABE01EB
:102CF0006F5F7F4FCE0107960E94AB0A6AE872E0D1
:102D0000CE0107960E94290ABE01635F7F4F0E9491
:102D10003F0ABC01CE0143960E94AB0ACE01439606
:102D20000E946D0BCE0143960E94D60ACE010796F3
:102D30000E94D60ACE0101960E94D60ACE010D96B7
:102D40000E94D60AF70164817581CB0188599840A9
:102D5000029708F0D3CDC114D10409F04EC0CE01C2
:102D600001960E94730ABE016F5F7F4FCE010796E6
:102D70000E94AB0A6FE872E0CE0107960E94290A12
:102D8000BC01CE010D960E94AB0ACE010D960E94A9
:102D90006D0BCE010D960E94D60ACE0107960E94B9
:102DA000D60ACE010196A8CDB1E0CB16D10451F6DA
:102DB000CE0101960E94730ABE016F5F7F4FCE0164
:102DC00007960E94AB0A6CE872E0CE0107960E945B
:102DD000290ABC01CE010D960E94AB0ACE010D96C8
:102DE0000E946D0BCE010D960E94D60ACE01079669
:102DF0000E94D60ACE010196A3CFF1E0CF16D104EE
:102E000009F07CCDCE0101960E94730ABE016F5F6E
:102E10007F4FCE0107960E94AB0A6CE872E0ACCF00
:102E2000039709F070CD628189E393E00E94EB067D
:102E30006C01D70118968D919C911997C816D906E7
:102E400009F461CDC114D104E9F516966D917C9118
:102E5000CE010D960E94730AF70164817581CE013F
:102E600001960E94730ABE016F5F7F4FCE010796E5
:102E70000E94AB0A6AE872E0CE0107960E94290A16
:102E8000BE01635F7F4F0E943F0ABC01CE014396A3
:102E90000E94AB0ACE0143960E946D0BCE01439671
:102EA0000E94D60ACE0107960E94D60ACE0101964C
:102EB0000E94D60ACE010D960E94D60AF701D1864D
:102EC000C08621CDF1E0CF16D104C1F714966D91E3
:102ED0007C91CE0101960E94730ABE016F5F7F4F05
:102EE000CE0107960E94AB0A6CE872E0CE0107960D
:102EF0000E94290ABC01CE010D960E94AB0ACE01A8
:102F00000D960E946D0BCE010D960E94D60ACE0141
:102F100007960E94D60ACE010196CECF10921B02D0
:102F200010921A0213CD35E0E32EF12C60E870E028
:102F30008BE00E94CB0464E670E080E090E00E94A9
:102F40004D0570E060E08BE00E94CB0464E670E029
:102F500080E090E00E944D0521E0E21AF10831F78F
:102F60000C9400000ECD2FB7F8948091310390910E
:102F70003203A0913303B09134032FBFF701808750
:102F80009187A287B387D701ED91FC910284F385E5
:102F9000E02DC701099597FF45C02FB7F8948091A0
:102FA000310390913203A0913303B09134032FBFCA
:102FB000F7014085518562857385841B950BA60BAF
:102FC000B70B448155816681778184179507A607E1
:102FD000B707C8F229CD91878F5F809367049091DE
:102FE0006904891708F04BCD56CD1092B00690E0D9
:102FF00080E065CDE091BB06F091BC06309709F00A
:1030000074CDEFEFEE1AFE0A11CD80E090E0892B2F
:1030100009F4FBCA0E944806882309F4F3CA0E94F7
:103020000000F0CAD2018D932D01BFEFCB1ADB0A4D
:10303000F7CC8EE993E00E94D60A84E993E00E94DF
:10304000D60A82E893E00E94D60A88E793E00E94BD
:10305000D60A8CEB93E00E94D60A82EC93E00C94A3
:10306000D60AFC0188279927E89421912032E9F3B8
:10307000293010F02E30C8F32B3241F02D3239F4C4
:10308000689404C00E949618820F911D21912053CC
:103090002A30C0F31EF4909581959F4F08951F9399
:1030A000FC0199278827BC01E89411911032E9F3BB
:1030B000193010F01E30C8F31B3251F01D3249F4A4
:1030C000689406C00E948118610F711D811D911DB9
:1030D000119110531A30B0F33EF49095809570958D
:1030E00061957F4F8F4F9F4F1F910895BB274A30A7
:1030F00031F4992322F4BDE2909581959F4F0C9471
:103100009F18592F482F372F262F660F771F881F9C
:10311000991F660F771F881F991F620F731F841FE7
:10312000951F660F771F881F991F08957AE0979F54
:10313000902D879F802D910D11240895BB27FB01B1
:103140005527AA27880F991FAA1FA41710F0A41BA0
:1031500083955051B9F7A05DAA3308F0A95DA193FA
:10316000009779F7B111B1931192CB010C94B81873
:10317000DC01FC01672F71917723E1F7329704C0DE
:103180007C916D9370836291AE17BF07C8F3089569
:103190002F923F924F925F926F927F928F929F9267
:1031A000AF92BF92CF92DF92EF92FF920F931F9355
:1031B000CF93DF93CDB7DEB7CA1BDB0B0FB6F89406
:1031C000DEBF0FBECDBF09942A88398848885F8446
:1031D0006E847D848C849B84AA84B984C884DF80B7
:1031E000EE80FD800C811B81AA81B981CE0FD11D9B
:1031F0000FB6F894DEBF0FBECDBFED010895A1E27A
:103200001A2EAA1BBB1BFD010DC0AA1FBB1FEE1F60
:10321000FF1FA217B307E407F50720F0A21BB30BAB
:10322000E40BF50B661F771F881F991F1A9469F727
:1032300060957095809590959B01AC01BD01CF0183
:103240000895EE0FFF1F0590F491E02D09940F9360
:103250001F93CF93DF938230910510F482E090E0CA
:10326000E0912307F091240730E020E0B0E0A0E0F7
:10327000309799F42115310509F44AC0281B390B00
:1032800024303105D8F58A819B816115710589F15A
:10329000FB0193838283FE0111C040815181028131
:1032A000138148175907E0F04817590799F4109708
:1032B00061F012960C93129713961C933296CF01DD
:1032C000DF91CF911F910F910895009323071093E1
:1032D0002407F4CF2115310551F04217530738F078
:1032E000A901DB019A01BD01DF01F801C1CFEF01A6
:1032F000F9CF9093240780932307CDCFFE01E20FEF
:10330000F31F819391932250310939832883D7CFBA
:103310002091210730912207232B41F420911E0296
:1033200030911F02309322072093210720911C0225
:1033300030911D022115310541F42DB73EB7409162
:10334000200250912102241B350BE0912107F091BE
:103350002207E217F307A0F42E1B3F0B28173907AB
:1033600078F0AC014E5F5F4F2417350748F04E0FE1
:103370005F1F5093220740932107819391939FCF22
:10338000F0E0E0E09CCFCF93DF930097E9F0FC0101
:10339000329713821282A0912307B0912407ED0186
:1033A00030E020E01097A1F420813181820F931F3B
:1033B00020912107309122072817390709F061C0B1
:1033C000F0932207E0932107DF91CF910895EA015E
:1033D000CE17DF07E8F54A815B819E014115510553
:1033E000B1F7E901FB83EA8349915991C40FD51FD5
:1033F000EC17FD0761F4808191810296840F951F7F
:10340000E90199838883828193819B838A83F0E099
:10341000E0E012968D919C9113970097B9F52D914C
:103420003C911197CD010296820F931F20912107A5
:10343000309122072817390739F6309751F5109245
:10344000240710922307B0932207A0932107BCCF33
:10345000D383C28340815181840F951FC817D90738
:1034600061F44E5F5F4F88819981480F591F5183E6
:1034700040838A819B81938382832115310509F0E2
:10348000B0CFF0932407E09323079ECFFD01DC012A
:10349000C0CF13821282D7CFB0E0A0E0E2E5FAE11C
:1034A0000C94CA188C01009751F4CB010E94271983
:1034B0008C01C801CDB7DEB7E0E10C94E618FC0141
:1034C000E60FF71F9C0122503109E217F30708F4B9
:1034D0009DC0D901CD91DC911197C617D70798F0FF
:1034E000C530D10530F3CE0104978617970708F34E
:1034F000C61BD70B2297C193D1936D937C93CF01B9
:103500000E94C319D6CF5B01AC1ABD0A4C018C0EC8
:103510009D1EA0912307B0912407512C412CF12C22
:10352000E12C109731F580912107909122078815A1
:10353000990509F05CC04616570608F058C08091FE
:103540001C0290911D02009741F48DB79EB74091E7
:10355000200250912102841B950BE817F90708F00F
:1035600055C0F0932207E0932107F901718360832E
:10357000A0CF8D919C91119712966C9012971396F3
:103580007C901397A815B90559F56C0142E0C40E5B
:10359000D11CCA14DB0420F1AC014A195B09DA0121
:1035A0001296159780F06282738251834083D9010D
:1035B0006D937C93E114F10471F0D7011396FC93A1
:1035C000EE93129776CF22968C0F9D1FF90191836F
:1035D0008083F301EFCFF0932407E093230769CFB3
:1035E0004816590608F42C017D01D3019ACFCB016E
:1035F0000E9427197C01009749F0AE01B8010E9492
:10360000091BC8010E94C319870153CF10E000E0D5
:1036100050CFFB01DC0102C001900D92415050409F
:10362000D8F70895FB01DC018D91019080190110FC
:10363000D9F3990B0895FB01DC0101900D92002054
:10364000E1F7089513E0C2E7D3E004C0FE010E9451
:0E36500021192196C337D107C9F7F894FFCF8F
:10365E007F057F051300D0070100FFFF1200D10781
:10366E000100FFFF100034080100FFFF0E003408B8
:10367E000000FFFF110035080100FFFF0F003508A5
:10368E000000FFFF010000009B080000FFFF01008B
:10369E0001009B080100FFFF010002009B080200D1
:1036AE00FFFF010003009B080300FFFF0100040061
:1036BE009B080400FFFF010005009B080500FFFFAB
:1036CE00010006009B080600FFFF010007009B0893
:1036DE000700FFFF020000009A080000FFFF020033
:1036EE0001009A080100FFFF020002009A08020082
:1036FE00FFFF020003009A080300FFFF0200040010
:10370E00D2070100FFFF02000500D3070100FFFFF3
:10371E000200060098080100FFFF0200070099084A
:10372E000100FFFF03000000D4070100FFFF0300AC
:10373E000100D5070100FFFF03000200D6070100BC
:10374E00FFFF03000300D7070100FFFF0300040083
:10375E00D8070100FFFF03000500D9070100FFFF96
:10376E0003000600DA070100FFFF20000000250716
:10377E008000000000007E06DE050B06CB063C0630
:10378E001A062E060D0A0053544152540053544F3C
:10379E005000444953434F4E4E45435400454E440A
:1037AE0000494E495400415554484F523D00564928
:1037BE00443D314C3250005049443D43465437331A
:1037CE003745464953005343414E535441544500E7
:1037DE0053544154455343414E002C002C30002C81
:1037EE00310050494E4700504F4E4700434F4E4612
:1037FE0049470033363062383132656631306433D2
:10380E0033653534353765653762343132383435A2
:10381E00333666007B61646636646663662D646269
:10382E0064632D346534652D383035352D6561343E
:10383E003335643939663661657D004D494E535FC7
:10384E00454E4300535041445F454E434F4445520D
:10385E00004241524F5F454E43004154544143484C
:10386E00494E472043414C4C4241434B5321002C7F
:06387E002D31002C320088
:00000001FF
