:100000000C947D010C94A5010C94A5010C94A50100
:100010000C94A5010C94A5010C94A5010C94A501C8
:100020000C94A5010C94A5010C94A5010C94E42258
:100030000C94A5010C94A5010C94A5010C94A501A8
:100040000C9415210C94A5010C9485210C945F212E
:100050000C94A5010C94A5010C94A5010C94A50188
:100060000C94C5210C94A5016E2F61004F4B004FDD
:100070004B004F4B00427574746F6E20646F657354
:10008000206E6F742066697420696E204D656D6FF7
:100090007279004F757470757420646F6573206E8B
:1000A0006F742066697420696E204D656D6F72797A
:1000B00000375365676D656E7420646F6573206EDD
:1000C0006F742066697420696E204D656D6F72795A
:1000D0002100536572766F20646F6573206E6F74B4
:1000E0002066697420696E204D656D6F72792100FC
:1000F0004C434420646F6573206E6F74206669748E
:1001000020696E204D656D6F72792100416E616CC2
:100110006F67496E20646F6573206E6F7420666927
:100120007420696E204D656D6F7279004F75747023
:1001300075745368696674657220646F6573206EA8
:100140006F742066697420696E204D656D6F7279D9
:1001500000496E7075745368696674657220646FC7
:100160006573206E6F742066697420696E204D651A
:100170006D6F7279004661696C757265206F6E20D3
:1001800072656164696E6720636F6E6669670045BA
:100190006E636F6465727320646F6573206E6F7435
:1001A0002066697420696E204D656D6F7279007EDE
:1001B000306D79335B5F707F7B771F0D3D4F47005C
:1001C000000000000000000000000000000000002F
:1001D0000000000000000000000000800180257E7B
:1001E000306D79335B5F707F7B0000000900000099
:1001F000777F4E7E4F475F37307C000E00767E67FC
:100200007E775B463E000000336D4E137800080099
:100210007D1F0D3D4F477B373038000600151D67A9
:1002200073055B0F1C000000276D4E007800004D29
:10023000465374657070657220646F6573206E6FCD
:10024000742066697420696E204D656D6F72790047
:100250005374657070657220646F6573206E6F747F
:100260002066697420696E204D656D6F727921007A
:10027000446576696365427566666572204F76658A
:1002800072666C6F7721004C6F6164696E672063E2
:100290006F6E666967206661696C656400000000C6
:1002A00000240027002A0000000000250028002B61
:1002B00000000000002300260029000404040404B8
:1002C0000404040202020202020303030303030103
:1002D00002040810204080010204081020010204DA
:1002E00008102000000008000201000003040700BD
:1002F0000000000000000000A02311241FBECFEF6B
:10030000D8E0DEBFCDBF11E0A0E0B1E0E8E4FEE55B
:1003100002C005900D92A83FB107D9F727E0A8EFDA
:10032000B1E001C01D92A43DB207E1F711E0CDE7B5
:10033000D1E004C02197FE010E94062BCC37D107E3
:10034000C9F70E9437240C94222F0C940000AC01B2
:100350001092C3069091930780919207FA01BF0112
:10036000641B750B2091C30630813093C306931331
:1003700004C0921302C01092C3063081311104C030
:10038000921721F0CB0108953817D1F33196E7CFBA
:100390000F931F93CF93DF9380918707882309F4EE
:1003A00046C0D0E0C0E0813029F482E08093870726
:1003B000C7ECD6E080918807882341F1209721F48B
:1003C000C0918C07D0918D078E01CE010E94A701AC
:1003D000892B29F42196F80180818111F5CFF8014C
:1003E0008081882309F1C8010E94A701F801E80F64
:1003F000F91F8081882311F010823196F0938D07C8
:10040000E0938C0710938B0700938A0780918A07EB
:1004100090918B07892B59F081E080938807DF91B9
:10042000CF911F910F91089510E000E0EBCF80E095
:10043000F6CF0E94C801882351F081E0809388079D
:100440008093890780918A0790918B070895109275
:10045000890790E080E00895833081F028F48130AE
:1004600099F08230A9F008958730A9F08830C9F05A
:100470008430B1F4809180008F7D03C08091800032
:100480008F7780938000089584B58F7784BD089519
:1004900084B58F7DFBCF8091B0008F778093B000C3
:1004A00008958091B0008F7DF9CFCF93DF93282FEF
:1004B00030E0F901ED51FD4F8491F901E153FD4F19
:1004C000D491F901E554FD4FC491CC23A1F08111E1
:1004D0000E942C02EC2FF0E0EE0FFF1FEF54FD4FB7
:1004E000A591B491EC91ED2381E090E009F480E0D6
:1004F000DF91CF91089580E090E0FACF1F93CF93E2
:10050000DF93282F30E0F901ED51FD4F8491F9017F
:10051000E153FD4FD491F901E554FD4FC491CC2333
:10052000A9F0162F81110E942C02EC2FF0E0EE0FA3
:10053000FF1FE955FD4FA591B4918FB7F894EC9149
:10054000111108C0D095DE23DC938FBFDF91CF91CE
:100550001F910895DE2BF8CFCF93DF9390E0FC013D
:10056000E153FD4F249185549D4FFC0184918823D4
:10057000C9F090E0880F991FFC01E356FD4FA5914B
:10058000B491FC01E955FD4FC591D49161110DC0A5
:100590009FB7F8948C91209582238C93888128238F
:1005A00028839FBFDF91CF910895623051F49FB7A8
:1005B000F8943C91822F809583238C93E8812E2B95
:1005C000EFCF8FB7F894EC912E2B2C938FBFEACFFF
:1005D0001F93CF93DF93182FEB0161E00E94AC02D1
:1005E000209739F460E0812FDF91CF911F910C9417
:1005F0007E02CF3FD10511F461E0F5CFE12FF0E0AD
:10060000ED51FD4FE491E33031F140F4E130B1F0D0
:10061000E230E1F0C038D1057CF7E4CFE73029F1D2
:10062000E83059F1E430B1F7809180008062809326
:100630008000D0938B00C0938A0004C084B580688A
:1006400084BDC7BDDF91CF911F91089584B58062AD
:1006500084BDC8BDF7CF8091800080688093800002
:10066000D0938900C0938800EDCF8091B00080685E
:100670008093B000C093B300E5CF8091B00080625A
:100680008093B000C093B400DDCF8E3008F08E5060
:100690008770806480937C0080917A00806480936E
:1006A0007A0080917A0086FDFCCF8091780090914D
:1006B000790008953FB7F89480917A0490917B0473
:1006C000A0917C04B0917D0426B5A89B05C02F3F66
:1006D00019F00196A11DB11D3FBFBA2FA92F982F68
:1006E0008827BC01CD01620F711D811D911D42E063
:1006F000660F771F881F991F4A95D1F708952FB766
:10070000F8946091760470917704809178049091C8
:1007100079042FBF0895DC01ED91FC910190F081E7
:10072000E02D0994AF92BF92CF92DF92EF92FF92A9
:100730000F931F93CF93DF936C017B018B01040F09
:10074000151FEB015E01AE18BF08C017D10759F0A5
:100750006991D601ED91FC910190F081E02DC601E7
:100760000995892B79F7C501DF91CF911F910F91E1
:10077000FF90EF90DF90CF90BF90AF900895FC0175
:10078000538D448D252F30E0842F90E0821B930BF6
:10079000541710F0CF96089501970895FC01918D9C
:1007A000828D981779F0A28DAE0FBF2FB11D5D9687
:1007B0002C91828D8F5F60E60E94E62A928F822FB5
:1007C00090E008958FEF9FEF0895FC01918D828D49
:1007D000981731F0828DE80FF11D858D90E0089516
:1007E0008FEF9FEF0895FC01918D228D892F90E06E
:1007F000805A9F4F821B910960E670E00E94F22AA6
:10080000089581E096E00E94F30321E0892B09F42A
:1008100020E0822F089580E090E0892B29F00E944B
:10082000010481110C9400000895FC01A48DA80F0F
:10083000B92FB11DA358BF4F2C91848D90E0019624
:100840008F739927848FA689B7892C93A089B18942
:100850008C91837080648C93938D848D981306C0E3
:100860000288F389E02D80818F7D80830895EF9247
:10087000FF920F931F93CF93DF93EC0181E0888F5A
:100880009B8D8C8D98131AC0E889F989808185FF2A
:1008900015C09FB7F894EE89FF896083E889F989CC
:1008A00080818370806480839FBF81E090E0DF91CE
:1008B000CF911F910F91FF90EF900895F62E0B8D21
:1008C00010E00F5F1F4F0F731127E02E8C8D8E11DC
:1008D0000CC00FB607FCFACFE889F989808185FF43
:1008E000F5CFCE010E941504F1CFEB8DEC0FFD2F5B
:1008F000F11DE358FF4FF0829FB7F8940B8FEA8900
:10090000FB8980818062CFCFCF93DF93EC01888D0C
:100910008823B9F0AA89BB89E889F9898C9185FD7A
:1009200003C0808186FD0DC00FB607FCF7CF8C9108
:1009300085FFF2CF808185FFEDCFCE010E941504A7
:10094000E9CFDF91CF910895089520910204260FF9
:100950003327331F21323105ECF42091A404FC012C
:1009600090E080E0243069F082E00895A0910204D4
:100970002191AC0140525C4FA40FB52FB11D2C93B7
:100980000196861798F380910204680F6093020421
:1009900080E0089581E008951092A40481E080939E
:1009A000A30410927E0461E082E10E947E0261E075
:1009B00083E10E947E02E9EBF0E080818E7F8083FC
:1009C00080818D7F808388E48093B80085E4809364
:1009D000BC000895CF93DF9391E09093DF038823C9
:1009E000B9F0C091B800D091BA008091BC008A7B68
:1009F0008093BC0060E082E10E947E0260E083E1BF
:100A00000E947E020E94CC04D093BA00C093B8002A
:100A1000DF91CF9108958F929F92AF92BF92CF9224
:100A2000DF92EF92FF920F931F93CF93DF93D091BA
:100A3000CD04D13208F0D7C0182FC091CC040E9449
:100A40005A036B017C018091A40481116BC082E088
:100A50008093A4041093A3048FEF8093A2041092B8
:100A6000A104D093A004ACEAB4E0E0E8F4E080E0B4
:100A7000D81391C010927F0480917F04CC0FC82BB3
:100A8000C0937F0480917E04813009F088C0109269
:100A90007E040E945A036B017C0180917F04809345
:100AA000BB008091A6049091A704A091A804B091E6
:100AB000A904892B8A2B8B2BA1F00E945A03009149
:100AC000A6041091A7042091A8043091A9046C19E0
:100AD0007D098E099F09061717072807390708F4AB
:100AE00042C08091BC0083FDD8CF85EC8093BC00D0
:100AF0000E945A036B017C018091A404823009F4A6
:100B000050C08091A2048F3F09F46FC08091A2046D
:100B1000803209F46CC08091A204803309F469C06A
:100B200084E026C08091A6049091A704A091A80417
:100B3000B091A904892B8A2B8B2B09F484CF0E94B6
:100B40005A038090A6049090A704A090A804B090A7
:100B5000A9046C197D098E099F0986169706A806B7
:100B6000B90608F070CF8091A5040E94EA0485E0E0
:100B70001092AB041092CD041092AA04DF91CF9191
:100B80001F910F91FF90EF90DF90CF90BF90AF90AB
:100B90009F908F9008959D9191938F5F69CF85EE7F
:100BA000A5CF8091A6049091A704A091A804B0912C
:100BB000A904892B8A2B8B2B09F49ECF0E945A0300
:100BC0000091A6041091A7042091A8043091A904D3
:100BD0006C197D098E099F09061717072807390721
:100BE00008F08ACFC0CF81E0C3CF80E0C1CF82E0E0
:100BF000BFCF83E0BDCF81E00C940B05089508952D
:100C00000895E091DE038091DD03E81730F4F0E011
:100C1000E354FC4F808190E008958FEF9FEF08959B
:100C20009091DE038091DD032FEF3FEF981748F49A
:100C3000E92FF0E0E354FC4F208130E09F5F909378
:100C4000DE03C90108958091DD039091DE03891BC5
:100C5000990B0895CF92DF92EF92FF920F931F931B
:100C6000CF93DF937C01CB018A012091AA04222338
:100C700089F0EB016B01C40ED51ECC15DD0569F0C2
:100C80006991D701ED91FC910190F081E02DC701B0
:100C90000995F3CF642F0E94A504C801DF91CF917D
:100CA0001F910F91FF90EF90DF90CF900895CF9319
:100CB000DF931F92CDB7DEB769832091AA04222368
:100CC000F9F02091CD04203258F021E030E0FC0111
:100CD0003383228390E080E00F90DF91CF910895DD
:100CE0008091AB04E82FF0E0E455FB4F99819083AD
:100CF0008F5F8093AB048093CD0481E090E0ECCFD4
:100D000061E0CE0101960E94A504F7CFCF93C82FD2
:100D1000682F64608CEE95E00E9457066C2F70E09F
:100D20006B7F8CEE95E0CF910C9457060F931F9339
:100D3000CF93DF938C01C62FD42FFC01848191E0E7
:100D40009093AA048093CC041092AB041092CD042B
:100D5000862F807F842B9585892B0E948606F0E163
:100D6000CF9FC0011124F8019585892B8D2B0E94FE
:100D70008606DF91CF911F910F910C94FB05CF93C5
:100D8000DF93CDB7DEB728970FB6F894DEBF0FBE5E
:100D9000CDBF28E0EFE3F1E0DE01119601900D9266
:100DA0002A95E1F7FC012385241710F44FEF420F39
:100DB00050E0440F551F21E030E02C0F3D1F420F43
:100DC000531FFA012081620F606840E028960FB639
:100DD000F894DEBF0FBECDBFDF91CF910C94960685
:100DE000CF93DF93EC0140E061E00E9496068BE335
:100DF0009FE10197F1F78985882339F040E060E0B1
:100E0000CE01DF91CF910C94BF06DF91CF91089571
:100E100041E00E94960681E090E00895FC01248163
:100E200031E03093AA042093CC041092AB041092CA
:100E3000CD04607F8585862B0E9486060C94FB0579
:100E4000AF92BF92CF92DF92EF92FF920F931F93D8
:100E5000CF93DF936C01FC01848191E09093AA040D
:100E60008093CC041092AB041092CD04EB01042FBC
:100E700010E05B01A00EB11EF12CEE24E394CA1524
:100E8000DB0541F18991F60195859160807F892B81
:100E90000E948606FE0131972081F0E12F02900129
:100EA0001124F60185858160822B0E948606F394C9
:100EB000F7E0FF1520F780E00E940B05F601848122
:100EC000E092AA048093CC041092AB041092CD045B
:100ED000F12CD5CF0E94FB05C8010197DF91CF917E
:100EE0001F910F91FF90EF90DF90CF90BF90AF9048
:100EF000089590E080E00895CF93DF93FC01238173
:100F0000222359F1EC0161E084810E94AC0261E08E
:100F10008D810E94AC028B81843011F08830B1F455
:100F200061E08E810E94AC0261E08F810E94AC0280
:100F30008FA58F3F91F061E00E94AC026EA581E029
:100F400068278FA5DF91CF910C947E02833011F03A
:100F5000863071F761E08E81E9CFDF91CF910895FE
:100F6000CF93DF93FC0123812223A9F0EC010190B0
:100F7000F081E02D0480F581E02D60E009958FA5DA
:100F80008F3F49F061E00E94AC026EA58FA5DF9112
:100F9000CF910C947E02DF91CF910895DC01ED9109
:100FA000FC9124813581477055276627772741506A
:100FB000510961097109473051056105710560F4F6
:100FC000FA01EB51F84F0C94062BEF07F107F307EA
:100FD000F507F707F907FB0761E0F901099465E0F8
:100FE000FCCF64E0FACF66E0F8CF62E0F6CF6AE0CB
:100FF000F4CF68E0F2CF69E0F0CFCF93DF93EC015C
:10100000CB01BA0126E030E040E050E00E943C2AEB
:10101000623071058105910589F16CF461157105E6
:1010200081059105D1F06130710581059105F9F0D7
:10103000DF91CF910895643071058105910561F1CB
:1010400024F1653071058105910591F7E881F981F9
:101050000480F581E02D66E006C0E881F981048016
:10106000F581E02D64E0CE01DF91CF910994E88114
:10107000F9810480F581E02D65E0F5CFE881F98103
:101080000480F581E02D61E0EECFE881F9810480F4
:10109000F581E02D63E0E7CFE881F9810480F581F7
:1010A000E02D62E0E0CFDC01ED91FC910480F58160
:1010B000E02D43705527662777274230510561059B
:1010C000710571F0433051056105710559F04130EA
:1010D00051056105710511F065E0099466E0FDCFE9
:1010E0006AE0FBCF69E0F9CFCF93DF93EC01CB014E
:1010F000BA0123E030E040E050E00E943C2A613039
:1011000071058105910599F06230710581059105A0
:10111000A9F0672B682B692BC1F4E881F981048061
:10112000F581E02D64E0CE01DF91CF910994E88153
:10113000F9810480F581E02D61E0F5CFE881F98146
:101140000480F581E02D62E0EECFDF91CF9108952C
:10115000DC01ED91FC910480F581E02D4370552771
:1011600066277727423051056105710571F04330DC
:1011700051056105710559F0413051056105710551
:1011800011F062E0099463E0FDCF61E0FBCF60E025
:10119000F9CFCF93DF93EC01E881F9810480F581E9
:1011A000E02D8A8160E0811162E0CE010995E8813D
:1011B000F9810480F581E02D8A8161E0811163E08D
:1011C000CE0109958CA59DA58230910538F0880F38
:1011D000991F880F991F05970197F1F7E881F98109
:1011E0000480F581E02D8A8160E0811162E0CE010A
:1011F000DF91CF910994CF93DF93EC0120E030E0B1
:10120000A9016C897D898E899F890E94212C1816DD
:101210002CF4E8A9F9A9DF91CF910994EAA9FBA9D7
:10122000FACFCF92DF92EF92FF920F931F93CF935B
:10123000DF93DC011396CC91C43039F0C83059F1FA
:10124000C33019F0C63049F1C2E08C010C5F1F4F6A
:10125000F12CE12CC62ED12CD1E0F8016481C6011D
:101260000E2C02C0959587950A94E2F780FD6D27B4
:101270000F5F1F4F80810E947E02BFEFEB1AFB0AB7
:10128000EC1658F3DF91CF911F910F91FF90EF90E3
:10129000DF90CF900895C4E0D8CFC3E0D6CFDC0173
:1012A0001396EC911397E93008F038C0F0E0E55A56
:1012B000F64F0C94062B64096A09700976097C09BB
:1012C0008E0982098E098809ED91FC910084F185CF
:1012D000E02D0994ED91FC910284F385E02DF9CF86
:1012E000ED91FC910484F585E02DF3CFED91FC9117
:1012F0000684F785E02DEDCFED91FC910088F18912
:10130000E02DE7CFED91FC910288F389E02DE1CF4C
:10131000ED91FC910488F589E02DDBCF08954F9283
:101320005F926F927F928F929F92AF92BF92CF9275
:10133000DF92EF92FF920F931F93CF93DF93EC0115
:10134000C888D988EA88FB888C859D85AE85BF854D
:10135000C81AD90AEA0AFB0A6C897D898E899F8995
:101360009B01AC010E9468294B015C016C8D7D8D55
:101370008E8D9F8D9B01AC010E940D2B9B01AC01BA
:10138000C501B4010E94792B0E94EB2BC114D1043A
:10139000E104F10409F0B1C06230710581059105E5
:1013A0000CF0CBC01CA21DA21EA21FA21C8A1D8A6B
:1013B0001E8A1F8A1CAA1DAA1EAA1FAADF91CF91EE
:1013C0001F910F91FF90EF90DF90CF90BF90AF9063
:1013D0009F908F907F906F905F904F900895101620
:1013E000110612061306B4F46C157D058E059F05D3
:1013F0001CF42A812111A1C09B01AC0188279927E7
:10140000DC01821B930BA40BB50B8CAB9DABAEAB7D
:10141000BFAB93C0011511052105310509F48DC03D
:101420006C157D058E059F050CF087C08A81882389
:1014300009F483C030952095109501951F4F2F4FCB
:101440003F4F0CAB1DAB2EAB3FAB77C00115110569
:101450002105310509F471C08824992454018C18A0
:101460009D08AE08BF08681579058A059B050CF034
:1014700064C08A81811161C0DDCFCCACDDACEEAC43
:10148000FFACA7019601C701B6010E940D2B2B01ED
:101490003C01C501B4010E94092920E030E040E888
:1014A00050E40E94682920E030E040E85FE30E94B9
:1014B0000D2B9B01AC01C301B2010E94792B9B0152
:1014C000AC01C701B6010E940C2B3B016C01FE016F
:1014D000E05CFF4FE080F180028113819701A80159
:1014E0000E94212C181614F473018601C701D8013B
:1014F0008CAF9DAFAEAFBFAF3AC00CA91DA92EA94E
:101500003FA91C141D041E041F040CF468CF101600
:101510001106120613060CF099CF00271127980127
:101520000C191D092E093F096017710782079307DF
:101530000CF062CF2A8121115FCF8CA89DA8AEA8A4
:10154000BFA881149104A104B10409F096CF88AD1D
:1015500099ADAAADBBAD8CAF9DAFAEAFBFAF81E0D3
:101560001C141D041E041F040CF080E08A833FEF4E
:10157000831A930AA30AB30A8CAA9DAAAEAABFAA89
:10158000CCACDDACEEACFFACC701B6010E94F22BD7
:101590006CA37DA38EA39FA3A701960160E074E2D4
:1015A00084E799E40E94792B6C8B7D8B8E8B9F8BCB
:1015B0002A81211103CF90586C8B7D8B8E8B9F8B52
:1015C000FDCE8F929F92AF92BF92EF92FF920F93B8
:1015D0001F93CF937C018B01C42F0E947F03F801DE
:1015E00080809180A280B380DC01CB0188199909A9
:1015F000AA09BB094C2F50E070E060E08417950702
:10160000A607B70748F0F70109950E947F03F80184
:101610006083718382839383CF911F910F91FF9099
:10162000EF90BF90AF909F908F9008952091950379
:1016300030919603280F311D81E02D32314008F0A2
:1016400080E00895FC0184818823E1F0818181118B
:1016500019C081E0818382819381FC014089518995
:1016600062897389403659476E4F7F4F59F040E683
:1016700059E76EEF7FEFFC01408B518B628B738BD0
:101680000C948F0908954F925F926F927F928F9280
:101690009F92AF92BF92DF92EF92FF920F931F93B0
:1016A000CF93DF93D12C08E810E0B8E5EB2EB2E041
:1016B000FB2EC4EB4C2E512C612C712C80916802B6
:1016C000D81608F096C0ED2DF0E0EE0FFF1FEC5994
:1016D000FD4FC081D18189899A89AB89BC894D85AB
:1016E0005E856F85788984179507A607B70709F483
:1016F0007AC0481759076A077B070CF076C0019734
:10170000A109B109898B9A8BAB8BBC8BA989BA894A
:10171000A03282E0B807ACF52B854801821A910807
:1017200027FD9394880C991C880C991C092C000C9B
:10173000AA08BB082C85C701821B910927FD939538
:101740009C01220F331F220F331F032E000C440B6A
:10175000550B281939094A095B09A53BB10514F055
:10176000A4EBB0E0B7FF02C0B0E0A0E00E94662AA0
:10177000A30192010E943C2A820E931EA41EB51E54
:10178000D401EA85EC3078F52B85C801821B9109DC
:1017900027FD93959C01220F331F220F331FA217A1
:1017A000B3077CF02C85C701821B910927FD939517
:1017B0009C01220F331F220F331FA217B3070CF413
:1017C0009D0122503109220F331F4FB7F8948E2FFD
:1017D00090E0FC01EE0FFF1FE80FF91FE956FC4FE8
:1017E000328321834FBFD39469CF0196A11DB11DD0
:1017F00089CFDF91CF911F910F91FF90EF90DF90F4
:10180000BF90AF909F908F907F906F905F904F9020
:101810000895EF92FF921F93CF93DF93EC01162F61
:101820008C8180FF10C0603170F46D837E0184E094
:10183000E80EF11C612F617089910E947E0216955D
:10184000EC16FD06B9F7DF91CF911F91FF90EF9055
:101850000895E0915502F0915602309729F0DC018D
:101860004D915C9181E00994089541110BC0E09184
:101870005502F0915602309729F0DC014D915C91B0
:1018800080E009940C94290C4F925F926F927F92A2
:101890008F929F92AF92BF92CF92DF92FF920F935F
:1018A0001F93CF93DF93F12C80914F02F81608F02D
:1018B000EEC0EF2DF0E0EE0FFF1FE35CFD4FC081A7
:1018C000D1818A81882309F4B3C088810E9455029E
:1018D0008C0189810E9455026C010E947F034B019B
:1018E0005C0181E090E0CD2811F090E080E0880F6D
:1018F000991F21E0012B09F020E0922F982B4B8DAE
:101900005C8D6D8D7E8D95018401041B150B260B5E
:10191000370BB901A801453651056105710508F479
:1019200089C08885823008F485C08B8E9C8EAD8EF0
:10193000BE8E81508887EE859E1709F445C0888544
:1019400003E310E0873010F401E010E06D8524E03F
:10195000E202F0011124492F092E000C550BE42B53
:10196000F52BE158FE4F708170039001719F300D8F
:101970001124062E02C0220F331F0A94E2F7EF85CE
:10198000F8892E0F3F1F388B2F874C0F5D1FFA01F0
:1019900041854423C1F04B885C886D887E884F8ADE
:1019A000588E698E7A8E8B8A9C8AAD8ABE8A02C0D6
:1019B000359527956A95E2F73A8B298B8C3008F09C
:1019C0008BE08F5F88879E8709891A898D819E8128
:1019D0000817190769F19801281B390BC901E09113
:1019E0003B02F0913C026901CC0CDD1C309709F4FC
:1019F0004BC04B815C812F5C3F4F23363105E0F5B6
:101A000097FD30C0688180E00995C00ED11E31E499
:101A1000C3163FE1D30654F08F85988983709927C8
:101A2000988B8F871A8A198A10E000E01E830D8335
:101A3000F3943ACF4F89588D698D7A8D9501840141
:101A4000041B150B260B370BB901A801453F51406C
:101A50006105710508F46FCF8B8E9C8EAD8EBE8EA6
:101A6000188669CF698182E00995C8018C199D09A2
:101A7000803C904E8CF2DACF97FD03C0688181E004
:101A8000C3CF698183E0F0CF37FDEFCFBECFDF91C9
:101A9000CF911F910F91FF90DF90CF90BF90AF90AB
:101AA0009F908F907F906F905F904F900895DC0192
:101AB000842F2091390230913A02232B49F0E09192
:101AC0003702F0913802309719F04D915C910994EA
:101AD00008955F926F927F928F929F92AF92BF9282
:101AE000CF92DF92EF92FF920F931F93CF93DF93EA
:101AF0001F92CDB7DEB7912CCC24C394D12C80910A
:101B00003602981608F096C0A0903902B0903A02BA
:101B1000A114B10409F487C0E92DF0E0EE0FFF1F16
:101B2000E05DFD4F00811181F801838160E1862E27
:101B300081FF02C058E0852E82FD49C0F5018581F4
:101B40008683F12CE12C8A94682DC5010E94090C32
:101B5000F80182810E9455028983F80182810E94E6
:101B600055028983EE0CFF1C298181E090E0211150
:101B700002C090E080E0E82AF92A8110E4CFF50164
:101B80006681C5010E94090CF801A480B580EA14A1
:101B9000FB0409F448C0838138E0532E81FD02C064
:101BA00020E1522EAE24BF243701812CA0FE06C0B6
:101BB000462D4170682DC8010E94570DB694A79418
:101BC0007694679483945810F1CFF8012AC0F801F5
:101BD00082810E9455023C0141E0892B09F440E0DA
:101BE000F5018581682D0E94E62A692F760102C0E1
:101BF000EE0CFF1C9A95E2F7F801848195818E2105
:101C00009F2121E0892B09F420E0421719F0C80137
:101C10000E94570DF80184819581672831F0E82AE8
:101C2000F92AF582E48293946ACFE094F094E82252
:101C3000F922CBCF0F90DF91CF911F910F91FF90A1
:101C4000EF90DF90CF90BF90AF909F908F907F905C
:101C50006F905F900895DC01E0912E02F0912F02C9
:101C6000309761F013968C911397882339F04D913A
:101C70005C91119712966C9181E009940895DC01B2
:101C8000E0912E02F0912F02309759F013968C912B
:101C90001397811106C04D915C91119712966C912A
:101CA000099408951F93CF93DF9310E080912D0244
:101CB0001817F0F4E12FF0E0EE0FFF1FE75FFD4F84
:101CC000C081D1818A810E9455029B81891751F080
:101CD00091E0811101C090E09B83811105C0CE018C
:101CE0000E943F0E1F5FE2CFCE010E942B0EFACF63
:101CF000DF91CF911F9108951F93CF93DF9310E051
:101D0000809108021817D0F5E12FF0E0EE0FFF1FC9
:101D1000E450FE4FC081D181E88DF0E03396EE0FA4
:101D2000FF1FEC0FFD1F8E899F8920813181821B4F
:101D3000930B9F8B8E8B8A810E944503E88DF0E088
:101D40003396EE0FFF1FEC0FFD1F91838083E88D0C
:101D5000F0E03396EE0FFF1FEC0FFD1F8E899F8979
:101D600020813181820F931F9F8B8E8B888D8F5F97
:101D7000888F888D8770888F1F5FC2CFDF91CF914A
:101D80001F910895CF93C0E080910802C817B8F55D
:101D9000EC2FF0E0EE0FFF1FE450FE4FA081B18169
:101DA00056968D919C91579723E0969587952A9505
:101DB000E1F713962D913C911497AC01421B530B04
:101DC0009A0157FF03C031952195310915964C9121
:101DD00015974217130609F084F414969C938E937A
:101DE0001397E091FA01F091FB01309731F04D919A
:101DF0005C91119712966C910995CF5FC5CFCF91E9
:101E000008950E947F0360934E0470934F04809363
:101E10005004909351040895FF920F931F93CF9312
:101E2000DF93F82E062FC7E0D0E010E061E0802FAE
:101E30000E947E028F2D0E9455020C2E01C0880F39
:101E40000A94EAF7182B60E0802F0E947E02219707
:101E500068F7812FDF91CF911F910F91FF90089527
:101E60009F92AF92BF92CF92DF92EF92FF920F9329
:101E70001F93CF93DF9300E080915402081708F07E
:101E800041C0E02FF0E0EE0FFF1FE05BFD4FC0818F
:101E9000D18161E08B810E947E0261E08A810E9493
:101EA0007E0210E08D81181738F56B818C810E94BD
:101EB0000C0FC82E5E01A10EB11CF501D7808D1547
:101EC000C9F0912E990C990C990CE82EF12C8D2DBE
:101ED0008E2580FF07C04E2D4170692D6F0DCE01FC
:101EE0000E94350CD694E694F394F8E0FF12EFCFFD
:101EF000F501C7821F5FD6CF60E08A810E947E0213
:101F00000F5FBACFDF91CF911F910F91FF90EF90AC
:101F1000DF90CF90BF90AF909F9008957F928F9267
:101F20009F92AF92BF92CF92DF92EF92FF920F9368
:101F30001F93CF93DF93C0E080912D02C81760F408
:101F4000EC2FF0E0EE0FFF1FE75FFD4F80819181E6
:101F50000E942B0ECF5FF0CFC0E080912D02C817FA
:101F600060F4EC2FF0E0EE0FFF1FE75FFD4F808184
:101F700091810E943F0ECF5FF0CF10E0809154021C
:101F8000181708F071C0E12FF0E0EE0FFF1FE05BC3
:101F9000FD4FC081D18161E08B810E947E0261E0B2
:101FA0008A810E947E027E0187E0E80EF11C5701C3
:101FB000D12CC12C8D818C151D0461F05CF06B81DE
:101FC0008C810E940C0FF50181935F01FFEFCF1A06
:101FD000DF0AF0CF60E08A810E947E024701712C07
:101FE000D12CC12C8D818C151D04D1F0CCF0F401C5
:101FF00081914F0100E0A82EB12C80FF05C0672D14
:10200000600FCE010E94290CB594A7948A2D0F5F12
:10201000083089F7FFEFCF1ADF0A88E0780EE2CFA9
:10202000D12C912C812C8D8188151904D9F0D4F0F4
:10203000F70181917F0100E0A82EB12C80FD06C040
:1020400040E06D2D600FCE010E94350CB594A79431
:102050008A2D0F5F083081F7FFEF8F1A9F0A88E003
:10206000D80EE1CF1F5F8ACFDF91CF911F910F91E3
:10207000FF90EF90DF90CF90BF90AF909F908F90A8
:102080007F900C94010F0F931F93CF93DF93082F32
:10209000162FD42FC8E06D2F661F6627661F802F6E
:1020A0000E947E02DD0F61E0812F0E947E0260E0CF
:1020B000812F0E947E02C15071F7DF91CF911F9155
:1020C0000F910895EF92FF920F931F93CF93DF9399
:1020D00000D0CDB7DEB78C0149832A83660F771F06
:1020E000F801E688F788EE0CFF1CCF01801B910BEE
:1020F0008E159F0514F41192F8CF8981F801E60F2F
:10210000F71F81838A81808360E0F80184890E94BF
:102110007E021E141F046CF4F1E0EF1AF108F801BE
:10212000EE0DFF1D4081F801628980890E944310F5
:10213000F0CF61E0F80184890F900F90DF91CF918B
:102140001F910F91FF90EF900C947E0277FD0DC0D0
:10215000FC0126893789621773073CF420E041119E
:1021600001C021E04CE00C9462100895FF920F939F
:102170001F93CF93DF93F82EC0E080915F02C817C2
:10218000B8F4EC2FF0E0EE0FFF1FE05AFD4F008196
:102190001181D0E0F801808D8D1741F06D2F70E036
:1021A0004F2DC8010E94A610DF5FF4CFCF5FE5CFAF
:1021B000DF91CF911F910F91FF9008950F931F937F
:1021C000CF93DF93FC01208D2223F9F06217E8F40E
:1021D000062F10E04423B1F0EC0186899789081797
:1021E00019073CF42FEF240F4AE0B801CF010E94F9
:1021F000621040E0B801CE01DF91CF911F910F91A5
:102200000C94A61041E0B801F7CFDF91CF911F9158
:102210000F910895FF920F931F93CF93DF93EC01DB
:1022200060E088810E947E02FB800F2D10E00C5F31
:102230001F4F0C0F1D1FFF2049F0F80142918F0125
:1022400069818A810E944310FA94F5CF61E0888108
:10225000DF91CF911F910F91FF900C947E020E940D
:10226000C801882359F081E080938807809389070B
:1022700080918A0790918B070C947428109289079B
:1022800090E080E008951F93CF93DF930E942F1179
:10229000EC010E942F11182F0E942F11CC0FDD1F6F
:1022A000C05ADD4F482F612F888199810E94DE102E
:1022B000DF91CF911F910C94010F0C9443117F92E9
:1022C0008F929F92AF92BF92CF92DF92EF92FF9246
:1022D0000F931F93CF93DF930E942F11EC010E9465
:1022E0002F118C010E9419024C010E942F115C01D8
:1022F0000E942F11CC0FDD1FC05ADD4FE880F980FE
:10230000F701208D222381F1C7E0D0E0712C6C0110
:10231000DD241127BB244C2F4F5F96010C2E02C0E9
:10232000359527950A94E2F720FF1CC0F70126890E
:10233000378902171307ACF4F401E70DF11DE081B2
:10234000F0E0E155FE4F2491B5010C2E02C07595C9
:1023500067950A94E2F760FD2068B801C7010E9402
:10236000621073942197B8F6DF91CF911F910F916E
:10237000FF90EF90DF90CF90BF90AF909F908F90A5
:102380007F900C94010FCF930E942F11C82F0E94B1
:102390002F11BC018C2F0E94E802CF910C94010FE9
:1023A0000E942F11209158042817190661F05CF043
:1023B000880F991FFC01EC5AFB4F808191810E948C
:1023C000220B0C94010F08950E942F1120915804A4
:1023D0002817190611F10CF1880F991FFC01EC5A0E
:1023E000FB4F0190F081E02D0280F381E02D1486F7
:1023F000158616861786108A118A128A138A14AADD
:1024000015AA16AA17AA14A215A216A217A2148A10
:10241000158A168A178A0C94010F08958F929F923D
:10242000AF92BF92CF92DF92EF92FF921F93CF9322
:10243000DF930E942F11EC010E942F11BC018091AB
:1024400068028C171D0609F00CF4B0C0CC0FDD1F1C
:10245000CC59DD4F0990D881C02DCD80DE800D2C68
:10246000000CEE08FF0889809A80092C000CAA084D
:10247000BB082F813885032E000C440B550B2C19FB
:102480003D094E095F09072E000C880B990B68194E
:1024900079098A099B090E94D62A2B813C81032E47
:1024A000000C440B550B281939094A095B090E9495
:1024B0003C2ABA01A9014C0D5D1D6E1D7F1D052E24
:1024C000000C660B770B8D859E85AF85B8898417C8
:1024D0009507A607B70709F45CC04D875E876F872D
:1024E000788B8985811155C08A858C3008F04FC062
:1024F000188161E0812F0E94AC028A85282F30E08C
:10250000F901EE0FFF1FE20FF31FE956FC4F1F7397
:102510009081907C912B90831B861C862CE0622FEF
:102520000E94E62A829FB001112430E020E0AB0136
:10253000420F531FFA01EE0FFF1FE40FF51FE9567C
:10254000FC4F908196FD16C02F5F3F4F2C30310518
:1025500071F781110FC01092800082E0809381009A
:102560001092850010928400B19A80916F00826071
:1025700080936F00EA858E2F90E0FC01EE0FFF1F25
:10258000E80FF91FE956FC4F80818064808381E069
:102590008987DF91CF911F91FF90EF90DF90CF90CF
:1025A000BF90AF909F908F900C94010FDF91CF91CF
:1025B0001F91FF90EF90DF90CF90BF90AF909F90D2
:1025C0008F900895EF92FF920F931F93CF93DF9315
:1025D0000E942F118C010E9419027C01EC01FC0168
:1025E000DE018081882349F090919307891301C00F
:1025F0003196808189933196F3CFAE17BF0710F4DF
:102600001D92FBCF000F111FF801E95AFD4F008109
:102610001181F80186858823B1F0C0E0F801818935
:102620008C1789F04C2F60E0C8010E94BF06F801AA
:102630004089B701C49F600D711D1124C8010E941B
:102640002007CF5FEBCFDF91CF911F910F91FF90CC
:10265000EF900C94010F2091FF0530910006821736
:10266000930710F40C94262A80E008950F931F938B
:10267000CF93DF938C01EB01F801808191819C0164
:102680002F5F3F4F318320830E942B132881398194
:10269000A9014F5F5F4F5983488322533B4FF90194
:1026A0008083288139812C3D310560F48A3321F7FC
:1026B00023533B4FF901108281E0DF91CF911F91AD
:1026C0000F91089580E0F9CFEF92FF920F931F933F
:1026D000CF93DF93EC01E090FF05F0900006888136
:1026E00099818C010F5F1F4F198308830E942B1360
:1026F000E016F10650F08A3391F781E0DF91CF9137
:102700001F910F91FF90EF90089580E0F7CFAF9267
:10271000BF92CF92DF92EF92FF920F931F93CF93CE
:10272000DF9300D000D0CDB7DEB75C0119821A82EA
:102730001B821C82CE0101967C0110E000E06C013E
:10274000F501808191819C012F5F3F4F3183208370
:102750000E942B13F7018083F8018E3241F00F5F46
:102760001F4F8FEFE81AF80A0430110549F7EC0DF6
:10277000FD1D1082C6010E9474280F900F900F90CB
:102780000F90DF91CF911F910F91FF90EF90DF900D
:10279000CF90BF90AF900895DF92EF92FF920F938A
:1027A0001F93CF93DF938C019C01240F351F8091E1
:1027B000FF059091000682179307E0F0EB017B0183
:1027C000E40EF51ED990C8010E94262AD81621F0E1
:1027D0006D2DC8010E942E2A0F5F1F4FEC16FD06BB
:1027E00089F781E0DF91CF911F910F91FF90EF90DA
:1027F000DF90089580E0F6CFFB0101900020E9F71B
:102800003197AF01461B570BDC01ED91FC91028023
:10281000F381E02D09948091BE068823A1F0609198
:10282000910780918F07909190070E948B03809170
:10283000C606882341F06DEC71E080918F0790917E
:1028400090070E94FC131092C5061092BE0680E00D
:1028500008958F929F92AF92BF92EF92FF920F9343
:102860001F93CF93DF93CDB7DEB7A1970FB6F89440
:10287000DEBF0FBECDBF7C01FA01CB0119A2223011
:1028800008F42AE08E010F5D1F4F822E912CB12C8F
:10289000A12CBF01A50194010E94A52AF901CA013A
:1028A0006A300CF5605DD8016E938D01232B242BCB
:1028B000252B79F790E080E0109721F0BD01C7014A
:1028C0000E94FC13A1960FB6F894DEBF0FBECDBFD9
:1028D000DF91CF911F910F91FF90EF90BF90AF903C
:1028E0009F908F900895695CDECFCF939091BE0644
:1028F0009923A9F0C82F6091920780918F0790913A
:1029000090070E948B034C2F50E070E060E02AE0BB
:1029100080918F0790919007CF910C942914CF91BB
:1029200008959091BE06911110C091E09093BE065B
:102930009093C506482F50E070E060E02AE0809157
:102940008F07909190070C9429140895EF92FF92AD
:102950000F931F93CF93DF939091BE0691112BC0DD
:102960008B010E9491148091BE068823E1F0609152
:10297000920780918F07909190070E948B03E090BF
:102980008F07F0909007E801FE016491662359F0EB
:10299000D701ED91FC910190F081E02DC7010995DF
:1029A0002196892B89F7DF91CF911F910F91FF908D
:1029B000EF900C940B1480E0DF91CF911F910F9159
:1029C000FF90EF9008950E947F0360934E047093F0
:1029D0004F04809350049093510468E670E085E0C2
:1029E0000C94A6141F93CF93DF9310922D02109294
:1029F0004F0210924D0480915F02882361F0E091B4
:102A00006002F0916102108E823028F0E091620243
:102A1000F0916302108E10925F0230916802C4E65A
:102A2000D2E020E03217D1F0A991B99119968C919A
:102A30001997882389F01A96EC911A978E2F90E0B7
:102A4000FC01EE0FFF1FE80FF91FE956FC4F8081D4
:102A50008F7B808319961C922F5FE4CF10926802BF
:102A600080915804882361F0E0915404F09155045A
:102A70001082823028F0E0915604F09157041082C1
:102A8000109258049091F801E7E5F2E080E0981781
:102A900059F0A191B1911E962C911E97222311F00D
:102AA0001E961C928F5FF3CF1092F80110920802CD
:102AB0009091F901EBE5F2E080E0981759F0A191CF
:102AC000B19118962C911897222311F018961C9208
:102AD0008F5FF3CF1092F90190915402E0E5F2E09C
:102AE00080E0981759F0A191B19116962C91169704
:102AF000222311F016961C928F5FF3CF109254028E
:102B000010E0E09136021E1798F4F0E0EE0FFF1F80
:102B1000E05DFD4FC081D1818B8180FF07C062E005
:102B20008A810E94AC028B818E7F8B831F5FE9CFED
:102B30001092360210922804109227041092530427
:102B400010929603109295036CE670E085E0DF9199
:102B5000CF911F910C94A6146FE670E08FE00C9457
:102B6000A6142091950330919603820F932F911D07
:102B700090939603809395038C32914040F060E7E8
:102B800072E085E00E94A61490E080E00895C901FB
:102B900087599D4F0895CF92DF92EF92FF920F9346
:102BA0001F93CF93DF9390914F02993009F45EC049
:102BB0007901142FC62ED82E8FE10E94160B811199
:102BC0000DC06FE871E085E0DF91CF911F910F910B
:102BD000FF90EF90DF90CF900C94A6148FE10E94AD
:102BE000B115EC01892B09F01A8200914F02E02FF8
:102BF000F0E0EE0FFF1FE35CFD4FD183C0831E8228
:102C00001D82FC82EB82D882C98285E0819FF0011F
:102C10001124EA59FE4FDE01199601900D928A9512
:102C2000E1F762E08D2D0E94AC0262E089810E9492
:102C3000AC021E86188A1F861A8A198A18861F8A6D
:102C4000188E198E1A8E84EF91E0A0E0B0E08B8B85
:102C50009C8BAD8BBE8B81E08A8388E497E1909357
:102C60003C0280933B020F5F00934F02DF91CF91B4
:102C70001F910F91FF90EF90DF90CF90089581E02A
:102C80008093530462E770E081E10C94A614CF9323
:102C9000DF930E94010F8AE00E9491148091270423
:102CA00090912804892B91F18BE390E00E942B13E3
:102CB000C82F8091BE06882379F060919207809199
:102CC0008F07909190070E948B036C2F80918F0744
:102CD000909190070E948B03C1E0D0E0809127047F
:102CE00090912804C817D90788F4CE01CB960E948A
:102CF0002B139091BE06992339F0682F80918F078E
:102D0000909190070E948B032196E8CFDF91CF919D
:102D10000C940B14CF93DF930E94010F0E941902B1
:102D2000BC01EC0109900020E9F72197C81BD90BE1
:102D3000DD2780912704909128049C012F5F3F4F4D
:102D40002C0F3D1F2E31314088F5AE014F5F5F4F94
:102D5000CB960E94CC134091270450912804C40FB5
:102D6000D51FD0932804C09327048091BE068111FB
:102D70003FC085E00E9491148091BE06882391F0A7
:102D80006091920780918F07909190070E948B032A
:102D9000AE0170E060E02AE080918F07909190078B
:102DA0000E942914DF91CF910C940B148091BE06E0
:102DB00081111EC085E00E9491148091BE06882377
:102DC00089F36091920780918F07909190070E94FC
:102DD0008B03C0918F07D09190076DE2CE010E94C6
:102DE0008B032AE041E050E060E070E0CE01D8CFF4
:102DF000DF91CF910895CF93DF932091BE062223D8
:102E0000A1F0EC016091920780918F07909190075B
:102E10000E948B03209749F0BE0180918F0790910B
:102E20009007DF91CF910C94FC13DF91CF9108951F
:102E30000E94010F8AE00E94911487E591E00E94B0
:102E4000FB168BE091E00E94FB1680E091E00E946F
:102E5000FB1680ED91E00E94FB160C940B140F936F
:102E60001F93CF93DF93C82FD62F8A018DE10E9445
:102E70009114C8010E94FB168D2F0E9475148C2F8F
:102E80000E947514DF91CF911F910F910C940B1438
:102E90000F931F93CF93C82F8A0186E00E9491144D
:102EA000C8010E94FB168C2F0E947514CF911F91B0
:102EB0000F910C940B140F931F93CF93DF93C82F94
:102EC000D62F8A018EE10E949114C8010E94FB1640
:102ED0008D2F0E9475148C2F0E947514DF91CF9155
:102EE0001F910F910C940B140F931F93CF93C82F26
:102EF0008A0187E00E949114C8010E94FB168C2F62
:102F00000E947514CF911F910F910C940B14CF92C6
:102F1000DF92EF92FF92CF93DF936C01EA018CE195
:102F20000E949114CE010E94FB168091BE06882358
:102F300021F16091920780918F07909190070E94F4
:102F40008B03C0918F07D09190070D2C000CEE08D9
:102F5000FF082AE0B701A601F7FE0CC06DE2CE0122
:102F60000E948B0344275527BA014C195D096E094D
:102F70007F092AE0CE010E942914DF91CF91FF90B2
:102F8000EF90DF90CF900C940B14CF93DF9300D091
:102F9000CDB7DEB70E941902FC0190E3ABE0B1E0CF
:102FA00001900D929A95E1F783E290E09A838983EC
:102FB00041E050E0BE016F5F7F4F90E080E00E94F3
:102FC000CC134FE250E06BE071E081E090E00E94B2
:102FD000CC138091BE06811109C085E00E94911436
:102FE0008BE091E00E94FB160E940B140F900F9053
:102FF000DF91CF910895FB0101900020E9F731970F
:10300000AF01461B570BDC01ED91FC910284F38567
:10301000E02D0994CF92DF92EF92FF920F931F93CE
:10302000CF93DF938C01EB01FC01D0886D2D70E014
:10303000FE0101900020E9F7CF0101978C1B9D0B49
:1030400086179707B0F4681B790B76956795D82E8D
:10305000C8010E94BF06CC2EEC2EFD2E8E2D8C19A1
:103060008D1548F4F70161917F01C8010E9408079E
:10307000F5CF60E0EDCFDF91CF911F910F91FF90E1
:10308000EF90DF90CF90089585ED8093BC00809104
:10309000A6049091A704A091A804B091A904079652
:1030A000A11DB11D23E0B695A795979587952A9503
:1030B000D1F72091BC0024FD03C01092A404089510
:1030C0004091A6045091A7046091A8047091A904AE
:1030D000452B462B472B69F30097A105B10541F01D
:1030E00025E32A95F1F700000197A109B109E1CF85
:1030F0008091A5040C94EA044F925F926F927F92A4
:103100008F929F92AF92BF92CF92DF92EF92FF92F7
:10311000CF93DF93EC016A017B0120E030E0A9014D
:10312000CB01B6010E94022987FF04C0F7FAF09490
:10313000F7F8F0948C8C9D8CAE8CBF8CA701960117
:10314000C501B4010E940229882309F449C06CA971
:103150007DA98EA99FA90E9409292B013C01A701E5
:103160009601C501B4010E94792B9B01AC01C301FA
:10317000B2010E9468290E94EB2B6CAB7DAB8EAB39
:103180009FABA701960160E070E080E090E40E94B0
:10319000792B0E942C2C26E53EE04DE25FE30E9455
:1031A000682920E034E244E759E40E94682968AFC6
:1031B00079AF8AAF9BAFCC8EDD8EEE8EFF8ECE01C7
:1031C000DF91CF91FF90EF90DF90CF90BF90AF90C5
:1031D0009F908F907F906F905F904F900C948F098D
:1031E000DF91CF91FF90EF90DF90CF90BF90AF90A5
:1031F0009F908F907F906F905F904F9008958F92E7
:103200009F92AF92BF92CF92DF92EF92FF920F9375
:103210001F93CF93DF9390915804923009F49DC08F
:10322000C22ED42EA62EB82E8AE00E94160B811133
:1032300011C060E572E085E0DF91CF911F910F91A1
:10324000FF90EF90DF90CF90BF90AF909F908F90C6
:103250000C94A6148AE00E94B1157C01009711F02D
:10326000FC011082E0915804F0E0EE0FFF1FEC5AD1
:10327000FB4FF182E08284E40E94160B81117AC038
:103280006FE272E085E00E94A614F0905804EF2DE2
:10329000F0E0EE0FFF1FEC5AFB4FC080D180F6012B
:1032A000C281D38120E030E048EC53E4688D798D11
:1032B0008A8D9B8D0E9402298823E9F180E090E0AD
:1032C000A8ECB3E4888F998FAA8FBB8F80E090E43D
:1032D000ACE1B5E4FE01E05CFF4F80839183A28303
:1032E000B3838CA99DA9AEA9BFA9181619061A0601
:1032F0001B060CF56C897D898E899F899B01AC0129
:103300000E9468294B015C016C8D7D8D8E8D9F8D97
:103310009B01AC010E940D2B9B01AC01C501B401C6
:103320000E94792B0E94EB2B6CAB7DAB8EAB9FABDD
:10333000CE010E948F0940E050E068E474E4F60199
:10334000828193810E947C18101611061CF4C6011C
:103350000E94220BF394F0925804DF91CF911F91B9
:103360000F91FF90EF90DF90CF90BF90AF909F9024
:103370008F90089584E4CA1072C0DB1070C00E9460
:10338000B115EC01892B09F459C083E991E09983C7
:10339000888381E08B831C861D861E861F86188A83
:1033A000198A1A8A1B8A1C8A1D8A1E8A1F8A80E033
:1033B00090E0A0E8BFE3888F998FAA8FBB8F1C8E07
:1033C0001D8E1E8E1F8E88A399A3AAA3BBA31CA229
:1033D0001DA21EA21FA221E030E03DA72CA72FEFC7
:1033E0002FA718A619A61AA61BA6DC82CD8224E058
:1033F0002E8325E02F831EA61CAA1DAA1EAA1FAA83
:1034000018AE19AE1AAE1BAE1CAE1DAE1EAE1FAE70
:10341000FE01E05CFF4F80839183A283B3831A8215
:10342000188619861A861B86CE010E947C0740E00A
:1034300050E060E87FE3CE010E947C18F701D3835F
:10344000C283048381E08583002321F062E0802F22
:103450000E94AC0281E0F7018083118216CF0E94A6
:10346000B115EC01892B51F383E991E099838883AD
:1034700084E08B831C861D861E861F86188A198A07
:103480001A8A1B8A1C8A1D8A1E8A1F8A80E090E085
:10349000A0E8BFE3888F998FAA8FBB8F1C8E1D8EEB
:1034A0001E8E1F8E88A399A3AAA3BBA31CA21DA234
:1034B0001EA21FA221E030E03DA72CA72FEF2FA7CF
:1034C00018A619A61AA61BA6CC82AD82BE82DF82E0
:1034D00092CF2F923F924F925F926F927F928F92F4
:1034E0009F92AF92BF92CF92DF92EF92FF920F9393
:1034F0001F93CF93DF9300D000D0CDB7DEB780917C
:10350000270490912804892B09F430C58BE390E0BF
:103510009A8389831C821B82CE0101960E948713A5
:10352000882309F423C52CEF222E25E0322E34EB1C
:10353000A32EB12CEFEFE80FCE010196EE3008F08C
:103540009CC00E2E000CFF0BE855F54E0C94062B7C
:10355000B61AB61C0A1B401B1B1C661CDA1CC71CB7
:10356000421C511E031EC11E3D1B2C1F0E948713AF
:10357000982E80912D028231A1F184E00E94160BD9
:1035800065E770E0882309F41AC4EB80FC8084E0CE
:103590000E94B1158C01009789F0DC0112969C9273
:1035A0001297C70182539B4F11969C938E9381E093
:1035B00013968C9362E0892D0E94AC0280912D02BB
:1035C000E82FF0E0EE0FFF1FE75FFD4F1183008350
:1035D00024E737E130932F0220932E028F5F8093F0
:1035E0002D02BE016D5F7F4FCE0101960E94361302
:1035F000182FCE0101960E948713882309F4B3C4C3
:10360000111198CF1092A90565E771E085E00E943D
:10361000A614ACC40E948713F82E80914D04823109
:1036200051F182E00E94160B63E970E0882309F4EF
:1036300056C382E00E94B1158C01009779F0FC011D
:10364000F082118261E08F2D0E94AC02D8011196A8
:103650006C91119770E08C910E94E80280914D046A
:10366000E82FF0E0EE0FFF1FE75DFB4F11830083B3
:103670008F5F80934D04CE0101960E946413B8CFF2
:103680000E948713482ECE0101960E948713682E50
:10369000CE0101960E948713582ECE0101960E94FA
:1036A0008713882ECE0101960E948713782E809171
:1036B0005F02823001F389E10E94160B61EB70E03A
:1036C000882309F40CC389E10E94B1158C0100978D
:1036D00011F0FC01108EE42C042C000CFF089090DB
:1036E0005F02E92DF0E0EE0FFF1FE05AFD4F11835E
:1036F0000083D8015196FC92EE925097852D550C7F
:10370000990B53969C938E935297862D660C990B2A
:1037100055969C938E935497E72DE150FF0B389765
:1037200008F45CC088E090E0D80157969C938E9393
:10373000569761E0842D0E94AC0261E0F801828915
:103740000E94AC0261E0D80154968C910E94AC02B8
:1037500061E0F80184890E947E02D8015196FC92B2
:10376000EE925097F12CE12CF80186899789E816A2
:10377000F906B4F520E04FE0B701C8010E946210DD
:10378000D80156968D919C91E816F90634F427E0FD
:103790004BE0B701C8010E94621020E049E0B70188
:1037A000C8010E946210F80186899789E816F90617
:1037B00064F46624639420E0462DB701C8010E949A
:1037C00062106394F9E06F12F6CF41E0B701C801CF
:1037D0000E94A6102FEFE21AF20AC6CF872DA3CFC0
:1037E000708E712CF801808D781608F5482D672DA4
:1037F000C8010E94DE10E72CF12C40E0B701C8019F
:103800000E94A610D80156968D919C91E816F90653
:1038100064F46624639420E0462DB701C8010E9439
:1038200062106394B9E06B12F6CF7394DBCF93947C
:1038300090925F0220CF0E948713F82ECE0101964E
:103840000E948713182FCE0101960E948713082F1C
:10385000CE0101960E948713E82ECE0101960E94A8
:1038600087132E2DEE0C330B402F000F550B612FBD
:10387000110F770B10E000E08F2DFF0C990B0E94C9
:10388000FF18F9CE0E948713F82ECE0101960E94F0
:103890008713182FCE0101960E948713E82ECE01C0
:1038A00001960E948713982ECE0101960E948713DD
:1038B000082E000C990B292D990C330B4E2DEE0C74
:1038C000550B612F110F770B8C01D6CF0E948713F8
:1038D000182F80916802823009F4CDCE87E10E94D2
:1038E000160B62ED70E0882309F4F9C187E10E94AC
:1038F000B115FC01892BB9F08091BB038C3098F590
:1039000091E0980F9093BB03828790E0DC01AA0FAF
:10391000BB1FA80FB91FA956BC4F88EB9BE012969E
:103920009C938E93119780916802A82FB0E0AA0F04
:10393000BB1FAC59BD4FED93FC93118615861686BF
:103940001786108A118A128A138A148A12821182A7
:10395000B482A38216821582B086A78210838F5FFD
:103960008093680288CE8FEF8287DDCF0E94871315
:10397000182FCE0101960E9487132B813C81225380
:103980003B4F40E0682F812F0E94CB152ACE0E942A
:103990008713182FCE0101960E948713082FCE019E
:1039A00001960E9487132B813C8122533B4F482F65
:1039B000602FE9CF0E948713982ECE0101960E94B6
:1039C0008713E82ECE0101960E948713F82E80916E
:1039D000F801823009F44FCE82E10E94160B60EFAD
:1039E00070E0882309F47BC182E10E94B1158C014B
:1039F000009741F0FC01138212822BE431E0318305
:103A000020831186E091F801F0E0EE0FFF1FE95AE4
:103A1000FD4F11830083D8011F969C921F975096EB
:103A2000EC9250975196FC92519781E01E968C93A0
:103A30001E9714969C9214971A96EC921A971B96BE
:103A4000FC921B971C961C921C971D961C92109220
:103A5000DE031092DD031092AB041092CD040E949D
:103A6000CC04EEEFF5E0F0930104E09300042FEFB7
:103A700035E03093050420930404D80115961C9278
:103A800015971B968C911B97823018F098E015962D
:103A90009C93F8019485992329F0813019F485814C
:103AA000846085830E945A036B017C0142E3442EAB
:103AB000512C612C712C0E945A036C197D098E09BE
:103AC0009F09683E734081059105A8F3F1E04F1A04
:103AD00051086108710828EEC20E23E0D21EE11CD5
:103AE000F11C411451046104710429F7D8011D9699
:103AF0006C91C8010E940E0760E3C8010E940E0786
:103B00008BE496E40197F1F760E3C8010E940E0789
:103B10008BE496E40197F1F760E3C8010E940E0779
:103B200083E592E00197F1F760E2C8010E940E0779
:103B3000F8016581606240E0C8010E94960684E059
:103B4000D80116968C9340E06CE0C8010E9496065E
:103B5000C8010E94F00682E0F801878340E066E039
:103B6000C8010E94960640E062E0C8010E949606E5
:103B70008BE39FE10197F1F788E0D8011D968C93C4
:103B80001D9714968C9191E09093AA048093CC0495
:103B90001092AB041092CD0468E08CEE95E00E9488
:103BA00057060E94FB058CE08093B800F8018685DB
:103BB000882319F1C8010E94F006D80151964C9152
:103BC000F12C433020F04695FF24FA94F40E4F2D4B
:103BD00066ED71E0C8010E940A18F80181898230FF
:103BE00038F041E04F0D61EE71E0C8010E940A1803
:103BF00040E060E0C8010E94BF068091F8018F5F3D
:103C00008093F80138CD0E948713982ECE0101963B
:103C10000E948713882E80910802863009F4E1CC37
:103C20008DE10E94160B6CE071E0882309F4C7C097
:103C3000EB80FC808DE10E94B1158C01892BE9F0AD
:103C400080E1F8013696DF011D928A95E9F7F801C7
:103C5000178A168A108E85829282C70182539B4FE3
:103C6000918380831482138262E0892D0E94AC02CA
:103C7000D80112968C910E94450380910802E82F8A
:103C8000F0E0EE0FFF1FE450FE4F11830083E7E8E2
:103C9000F7E1F093FB01E093FA018F5F8093080254
:103CA000A0CC0E948713882ECE0101960E94871314
:103CB000582ECE0101960E948713682ECE010196E0
:103CC0000E948713782E8091F901823009F4D3CCB9
:103CD00089E00E94160B811106C06CE271E085E05C
:103CE0000E94A614C8CC89E00E94B1158C01909066
:103CF000F901E92CF12CEE0CFF1CF701E55AFD4F00
:103D00009183808381E0D80118968C9318978C92C8
:103D100011965C92119712966C92129713967C9260
:103D200061E0882D0E94AC0261E0F80181810E946F
:103D3000AC0261E0D80112968C910E94AC02F801AD
:103D40009381349680E0981719F011928F5FFBCF22
:103D5000C8010E940A11F701E55AFD4F8081918147
:103D6000DC0113963C91FC01349620E0321719F0E7
:103D700011922F5FFBCF0E940A1193949092F90148
:103D80007ACC0E948713682ECE0101960E94871379
:103D9000D82ECE0101960E948713482ECE0101969F
:103DA0000E948713582E80915402823009F419CC56
:103DB0008BE00E94160B811106C061E571E085E081
:103DC0000E94A6140ECC8B809C808BE00E94B115C3
:103DD0008C01009731F0FC01168217821086118643
:103DE000128670905402E72CF12CEE0CFF1C970108
:103DF000205B3D4F7901D9010D931C93F80162823C
:103E0000D3824482C40182539B4F91838083558225
:103E100061E0862D0E94AC0261E0D80113968C917E
:103E20000E94AC0260E0F80184810E94AC0281E053
:103E3000D80116968C93D701ED91FC9117821086CC
:103E400011861286EFE2F7E1F0935602E0935502F5
:103E5000739470925402C5CB0E948713882ECE01B2
:103E600001960E948713F82ECE0101960E948713B7
:103E7000082FCE0101960E948713182FCE010196BC
:103E80000E948713F092F8050093F9051093FA0544
:103E90008093FB051092FC0508EF15E061E0D80166
:103EA0008D918D010E94AC0220163106B9F78091E8
:103EB000FC0581608093FC0560E088EF95E00E943E
:103EC000090CCE0101960E948713782E809136024C
:103ED000833009F486CBEB80FC8086E00E94B1152C
:103EE0008C01009759F0E8EFF5E0F0933A02E09387
:103EF0003902DC0115961C921E921497909036029E
:103F0000E92DF0E0EE0FFF1FE05DFD4F1183008310
:103F1000F8018282C70182539B4F91838083F1E035
:103F20007F16E9F0D80113961C9262E0882D0E945A
:103F3000AC02D80113968C91139715961C921E9281
:103F400014978B7F816013968C93EBE5F7E1F093E8
:103F50003802E093370293949092360242CB82E08B
:103F6000F8018383E2CF112309F44CCB0F900F901B
:103F70000F900F90DF91CF911F910F91FF90EF90D5
:103F8000DF90CF90BF90AF909F908F907F906F9079
:103F90005F904F903F902F9008950E94691A0C9463
:103FA0003F160F931F93CF93DF930E942F11EC01C5
:103FB0000E94C8018823F1F181E0809388078093F3
:103FC000890780918A0790918B070E9492282091FF
:103FD00058042C171D06A1F19CF1CC0FDD1FCC5A03
:103FE000DB4FE881F98111820681178120853185B7
:103FF0006017710782079307B9F06683778380871C
:1040000091870280F381E02D00891189228933890B
:10401000601771078207930739F0608B718B828B71
:10402000938BCF010E948F09DF91CF911F910F9148
:104030000C94010F1092890760E070E0CB01C7CFAC
:10404000DF91CF911F910F910895FF920F931F93CE
:10405000CF93DF930E942F11EC010E9419028C0173
:104060000E942F11F82ECC0FDD1FC55ADD4F09908D
:10407000D881C02D8885882369F168EE71E0C80178
:104080000E94B92801E010E0009709F10E9474280D
:104090009885992391F0982F9770980101C0220F6D
:1040A0009A95EAF7869586958695FE01E80FF11DAB
:1040B0008481FF2049F0282B248368EE71E090E092
:1040C00080E00E94B928E0CF20952823F5CFCE01CB
:1040D0000E940A11DF91CF911F910F91FF900C94D4
:1040E000010FCF92DF92EF92FF921F93CF93DF9356
:1040F000182F8091FF0590910006CB9780F030E05B
:10410000E32E31E0F32EC0E3D0E0CE010E942B136A
:10411000F70181937F012196CB33D105B1F71111BE
:1041200009C080910001833529F4809101018E340A
:1041300009F462C08EE00E944503BC01990F880B10
:10414000990B611571058105910511F00E946B288D
:104150000E941C28CC24CA942FE0D22EE12CF12CF2
:10416000A70196010E943C2A7F936F938AEE91E00B
:104170009F938F9380E091E09F938F930E94812C77
:104180000E941C28A70196010E943C2A7F936F93EE
:1041900083EF91E09F938F9387E091E09F938F93BC
:1041A0000E94812C4BE050E060E071E080E390E001
:1041B0000E94CC138DB79EB70C960FB6F8949EBF95
:1041C0000FBE8DBF111118C08091FF0590910006A0
:1041D000CC9790F08BE390E00E94262A882361F030
:1041E00060E08BE390E0DF91CF911F91FF90EF9023
:1041F000DF90CF900C942E2ADF91CF911F91FF90EA
:10420000EF90DF90CF90089581E00E94712080911F
:10421000BE06811109C08AE00E94911480E091E0FD
:104220000E94FB160C940B1408951F920F920FB668
:104230000F9211242F933F938F939F93AF93BF932C
:104240008091760490917704A0917804B0917904DC
:104250003091750423E0230F2D3758F50196A11DE9
:10426000B11D209375048093760490937704A093F6
:104270007804B093790480917A0490917B04A091A2
:104280007C04B0917D040196A11DB11D80937A0438
:1042900090937B04A0937C04B0937D04BF91AF9175
:1042A0009F918F913F912F910F900FBE0F901F9074
:1042B000189526E8230F0296A11DB11DD2CF1F929B
:1042C0000F920FB60F9211242F933F934F935F934A
:1042D0006F937F938F939F93AF93BF93EF93FF93CE
:1042E00081E096E00E941504FF91EF91BF91AF919C
:1042F0009F918F917F916F915F914F913F912F91FE
:104300000F900FBE0F901F9018951F920F920FB62F
:104310000F9211242F935F936F937F938F939F93AB
:10432000AF93BF93EF93FF93E0911106F0911206C4
:104330008081E0911706F091180682FD24C020814B
:1043400080911A0690E0019660E670E00E94F22AE1
:1043500090911B06981741F0E0911A06F0E0EF5F8C
:10436000F94F258F80931A06FF91EF91BF91AF917E
:104370009F918F917F916F915F912F910F900FBEC1
:104380000F901F9018958081EFCF1F920F920FB65C
:104390000F9211242F933F934F935F936F937F93CB
:1043A0008F939F93AF93BF93EF93FF938091B90047
:1043B000887F803609F44AC0F0F5883209F4A7C036
:1043C00018F5803109F49BC0B8F4882309F4F9C0CA
:1043D000883009F494C0FF91EF91BF91AF919F9104
:1043E0008F917F916F915F914F913F912F910F909E
:1043F0000FBE0F901F901895883109F488C0803245
:1044000051F78093A20414C0803409F49DC040F495
:104410008033B9F38833F9F68093A20485ECB0C0F9
:10442000803509F485C0883509F496C0883499F63A
:104430000E944418D0CF883909F48CC038F58837E9
:1044400029F050F4883611F0803729F683E0809304
:10445000A4041092260457C0883809F47BC0803920
:1044600019F0803809F0B7CF80912604803208F027
:1044700071C0E091260481E08E0F80932604809124
:10448000BB00F0E0EA5FFB4F80833DC0803B39F02A
:10449000E0F4803A09F479C0883A09F09CCF84E0CE
:1044A0008093A4041092030410920204E09100048B
:1044B000F091010409958091020481110FC081E0FF
:1044C000809302041092E00309C0803C09F4A6CF57
:1044D000883C09F4A3CF883B09F07DCFE091030429
:1044E00081E08E0F80930304F0E0E052FC4F808166
:1044F0008093BB00909103048091020429C08091B5
:104500007F048093BB0085EC8093BC0064CF9091C6
:10451000A1048091A004981758F5E091A10481E0CE
:104520008E0F8093A104F0E0E058FB4F8081E9CF2B
:10453000E091A10481E08E0F8093A1048091BB00E3
:10454000F0E0E058FB4F80839091A1048091A0049B
:104550009817C8F285E8D8CFE091A10481E08E0FCA
:104560008093A1048091BB00F0E0E058FB4F808372
:104570008091A30481115CCF81E080937E0484EA62
:104580008093BC001092A40426CF85EC8093BC00DD
:104590001092A40480912604803230F4E091260425
:1045A000F0E0EA5FFB4F10826091260470E0E0913A
:1045B0000404F091050486E094E009951092260425
:1045C0000ACF1092A20434CF1F920F920FB60F920F
:1045D00011242F933F934F935F936F937F938F9308
:1045E0009F93AF93BF93CF93DF93EF93FF9380910C
:1045F000BC03C091BB03D0E087FF24C010928500AC
:10460000109284008091BC038F5F8093BC038091E3
:10461000BC03082E000C990B8C179D0724F4809185
:10462000BC038C30C4F18091840090918500049685
:1046300080349C4908F47AC0809184009091850070
:10464000049676C08091BC03082E000C990B8C1741
:104650009D07C4F6E091BC038E2FEE0F990BFC0171
:10466000EE0FFF1FE80FF91FE956FC4F808186FF10
:10467000C9CFE091BC038E2FEE0F990BFC01EE0F1A
:10468000FF1FE80FF91FE956FC4F808160E08F7330
:104690000E947E02B7CF2091840030918500E09186
:1046A000BC038E2FEE0F990BFC01EE0FFF1FE80FDE
:1046B000F91FE956FC4F81819281820F931F9093DD
:1046C000890080938800E091BC038E2FEE0F990B38
:1046D000FC01EE0FFF1FE80FF91FE956FC4F808128
:1046E00086FF11C0E091BC038E2FEE0F990BFC01E9
:1046F000EE0FFF1FE80FF91FE956FC4F808161E0C4
:104700008F730E947E02FF91EF91DF91CF91BF9155
:10471000AF919F918F917F916F915F914F913F9159
:104720002F910F900FBE0F901F90189580E49CE979
:1047300090938900809388008FEF8093BC03E3CF30
:10474000109204061092030688EE93E0A0E0B0E019
:104750008093050690930606A0930706B09308067B
:104760002DEA31E0309302062093010625EC30E07B
:1047700030930E0620930D0624EC30E030931006A3
:1047800020930F0620EC30E03093120620931106A0
:1047900021EC30E0309314062093130622EC30E035
:1047A000309316062093150626EC30E03093180659
:1047B0002093170610921A0610921B0610921C06E0
:1047C00010921D061092EF051092EE058093F005F1
:1047D0009093F105A093F205B093F3058FEB91E070
:1047E0009093ED058093EC051092FC058FEF80937C
:1047F000F8058093F9058093FA058093FB051092E4
:1048000000061092FF05109295071092940781E020
:1048100096E09093900780938F071092C6068CE2E3
:10482000809392078BE3809391078FE280939307A5
:1048300080E68093C1068FE58093C2061092C00681
:1048400010928B0710928A0710928D0710928C0796
:1048500081E080938807E6E9F7E082ED97E0119226
:1048600011928E179F07D9F71092C5060895789474
:1048700084B5826084BD84B5816084BD85B5826065
:1048800085BD85B5816085BD80916E008160809316
:104890006E0010928100809181008260809381007F
:1048A000809181008160809381008091800081608F
:1048B000809380008091B10084608093B1008091EA
:1048C000B00081608093B00080917A008460809312
:1048D0007A0080917A00826080937A0080917A00D9
:1048E000816080937A0080917A00806880937A005A
:1048F0001092C100E0911106F091120682E08083CF
:10490000E0910D06F0910E061082E0910F06F091F5
:10491000100680E1808310921906E0911506F0914F
:10492000160686E08083E0911306F09114068081DC
:1049300080618083E0911306F09114068081886085
:104940008083E0911306F091140680818068808353
:10495000E0911306F091140680818F7D808380E0C2
:1049600094E0909300068093FF0583EE94E190938A
:1049700095078093940783E491E190939707809340
:1049800096078FE591E190939907809398078DE5BD
:1049900091E19093CB078093CA0783EC91E19093C8
:1049A0009B0780939A0781ED9FE190939D078093E9
:1049B0009C0780ED91E19093C1078093C00784EE3E
:1049C00091E19093C3078093C2078EE092E19093A8
:1049D0009F0780939E0788E197E19093A9078093B2
:1049E000A80787E496E19093AF078093AE078AE823
:1049F00096E19093AD078093AC0782EF94E190939A
:104A0000B1078093B0078CEA95E19093B307809348
:104A1000B2078DEC9FE19093B7078093B60785ECC2
:104A200097E19093BD078093BC0784E091E2909357
:104A3000BF078093BE078EE89FE09093C5078093E1
:104A4000C40782EE92E19093C9078093C80785E27C
:104A500090E29093CD078093CC0781E08093C606C7
:104A600080E00E9471200E94010F0091FF051091CB
:104A7000000601151105C9F090E080E00E942B139B
:104A8000833299F40033110580F07BE0E72E71E06A
:104A9000F72ED0E0C0E02196CE010E942B13D70163
:104AA0008D937D01CF32D105B1F710922804109279
:104AB00027048BE390E0EC0121960E942B13482FF2
:104AC0002091270430912804C9010196909328046D
:104AD000809327040C171D0708F0FAC067E872E0FE
:104AE00085E00E94A6140E947F036093590470938E
:104AF0005A0480935B0490935C040E947F0360934C
:104B00005D0470935E0480935F04909360040E9440
:104B10007F036E5F7F4F8F4F9F4F60936104709351
:104B2000620480936304909364040E947F036C5F2B
:104B30007F4F8F4F9F4F60936504709366048093FF
:104B40006704909368040E947F036C5F7F4F8F4FD0
:104B50009F4F6093690470936A0480936B049093F1
:104B60006C040E947F036A5F7F4F8F4F9F4F60935B
:104B70006D0470936E0480936F04909370040E9490
:104B80007F03685F7F4F8F4F9F4F609371047093D7
:104B90007204809373049093740460E0C62E60E006
:104BA000D62E66246394772473948091C506811170
:104BB000D1C080918F0790919007DC01ED91FC911D
:104BC0000084F185E02D0995892B09F4C3C08091FB
:104BD0008F0790919007DC01ED91FC910084F185A5
:104BE000E02D099550E6E52EF12C8036910564F410
:104BF00080918F0790919007DC01ED91FC910084EA
:104C0000F185E02D09957C01C0918F07D091900727
:104C100047E2A42E47E0B42E450110E000E0E01684
:104C2000F10609F061C0D0E0C0E0EC16FD0609F421
:104C3000BCCFF50191915F011092870730919307E6
:104C40002091C4069093C406931304C0921302C02B
:104C50001092C4068091C006E82FF0E040919107C1
:104C6000E254F94F941363C0321709F460C01186FF
:104C7000882321F0709287071092C4061092C00614
:104C800010928B0710928A0710928D0710928C0752
:104C90007092880780918707813009F059C00E947F
:104CA0002F118093BF068E3108F04BC020918907E9
:104CB000222309F446C0FC01FF27EE0FFF1FEA562E
:104CC000F84F0190F081E02D3097D9F1099540C05F
:104CD000CE014111F0CE30932804209327040E9486
:104CE000691A0E943F16FFCE0E947F03688779876A
:104CF0008A879B87E881F9810284F385E02DCE01C4
:104D0000099597FF23C10E947F03288539854A852D
:104D10005B85621B730B840B950B2C813D814E814F
:104D20005F81621773078407950720F37CCF918713
:104D30008F5F8093C0069091C206891708F09ECFBE
:104D4000A9CFE0919407F0919507309709F0BECF75
:104D500021966BCF80904E0490904F04A090500409
:104D6000B0905104809152048111F6C00E947F03DB
:104D7000681979098A099B09613A7B4B8D40910535
:104D8000D8F060925204C0E080914D04C81788F4B6
:104D9000EC2FF0E0EE0FFF1FE75DFB4F0190F0817D
:104DA000E02D118270E060E080810E94E802CF5F18
:104DB000EBCF81E00E94B61080915304882309F460
:104DC000B9C04AE069E574E082E59EE00E94E10A2C
:104DD00041E06DE574E084E49CE00E94E10AF12C7E
:104DE00080915804F81608F082C0EF2DF0E0EE0F25
:104DF000FF1FEC5AFB4F00811181D8011296CD9113
:104E0000DC918CA19DA1AEA1BFA1892B8A2B8B2BFC
:104E1000C1F10E945A034B015C0188A599A5AAA57E
:104E2000BBA5B501A401481B590B6A0B7B0B8CA1D8
:104E30009DA1AEA1BFA1481759076A077B0708F1DA
:104E40008C859D85AE85BF852A81222309F44BC0C0
:104E50000196A11DB11D8C879D87AE87BF874C85AC
:104E60005D856E857F85E881F9810680F781E02D7B
:104E7000CE01099588A699A6AAA6BBA6CE010E9436
:104E80008F09F80184810E945502D80115969C91E2
:104E90001597891721F115968C93159781111FC0CD
:104EA00011968C9111978823D1F01296ED91FC9177
:104EB00013971486158616861786108A118A128A09
:104EC000138A14AA15AA16AA17AA14A215A216A222
:104ED00017A2148A158A168A178A11961C92F394BF
:104EE0007FCF80E067CF0197A109B109B4CF45E03A
:104EF00061E674E083E49BE00E94E10A42E369E634
:104F000074E082EC9EE00E94E10A4AE065E674E00B
:104F10008CE79EE00E94E10A4AE06DE674E080E3DF
:104F20009FE00E94E10A4AE061E774E089E69DE0C3
:104F30000E94E10AC114D10409F437CE0E94010491
:104F4000882309F432CE0E9400002FCEF401819311
:104F50004F010F5F1F4F63CE0E947F0368197909CD
:104F60008A099B09603A7B4B8D40910508F024CF5C
:104F700010925204C0E080914D04C81708F0B1CFE0
:104F8000EC2FF0E0EE0FFF1FE75DFB4F0190F0818B
:104F9000E02D618170E080810E94E802CF5FEBCF5D
:104FA0008F929F92AF92BF92CF92DF92EF92FF9239
:104FB000CF93DF93EC01688179818A819B816115B0
:104FC00071058105910521F464E279ED8BE597E0A7
:104FD0002DE133EF41E050E00E943C2A49015A01A3
:104FE0009B01AC01A7EAB1E40E945B2A6B017C0142
:104FF000ACEEB4EFA50194010E94692AC60ED71E3B
:10500000E81EF91EF7FE06C081E0C81AD108E108C3
:1050100080E8F80AC882D982EA82FB82C701B60119
:105020009F77DF91CF91FF90EF90DF90CF90BF906F
:10503000AF909F908F9008958F929F92AF92BF9262
:10504000CF92DF92EF92FF9260913B0170913C0111
:1050500080913D0190913E01611571058105910599
:1050600021F464E279ED8BE597E02DE133EF41E047
:1050700050E00E943C2A49015A019B01AC01A7EA79
:10508000B1E40E945B2A6B017C01ACEEB4EFA50198
:1050900094010E94692AC60ED71EE81EF91EF7FE6B
:1050A00006C081E0C81AD108E10880E8F80AC09279
:1050B0003B01D0923C01E0923D01F0923E01C701DC
:1050C000B6019F77FF90EF90DF90CF90BF90AF90A9
:1050D0009F908F90089560933B0170933C01809363
:1050E0003D0190933E010895FC0188279927E8949B
:1050F00021912032E9F3293010F02E30C8F32B3201
:1051000041F02D3239F4689404C00E94FA28820FCD
:10511000911D219120532A30C0F31EF49095819562
:105120009F4F08951F93FC0199278827BC01E8949D
:1051300011911032E9F3193010F01E30C8F31B3210
:1051400051F01D3249F4689406C00E94E528610FB1
:10515000711D811D911D119110531A30B0F33EF451
:1051600090958095709561957F4F8F4F9F4F1F91C0
:10517000089542ED57E00E94BE280895FA01A191DA
:10518000B081009719F41097E1F0CD01DC01CD0159
:105190000D90002011F4C00113C0FB0121912223C6
:1051A00019F02015D9F7F3CFFB012191201519F43F
:1051B0001E92119606C02223C1F70D900020A1F780
:1051C000D001FA01A193B0830895592F482F372FAA
:1051D000262F660F771F881F991F660F771F881F5E
:1051E000991F620F731F841F951F660F771F881FFB
:1051F000991F08957AE0979F902D879F802D910D9C
:10520000112408950E94442908F481E00895E89447
:1052100009C097FB3EF490958095709561957F4FFE
:105220008F4F9F4F9923A9F0F92F96E9BB279395AC
:10523000F695879577956795B795F111F8CFFAF4BC
:10524000BB0F11F460FF1BC06F5F7F4F8F4F9F4FED
:1052500016C0882311F096E911C0772321F09EE84B
:10526000872F762F05C0662371F096E8862F70E0B1
:1052700060E02AF09A95660F771F881FDAF7880F8B
:105280009695879597F90895990F0008550FAA0BE1
:10529000E0E8FEEF16161706E807F907C0F0121649
:1052A0001306E407F50798F0621B730B840B950B4C
:1052B00039F40A2661F0232B242B252B21F40895A1
:1052C0000A2609F4A140A6958FEF811D811D08953E
:1052D0000E947B290C94EC290E94DE2938F00E9460
:1052E000E52920F0952311F00C94D5290C94DB29A5
:1052F00011240C94202A0E94FD2970F3959FC1F37C
:10530000950F50E0551F629FF001729FBB27F00D73
:10531000B11D639FAA27F00DB11DAA1F649F6627C8
:10532000B00DA11D661F829F2227B00DA11D621F17
:10533000739FB00DA11D621F839FA00D611D221FD1
:10534000749F3327A00D611D231F849F600D211DB5
:10535000822F762F6A2F11249F5750409AF0F1F038
:1053600088234AF0EE0FFF1FBB1F661F771F881FA1
:1053700091505040A9F79E3F510580F00C94D529DB
:105380000C94202A5F3FE4F3983ED4F386957795FA
:105390006795B795F795E7959F5FC1F7FE2B880F47
:1053A000911D9695879597F9089597F99F6780E8DD
:1053B00070E060E008959FEF80EC089500240A9467
:1053C0001616170618060906089500240A941216E0
:1053D0001306140605060895092E0394000C11F413
:1053E000882352F0BB0F40F4BF2B11F460FF04C0C0
:1053F0006F5F7F4F8F4F9F4F089557FD9058440F19
:10540000551F59F05F3F71F04795880F97FB991F23
:1054100061F09F3F79F087950895121613061406E0
:10542000551FF2CF4695F1DF08C01616170618066D
:10543000991FF1CF86957105610508940895E89448
:10544000BB2766277727CB0197F90895F999FECFF7
:1054500092BD81BDF89A992780B50895262FF999B4
:10546000FECF1FBA92BD81BD20BD0FB6F894FA9A47
:10547000F99A0FBE01960895052E97FB1EF400942D
:105480000E94532A57FD07D00E94A52A07FC03D08B
:105490004EF40C94532A50954095309521953F4FEA
:1054A0004F4F5F4F089590958095709561957F4F10
:1054B0008F4F9F4F08950E94C72AA59F900DB49FBC
:1054C000900DA49F800D911D11240895B7FF0C9499
:1054D0005B2A0E945B2A821B930B08952F923F92B6
:1054E0004F925F926F927F928F929F92AF92BF92F4
:1054F000CF92DF92EF92FF920F931F93CF93DF93A0
:10550000CDB7DEB7CA1BDB0B0FB6F894DEBF0FBEFC
:10551000CDBF09942A88398848885F846E847D8449
:105520008C849B84AA84B984C884DF80EE80FD804B
:105530000C811B81AA81B981CE0FD11D0FB6F894C1
:10554000DEBF0FBECDBFED010895A1E21A2EAA1B4A
:10555000BB1BFD010DC0AA1FBB1FEE1FFF1FA21723
:10556000B307E407F50720F0A21BB30BE40BF50B20
:10557000661F771F881F991F1A9469F760957095A9
:10558000809590959B01AC01BD01CF010895A29F2C
:10559000B001B39FC001A39F700D811D1124911D07
:1055A000B29F700D811D1124911D0895DB018F9311
:1055B0009F930E945B2ABF91AF91A29F800D911D86
:1055C000A39F900DB29F900D11240895991B79E02F
:1055D00004C0991F961708F0961B881F7A95C9F783
:1055E00080950895AA1BBB1B51E107C0AA1FBB1FD2
:1055F000A617B70710F0A61BB70B881F991F5A955F
:10560000A9F780959095BC01CD010895EE0FFF1F7D
:105610000590F491E02D09945058BB27AA270E94C9
:10562000242B0C94EC290E94DE2938F00E94E529F5
:1056300020F039F49F3F19F426F40C94DB290EF482
:10564000E095E7FB0C94D529E92F0E94FD2958F33A
:10565000BA17620773078407950720F079F4A6F557
:105660000C941F2A0EF4E0950B2EBA2FA02D0B01DF
:10567000B90190010C01CA01A0011124FF27591B97
:1056800099F0593F50F4503E68F11A16F040A22F9D
:10569000232F342F4427585FF3CF4695379527950E
:1056A000A795F0405395C9F77EF41F16BA0B620B0D
:1056B000730B840BBAF09150A1F0FF0FBB1F661F54
:1056C000771F881FC2F70EC0BA0F621F731F841F97
:1056D00048F4879577956795B795F7959E3F08F0BD
:1056E000B0CF9395880F08F09927EE0F979587957F
:1056F00008950E948D2B0C94EC290E94E52958F006
:105700000E94DE2940F029F45F3F29F00C94D5294E
:1057100051110C94202A0C94DB290E94FD2968F376
:105720009923B1F3552391F3951B550BBB27AA275A
:1057300062177307840738F09F5F5F4F220F331F94
:10574000441FAA1FA9F335D00E2E3AF0E0E832D05C
:1057500091505040E695001CCAF72BD0FE2F29D05F
:10576000660F771F881FBB1F261737074807AB0731
:10577000B0E809F0BB0B802DBF01FF2793585F4FA6
:105780003AF09E3F510578F00C94D5290C94202ACC
:105790005F3FE4F3983ED4F3869577956795B79588
:1057A000F7959F5FC9F7880F911D9695879597F993
:1057B0000895E1E0660F771F881FBB1F621773070C
:1057C0008407BA0720F0621B730B840BBA0BEE1F21
:1057D00088F7E09508950E94F22B6894B1110C941B
:1057E000202A08950E94052A88F09F5798F0B92F23
:1057F0009927B751B0F0E1F0660F771F881F991F06
:105800001AF0BA95C9F714C0B13091F00E941F2A5E
:10581000B1E008950C941F2A672F782F8827B85F6E
:1058200039F0B93FCCF3869577956795B395D9F75D
:105830003EF490958095709561957F4F8F4F9F4F67
:1058400008950E94442908F48FEF089519F416F47E
:105850000C94DB290C946C2C0E94052AB8F3992334
:10586000C9F3B6F39F57550B87FF0E947A2C00248B
:10587000A0E640EA900180585695979528F4805C00
:10588000660F771F881F20F026173707480730F468
:10589000621B730B840B202931294A2BA695179480
:1058A0000794202531254A2758F7660F771F881F50
:1058B00020F026173707480730F4620B730B840B70
:1058C000200D311D411DA09581F7B901842F9158FC
:1058D000880F9695879508959F3F31F0915020F459
:1058E000879577956795B795880F911D96958795BC
:1058F00097F9089591505040660F771F881FD2F78F
:105900000895AEE0B0E0E7E8FCE20C947C2A0D8953
:105910001E8986E08C831A8309838FEF9FE79E831D
:105920008D83AE01475E5F4F6F89788DCE01019602
:105930000E94A42C2F813885020F131FF8011082BA
:105940002E96E4E00C94982AABE0B0E0EAEAFCE2A0
:105950000C946E2A7C013B018A01FC01178216829D
:10596000838181FFC8C1CE0101965C01F70193815B
:10597000F30193FD859193FF81913F01882309F401
:1059800053C1853239F493FD859193FF81913F0195
:10599000853229F4B70190E00E94942EE7CF912C34
:1059A000212C312CFFE1F31538F08B3211F190F4FA
:1059B000803209F1833229F137FC3CC020ED280FF9
:1059C0002A3050F536FE20C08AE0989E200D112422
:1059D000922E06C08D3291F0803371F7689430F8C2
:1059E000F30193FD859193FF81913F018111DACFFE
:1059F00021C0689431F8689432F8F2CF689433F893
:105A0000EFCF689434F8ECCFEAE02E9E200D1124FD
:105A1000222E689435F8E4CF8E3229F436FC04C186
:105A2000689436F8DDCF8C3619F4689437F8D8CFFF
:105A30008836B1F2982F9F7D95549330E0F08336ED
:105A4000A1F18337C1F1833509F063C02801F2E089
:105A50004F0E511CF801C080D180692D70E036FCDA
:105A600002C06FEF7FEFC6010E947E2E4C0168944A
:105A700037F882010AC00C5F1F4FFFE3F9838824C7
:105A80008394912C6501E89437F833FE2DC0522C95
:105A90008114910471F5552009F468CFB70180E2B3
:105AA00090E00E94942E5A94F6CFF8018081898369
:105AB0000E5F1F4FE4CF2801F2E04F0E511CF8019A
:105AC000C080D180692D70E036FC02C06FEF7FEF9F
:105AD000C6010E94892E4C018201D5CFB70180E218
